:020000040800F2
:1000000088460020250300080D130008A3110008EE
:1000100009130008E50C0008192900080000000079
:100020000000000000000000000000006502000861
:100030000D0F000800000000C1020008452600085E
:100040003F0300083F0300083F0300083F03000888
:100050003F0300083F0300083F0300083F03000878
:100060003F0300083F0300083F0300083F03000868
:100070003F0300083F0300083F0300083F03000858
:100080003F0300083F0300083F0300083F03000848
:100090003F0300083F0300083F0300083F03000838
:1000A0003F0300082D2800083F0300083F03000815
:1000B0003F0300083F0300083F0300083F03000818
:1000C0003F0300083F0300083F0300083F03000808
:1000D0003F0300085D2800083F0300083F030008B5
:1000E0003F0300083F0300083F0300083F030008E8
:1000F0003F0300083F0300083F0300083F030008D8
:100100003F0300083F0300083F0300083F030008C7
:100110003F0300083F0300083F0300083F030008B7
:100120003F0300083F0300083F0300083F030008A7
:100130003F0300083F0300083F0300083F03000897
:1001400000000000000000000000000000000000AF
:100150003F0300083F0300083F0300083F03000877
:100160003F0300083F0300083F0300083F03000867
:100170003F0300083F0300083F0300083F03000857
:100180003F03000800F002F800F05CF80AA090E8D5
:10019000000C82448344AAF10107DA4501D100F042
:1001A00051F8AFF2090EBAE80F0013F0010F18BFB3
:1001B000FB1A43F00103184798730000B87300005E
:1001C0000A444FF0000C10F8013B13F0070408BF7D
:1001D00010F8014B1D1108BF10F8015B641E05D01B
:1001E00010F8016B641E01F8016BF9D113F0080FD0
:1001F0001EBF10F8014BAD1C0C1B09D16D1E58BF62
:1002000001F801CBFAD505E014F8016B01F8016B98
:100210006D1EF9D59142D6D370470000002300240B
:1002200000250026103A28BF78C1FBD8520728BF06
:1002300030C148BF0B6070471FB506F05DFE1FBDA3
:1002400010B510BD00F088FA1146FFF7F5FF03F076
:10025000B3FF00F0A6FA03B4FFF7F2FF03BC02F00D
:10026000BAFE00002C4B19680868B0E8F04F80F324
:100270000988BFF36F8F4FF0000080F3118870473B
:100280000000000008480068006880F308884FF00C
:10029000000080F3148862B661B6BFF34F8FBFF3DE
:1002A0006F8F00DF00BF00BF08ED00E0DFF80C003B
:1002B000016841F470010160704700BF88ED00E003
:1002C000EFF30980BFF36F8F134B1A681EF0100F06
:1002D00008BF20ED108A20E9F04F106009B44FF0FC
:1002E000500080F31188BFF34F8FBFF36F8F05F07D
:1002F000F1FF4FF0000080F3118809BC196808680D
:10030000B0E8F04F1EF0100F08BFB0EC108A80F379
:100310000988BFF36F8F7047F0010020EFF305806D
:10032000704700000948804709480047FEE7FEE79C
:10033000FEE7FEE7FEE7FEE7FEE7FEE7FEE7FEE795
:1003400004480549054A064B704700007926000815
:10035000850100088836002088460020883E00205D
:10036000883E002070470000014903F02DBD0000C9
:1003700038000020014A00F07DB90000540200203E
:1003800030B505460B462A4613F8014B12F8010B0F
:1003900008B1A042F8D01CB1002802D06D1CF1E7D2
:1003A000284630BD40EA010310B59B070FD1042A4F
:1003B0000DD310C808C9121F9C42F8D020BA19BA30
:1003C000884201D9012010BD4FF0FF3010BD1AB195
:1003D000D30703D0521C07E0002010BD10F8013BEA
:1003E00011F8014B1B1B07D110F8013B11F8014B11
:1003F0001B1B01D1921EF1D1184610BD10B5431C34
:1004000002E010F8011B71B18107FAD14FF00132FF
:1004100002C88C1A8C4314EAC211F9D0C01A0A0619
:1004200003D0C01E10BDC01A10BD0A0401D0801E2A
:1004300010BD0902FCD0401E10BD40EA010370B59A
:100440009B072ED14FF00136042A2AD308C810C9C1
:100450009D1B9D43121F15EAC61517D0D8B2E1B2F5
:10046000401A50EA056110D198B2A1B2401A50EA80
:1004700005410AD123F07F4024F07F41401A50EA21
:10048000052102D1180EA0EB146070BDA342DBD091
:1004900018BA21BA884201D9012070BD4FF0FF304F
:1004A00070BD0AB9002070BD10F8013B11F8014B76
:1004B00063B1A3420AD1521E08D010F8013B11F8D3
:1004C000014B1BB1A34201D1521EEDD1181B70BDCF
:1004D000032A40F2308010F0030C00F0158011F870
:1004E000013BBCF1020F624498BF11F801CB00F848
:1004F000013B38BF11F8013BA2F1040298BF00F89C
:1005000001CB38BF00F8013B11F0030300F0D480A9
:10051000083AC0F0088051F8043B083A51F804CB7F
:10052000A0E80810F5E7121D5CBF51F8043B40F845
:10053000043BAFF30080D20724BF11F8013B11F850
:1005400001CB48BF11F8012B24BF00F8013B00F894
:1005500001CB48BF00F8012B70474FF0000204297F
:10056000C0F0128010F0030C00F01B80CCF1040CE2
:10057000BCF1020F18BF00F8012BA8BF20F8022B16
:10058000A1EB0C0100F00DB85FEAC17C24BF00F8BC
:10059000012B00F8012B48BF00F8012B70474FF0EA
:1005A000000200B5134694469646203922BFA0E8C3
:1005B0000C50A0E80C50B1F12001BFF4F7AF0907CF
:1005C00028BFA0E80C5048BF0CC05DF804EB8900C0
:1005D00028BF40F8042B08BF704748BF20F8022B03
:1005E00011F0804F18BF00F8012B70474FF0013C0D
:1005F00050F8042B51F8043B9A4221D1A2EB0C0392
:10060000934313EACC1317D150F8042B51F8043B51
:100610009A4215D1A2EB0C03934313EACC130BD1EE
:1006200050F8042B51F8043B9A4209D1A2EB0C0379
:10063000934313EACC13DBD04FF00000704700BFA8
:10064000D01A01BAB1FA81F101F0180122FA01F0D1
:10065000CB40C1F12001DBB2C0B2C01A2CFA01F3C9
:10066000D11A914311EAC311E6D170477047704720
:10067000704770472DE9F04115460E46040002D13F
:100680002C6804B90BA4204600F058F804442078E4
:1006900070B127463146384600F040F804442078CF
:1006A00010B1002004F8010B38462C60BDE8F08141
:1006B0000027F9E70000000010B5203AC0F00B80D9
:1006C000B1E81850203AA0E81850B1E81850A0E856
:1006D0001850BFF4F5AF5FEA027C24BFB1E81850B0
:1006E000A0E8185044BF18C918C0BDE810405FEA20
:1006F000827C24BF51F8043B40F8043B08BF70479C
:10070000D20728BF31F8023B48BF11F8012B28BFA0
:1007100020F8023B48BF00F8012B704730B5034674
:100720001D781DB10A4603E0AC4201D1181A30BD54
:1007300012F8014B002CF7D15B1CF1E730B50346F2
:100740001D783DB10A4612F8014B1CB1AC42FAD1FA
:100750005B1CF5E7181A30BD754600F02BF8AE4665
:1007600005006946534620F00700854618B020B5BD
:10077000FFF7E6FDBDE820404FF000064FF0000710
:100780004FF000084FF0000B21F00701AC46ACE839
:10079000C009ACE8C009ACE8C009ACE8C0098D46A6
:1007A000704710B50446AFF300802046BDE8104006
:1007B000FFF751BD004870472436002042490988A0
:1007C000424A9161404989889160E0B33E49498835
:1007D0003F4A9269891A3D4A11613B49C9883C4A9E
:1007E0001269891A394A116011460969394A126831
:1007F0001144384A1268A1EB9201364A1160114641
:100800000968890800EE101AB8EE400A3049D1EDA7
:10081000070A20EE200A2D4981ED050A09682E4AB3
:10082000126811442C4A1268A1EB92012A4A116005
:1008300011460968890800EE101AB8EE400A2449EA
:10084000D1ED050A00E004E020EE200A1F4981ED09
:10085000010A1E498969214A126811441F4A126817
:10086000A1EB92011D4A1160194991ED030A11464D
:100870000968890800EE901AF8EE600A144991EDB3
:10088000021A00EE810A114981ED070A8968144AAB
:1008900012681144124A1268A1EB9201104A1160C9
:1008A0000B4991ED010A11460968890800EE901A7A
:1008B000F8EE600A064991ED001A00EE810A03493C
:1008C00081ED030A704700003E0000207002002006
:1008D00048000020880000209000002084000020B4
:1008E0008C00002000B589B00121544802F0D8FDE9
:1008F00001215248401C02F0D3FD07A803F07EFA04
:1009000003208DF82200C020079007A94C4803F06F
:1009100080FA0320079007A94A4803F07AFA0121D8
:100920004FF4A01002F0BCFD474802F0ADFE02A853
:1009300002F06FFE45480290454803900020ADF854
:1009400010000420ADF8120000208DF814000120E2
:100950008DF815008DF816008DF817008DF8180029
:1009600000208DF8190002A9374802F05EFE01212F
:10097000354802F047FE01213048C01D02F090FDCD
:10098000022002F04BFC002002F062FB01A802F002
:100990003AFB01208DF8040000208DF805008DF849
:1009A000060004208DF8070001A928484C3802F001
:1009B00014FB0122022125484C3802F0B1FB02232E
:1009C0000122092121484C3802F056FB02231A4625
:1009D00008211E484C3802F04FFB02230322062157
:1009E0001A484C3802F048FB02230422072117481A
:1009F0004C3802F041FB012114484C3802F032FB24
:100A0000012112484C3802F032FB10484C3802F0F9
:100A100001FB00BF0D484C3802F002FB0028F9D161
:100A20000A484C3802F005FB00BF08484C3802F079
:100A300006FB0028F9D109B000BD00000200180033
:100A400000080140000C0140080002404C24014015
:100A50003E00002010B55D48007830B35C4890ED52
:100A6000030A5C48008800EE900AF8EE600A5848D5
:100A700090ED021A00EE810A574880ED040A03F057
:100A80003DFB5448408852498969401A00EE100ADB
:100A9000B8EEC00A4E48D0ED070A20EE200A4E48B4
:100AA00080ED0A0A183003F029FB4C480078401CFE
:100AB000C0B24A4908700A284BDB0020087044483D
:100AC00090ED010A4348808800EE900AF8EE600A33
:100AD0003F4890ED001A00EE810A3F4880ED100A71
:100AE000303003F00BFB3C4890ED110A3C4880EDA0
:100AF0001B0A683003F010FA394880ED270A3348A2
:100B0000007830B3344890ED050A354880ED000A8E
:100B100003F002FA324890ED0C0AD0ED260AB4EE4A
:100B2000E00AF1EE10FA03DD01202E49087002E020
:100B300000202C4908702A4890ED261AF0EE410A50
:100B400090ED0C1AB0EE410A03F0FDF8244880ED58
:100B5000270A2048C0881E490969401A00EE100A79
:100B6000B8EEC00A1A48D0ED050A20EE200A1A484D
:100B700080ED160A483003F0C1FA174890ED170AC5
:100B8000174880ED280A9C3003F0C6F9164880ED1E
:100B9000000A90ED000ADFED150A20EE200ABCEEF7
:100BA000C00A10EE100A80B2114908600E4890ED9C
:100BB000000ADFED100A20EE200ABCEEC00A10EE9B
:100BC000100A80B20A490831086010BD12000020E6
:100BD000480000203E000020D800002094000020A3
:100BE000900200206D0000206800002000E0154504
:100BF000342C014000E0954410B53148007800B332
:100C0000304890ED010A3048808800EE900AF8EEF6
:100C1000600A2C4890ED001A00EE810A2B4880ED06
:100C2000100A303003F06AFA284890ED110A28487B
:100C300080ED1B0A683003F06FF9264880ED000A4A
:100C40001FE02148C0881F490969401A00EE100AB8
:100C5000B8EEC00A1B48D0ED050A20EE200A1B485A
:100C600080ED160A483003F049FA184890ED170A4B
:100C7000174880ED280A9C3003F04EF9154880EDA6
:100C8000000A144890ED000ADFED130A20EE200A56
:100C9000BCEEC00A10EE100A80B2104908600D4880
:100CA00090ED000ADFED0E0A20EE200ABCEEC00A2D
:100CB00010EE100A80B209490831086010BD00002A
:100CC0006D000020480000203E000020D8000020D9
:100CD000900200206800002000E01545342C0140FF
:100CE00000E0954400BFFEE701468248C088824A82
:100CF0001269801A01EE100AB8EEC11A7E48D0EDD2
:100D0000051A21EE211AF0EE410A90ED011A7948F8
:100D1000808801EE900AF8EE611A774890ED002A7B
:100D200001EE821AB0EE410A087806282CD2DFE8DC
:100D300000F003D2BC2C569191ED071A81ED0A1AEE
:100D400091ED021A81ED091A91ED081AB4EEE01A3C
:100D5000F1EE10FA06D991ED021AB4EEC01AF1EED6
:100D600010FA03DD65480088401C00E00020634A5B
:100D70001080104600880A2801DD0320087000203A
:100D80005F4A10805F4A1080B1E091ED051A81ED55
:100D90000A1A91ED021A81ED091A91ED041AB4EEC6
:100DA000C01AF1EE10FA03D254480088401C00E04B
:100DB0000020524A1080104600880A2801DD0420D5
:100DC00008704F4A1288C86A904202D201204870C7
:100DD00008704B480088401C494A108087E091ED1C
:100DE000061A81ED0A1A91ED021A81ED091A91EDA8
:100DF000031AB4EEC01AF1EE10FA0AD291ED081AF5
:100E0000B4EEE01AF1EE10FA03DD3C480088401C15
:100E100000E00020394A1080104600880A2801DDD1
:100E200005200870374A1288086B904206D391ED6E
:100E3000041AB4EEC01AF1EE10FA0ADD314A128833
:100E4000086B904201D2022000E00320487001208C
:100E500008704CE091ED071A81ED0A1A91ED031A22
:100E600081ED091A91ED081AB4EEE01AF1EE10FACC
:100E700003DD22480088401C00E000201F4A10804B
:100E80001288486B904201D2022008701D4A1288D5
:100E9000086B904203D20420487001200870194862
:100EA0000088401C174A108021E091ED081A81ED5E
:100EB0000A1A91ED031A81ED091A91ED031ADFED7B
:100EC000121A21EE211AB4EEC01AF1EE10FA01DD69
:100ED000002008700BE091ED081A81ED0A1A91EDDF
:100EE000031A81ED091A0020044A108000BF00BFD8
:100EF000087870473E00002048000020D000002005
:100F0000D2000020D40000206666663F70470000D3
:100F100070B504460D462A4621460B48FFF7D8FA1D
:100F200000BF8021094804F0F1FE0028F9D000211B
:100F3000074802F067FB2946054802F068FB0121DB
:100F4000034802F05FFB70BD6003002000380140E1
:100F5000440002402B480088401C2A4908802A4847
:100F600040882A4909680844284908602648C088FA
:100F70002749096808442649086022480088B0F5D6
:100F8000807F3CD121480068000A2249086020483F
:100F90000068000A2049086000201A4908801B499F
:100FA00008601B4908601B4A1268A2F5006100290D
:100FB00001DB0A4600E04A42502A13DA164A126858
:100FC000A2F50060002801DB024600E04242502A00
:100FD00008DA10480068114988610F480068086104
:100FE000012070470E4801880088401C0C4A108080
:100FF000032904DD002011460880401EF1E700208F
:10100000EFE700006E0000203E000020740000208A
:10101000780000207C000020800000204800002094
:10102000700000202DE9FF4F85B081468A460020E0
:10103000039083460798A0EB09050898A0EB0A06E1
:10104000CDF80890CDF804A0002D01DD012705E0C2
:101050000DB9002702E04FF0FF376D42002E02DD90
:101060004FF0010806E016B94FF0000802E04FF01B
:10107000FF387642B54201DD2C4600E034460020C0
:1010800004901EE0019AD1B2029AD0B2129A00F0F6
:1010900033FA039828440390B3440398A04205DD33
:1010A0000398001B0390029838440290A34504DD86
:1010B000ABEB040B0198404401900498401C80B2B3
:1010C0000490611C04988842DCDD00F021F909B02D
:1010D000BDE8F08F2DE9F05F06460F469046994631
:1010E0004FF0000A00240025A8F1200000F0FF0ABC
:1010F0007F2E02DD0026B81CC7B200242BE0B9F118
:10110000000F05D0174800EBCA0010F804B006E045
:10111000144800EBCA00005DC04300F0FF0B00253F
:1011200015E08020284100EA0B0038B13A19D1B20D
:101130007219D0B2012200F0DFF906E03A19D1B2FB
:101140007219D0B2002200F0D7F9681CC5B2082D80
:10115000E7DB601CC4B2082CD1DB00F0D9F8BDE895
:10116000F09F00000C6F00082DE9F04104460F4687
:101170001546984600260FE0AA5D434639462046AC
:10118000FFF7A8FFA01DC4B2782C03DD002407F1EF
:101190000800C7B2701CC6B2A85D0028ECD1BDE83B
:1011A000F08100BFFEE7000010B54FF40041134886
:1011B00002F083FE28B14FF48041104802F07DFE1A
:1011C000C8B90F480078401CC0B20D490870022809
:1011D00011DB002008704FF40041084802F06DFE5A
:1011E00008B9012010BD4FF48041044802F065FEAB
:1011F00008B90220F6E70020F4E70000000C0140E7
:101200003C00002010B503460C460120FFF7D6FA3B
:10121000012B02D0022B1AD100E000BF0E488069DA
:10122000B0F5FA7F12DB0C48806940F25E618842BB
:101230000CDA0A4801780078401C084A1070A14274
:1012400004DD0020114608700549087000BF00BF8A
:101250000348007810BD00007002002096000020B6
:101260006C00002010B504460B462046FFF7A6FA96
:10127000B4B1214801682148006900F266608142EA
:101280000EDD1F4801780078401C1D4A10709942FD
:101290002EDD00201146087004201A49087027E04E
:1012A00015488069B0F5F17F0EDC154801780078AB
:1012B000401C134A107099421ADD00201146087034
:1012C00001201049087013E00B48806940F26E61FC
:1012D00088420DDD0A4801780078401C084A1070E9
:1012E000994205DD0020114608700220054908706A
:1012F0000448007810BD0000700200204800002063
:10130000950000206C00002000BFFEE77047000041
:1013100070B500241CE004F1B001C8B2002100F057
:101320002BF90021084600F027F90021102000F0D9
:1013300023F9002508E005EBC411074A505C0121A0
:1013400000F01AF9681CC5B2802DF4DB601CC4B231
:10135000082CE0DB70BD0000F606002070B50646E4
:10136000002419E004F1B001C8B2002100F004F932
:101370000021012000F000F90021102000F0FCF80D
:10138000002505E00121304600F0F6F8681CC5B2E2
:10139000802DF7DB601CC4B2082CE3DB70BD10B5F8
:1013A00000F0A2FF00F06AF8C82002F0C3F900F0D4
:1013B0008BF80021AE2000F0DFF80021084600F095
:1013C000DBF80021102000F0D7F80021402000F0C9
:1013D000D3F80021B02000F0CFF80021812000F0E8
:1013E000CBF80021FF2000F0C7F80021A12000F079
:1013F000C3F80021A62000F0BFF80021A82000F0CB
:10140000BBF800213F2000F0B7F80021C82000F011
:10141000B3F80021D32000F0AFF80021084600F017
:10142000ABF80021D52000F0A7F80021802000F0C3
:10143000A3F80021D92000F09FF80021F12000F04E
:101440009BF80021DA2000F097F80021122000F02C
:1014500093F80021DB2000F08FF80021302000F00D
:101460008BF800218D2000F087F80021142000F077
:1014700083F80021AF2000F07FF810BD1CB50121DA
:101480000F4802F00DF8684602F0B8FC01208DF814
:10149000070000208DF8040010208DF806004FF49E
:1014A0001840009004208DF805006946054802F0B8
:1014B000B0FC4FF418400349103108601CBD000017
:1014C000020018000008014010B54FF400600949FF
:1014D0000860642002F02EF94FF400600549091DF0
:1014E0000860642002F026F94FF4006001490860AA
:1014F00010BD000010080140F0B503461446E4B1E9
:10150000CD1701EB5575ED1003EBC515194E755D43
:101510000A46CE1701EB5676F610A1EBC607012658
:10152000BE40F6B235430846CE1701EB5676F610AC
:1015300003EBC6160F4FBD551AE0CD1701EB5575DD
:10154000ED1003EBC5150B4E755D0A46CE1701EB8A
:101550005676F610A1EBC6070126BE40B5430846F5
:10156000CE1701EB5676F61003EBC616014FBD55AC
:10157000F0BD0000F606002070B505460C4624B10B
:101580004FF480500A49086004E04FF48050084945
:10159000091D08604FF400400549091D08602846F0
:1015A00000F020FF4FF400400149086070BD0000CA
:1015B000100801402DE9F74F82B08346174600BF5F
:1015C0002648009000980078532801D001F0A6F931
:1015D00000BF0BEB4B012148603000EBC106DDF88A
:1015E0000C903569D6F80CA04FF00008554517D976
:1015F000B068441BBC4201D2204600E03846044695
:10160000706828440190224648460199FEF760FF21
:10161000A044A1443F1B2544B068A84200D1002546
:10162000AAEB0504BC4201D2204600E0384604463D
:101630005CB1706828440190224648460199FEF743
:1016400047FFA044A1443F1B2544B8F1000F00D040
:101650003561404605B0BDE8F08F0000F80A002073
:101660002DE9F04104460D46164600BF0E4F38786E
:10167000532801D001F052F900BFEFF31180074663
:10168000202080F3118800BF00BF32462946204643
:1016900000F00CF88046F8B280F3118800BF00BF5C
:1016A0004046BDE8F0810000F80A00202DE9F0472F
:1016B000074688461646C24607EB47011B4800EB23
:1016C000C109D9F8140020B1012811D0022826D16F
:1016D0001EE0484601F070F90546B54201D20024EB
:1016E00005E0344632465146484601F048FC18E0D1
:1016F000484601F061F90546B54201D2284600E0AE
:101700003046044622465146484601F038FC08E07F
:1017100032465146484601F0F7FB044601E00024FA
:1017200000BF00BF2046BDE8F0870000100B00207E
:101730002DE9F74F82B082461446DDF80CB00AEB73
:101740004A01224800EBC105D5F81090EE686868A0
:1017500030440190B14528D8A868801B471EA74295
:101760000AD3224659460198FEF7B2FE3019E860C6
:10177000012005B0BDE8F08F4F44A74223D3A868ED
:10178000A0EB0608424659460198FEF7A1FEA4EBDD
:1017900008043CB1686801900BEB080122460198EF
:1017A000FEF796FEEC600120E3E7A9EB0600471E7A
:1017B000A74208D3224659460198FEF789FE301900
:1017C000E8600120D5E70020D3E70000100B0020DF
:1017D0000FB438B5044606A800906A46204605991D
:1017E00000F008F8054600200090284638BC5DF857
:1017F00014FB00002DE9F04F2DED028B99B08246CD
:101800000D46144603A81490402015900020169011
:10181000CDF860A0179000BF2E786D1C06B926E1A8
:10182000252E73D100274FF0010900BF2E78232EFB
:1018300012D02B2E0CD02D2E02D0302E10D103E042
:1018400047F001076D1C0EE047F002076D1C0AE02F
:1018500047F004076D1C06E047F008076D1C02E026
:101860004FF0000900BF00BFB9F1000FDED14FF00B
:10187000000800BF2E78302E01DB392E00DD07E096
:101880006D1CA6F1300008EB880100EB4108F1E780
:1018900000BF002013902E782E2E12D16D1C00BF99
:1018A0002E78302E01DB392E00DD09E06D1CA6F10B
:1018B0003000139901EB810100EB41001390EFE739
:1018C00000BF2E7800BF6C2E01D0682E02D16D1C97
:1018D0002E7800E000E0F6E700BF662E7BD00CDC3F
:1018E000582E3DD004DC252E70D0462E6DD173E0ED
:1018F000632E0CD0642EF9D115E0702E53D0732EC8
:101900003CD0752E1DD0782EF0D128E0A7E02168BC
:10191000081D2060D1F8009009F0FF0B594614A86B
:1019200001F08CFA98E02168081D2060D1F8009041
:10193000CDE900870A22494614A8139B01F0A1F8BB
:101940008AE02168081D2060D1F80090CDE9008769
:101950000A22494614A8139B01F00AF97CE000BF53
:101960002168081D2060D1F80090CDE90087102281
:10197000494614A8139B01F0FBF86DE02168081D8F
:101980002060D1F800B000BF9BF800600BF1010BA4
:1019900006B906E0314614A801F050FA179800285D
:1019A000F2DA00BF58E02168081D2060D1F80090ED
:1019B000002008210B461022CDE90010494614A84A
:1019C00001F0D6F848E006E000E044E0252114A844
:1019D00001F034FA40E000BF2068C01D20F007008D
:1019E00001460830206091ED001BB0EE410AF0EE98
:1019F000610A51EC100B04F0A5FF08EE100ABDEED1
:101A0000C80A10EE109ACDE900870A22494614A8A8
:101A1000139B01F036F82E2114A801F00FFA9FED68
:101A20001E0A28EE000ABDEEC00A10EE100A0028B9
:101A300001DB014600E041428946642099FBF0F158
:101A400000FB119902230A22494614A8CDE9008718
:101A500001F017F800E000BF00BF6D1C03E0314645
:101A600014A801F0EBF917980028BFF6D5AE00BF17
:101A7000179800280ADD169820B103A95046169A37
:101A8000FFF7EEFDDDE9161008441790179819B01E
:101A9000BDEC028BBDE8F08F0000C84270B5EFF3DB
:101AA00011800646202080F3118800BF00BF28481F
:101AB00000F0E4FF05462C462046264A516805E022
:101AC000CAB242F0800200F8012BC9097F29F7D879
:101AD00000F8011B044620461E4A916805E0CAB280
:101AE00042F0800200F8012BC9097F29F7D800F8DD
:101AF000011B04462046174A116905E0CAB242F0AC
:101B0000800200F8012BC9097F29F7D800F8011BD2
:101B100004462046002105E0CAB242F0800200F8E7
:101B2000012BC9097F29F7D800F8011B04461822A8
:101B30002146284601F092F8F0B280F3118800BFE8
:101B400000BF0448406A10B10249486A804770BD2E
:101B5000D8130020B013002070B5EFF311800446B5
:101B6000202080F3118800BF00BF074800F086FFE7
:101B7000054611222946284601F070F8E0B280F3AC
:101B8000118800BF00BF70BDD81300202DE9F041BF
:101B90000446EFF311800746202080F3118800BF30
:101BA00000BF114800F06AFF05462E460F48006945
:101BB000241A3046214605E0CAB242F0800200F8FD
:101BC000012BC9097F29F7D800F8011B0646082216
:101BD0003146284601F042F8F8B280F3118800BF80
:101BE00000BFBDE8F0810000D8130020B013002032
:101BF0002DE9F0410446EFF311800746202080F3E1
:101C0000118800BF00BF114800F038FF05462E467E
:101C10000F480069241A3046214605E0CAB242F056
:101C2000800200F8012BC9097F29F7D800F8011BB1
:101C3000064604223146284601F010F8F8B280F337
:101C4000118800BF00BFBDE8F0810000D81300205C
:101C5000B01300202DE9F0410446EFF31180074650
:101C6000202080F3118800BF00BF114800F006FF5C
:101C700005462E460F480069241A3046214605E0E5
:101C8000CAB242F0800200F8012BC9097F29F7D8B7
:101C900000F8011B064606223146284600F0DEFF0A
:101CA000F8B280F3118800BF00BFBDE8F0810000EA
:101CB000D8130020B013002070B50C48006A78B12A
:101CC0000A48006A006858B10849096A08688047EC
:101CD00004460D462A4621460D2000F039F804E05E
:101CE000034841680C2000F005F870BDB0130020D7
:101CF000001000E02DE9F04105460E46EFF311809B
:101D00008046202080F3118800BF00BF0F4800F0FC
:101D1000B5FE044627463846314605E0CAB242F0D1
:101D2000800200F8012BC9097F29F7D800F8011BB0
:101D300007462A463946204600F090FF08F0FF008B
:101D400080F3118800BF00BFBDE8F081D8130020E8
:101D50002DE9F04706460F469046EFF31180814685
:101D6000202080F3118800BF00BF174800F086FED6
:101D700005462C462046394605E0CAB242F08002AC
:101D800000F8012BC9097F29F7D800F8011B044688
:101D90002046414605E0CAB242F0800200F8012B1D
:101DA000C9097F29F7D800F8011B044632462146AD
:101DB000284600F053FF09F0FF0080F3118800BFB0
:101DC00000BFBDE8F0870000D81300202DE9F05FC8
:101DD00006460F4690469946DDF828A0EFF311809D
:101DE0008346202080F3118800BF00BF244800F004
:101DF00045FE05462C462046394605E0CAB242F06B
:101E0000800200F8012BC9097F29F7D800F8011BCF
:101E100004462046414605E0CAB242F0800200F87E
:101E2000012BC9097F29F7D800F8011B0446204679
:101E3000494605E0CAB242F0800200F8012BC90908
:101E40007F29F7D800F8011B04462046514605E0DB
:101E5000CAB242F0800200F8012BC9097F29F7D8E5
:101E600000F8011B044632462146284600F0F6FEE3
:101E70000BF0FF0080F3118800BF00BFBDE8F09FAA
:101E8000D813002070B50446EFF3118005462020DA
:101E900080F3118800BF00BF074800F0EFFD064641
:101EA00022463146304600F0D9FEE8B280F3118870
:101EB00000BF00BF70BD0000D81300202DE9F0471F
:101EC00006462948006800284CD0274804680027A7
:101ED00003E0246904B902E07F1CB742F9D300BFD4
:101EE000002C3AD0EFF311808146202080F3118836
:101EF00000BF00BF1D4800F0C1FD80464546284692
:101F0000314605E0CAB242F0800200F8012BC9094F
:101F10007F29F7D800F8011B05462846A16805E08F
:101F2000CAB242F0800200F8012BC9097F29F7D814
:101F300000F8011B054680222846216800F026FD96
:101F4000054616222946404600F088FE09F0FF00AB
:101F500080F3118800BF00BF00BF1CB1E06808B16A
:101F6000E0688047BDE8F087D8010020D813002042
:101F700010B50748006848B10548046800BFE0682C
:101F800008B1E06880472469002CF8D110BD00003A
:101F9000D801002070B5EFF311800646202080F3B1
:101FA000118800BF00BF0F4800F068FD04462546B9
:101FB00028460D4A117805E0CAB242F0800200F8C6
:101FC000012BC9097F29F7D800F8011B05461B2200
:101FD0002946204600F042FEF0B280F3118800BF8F
:101FE00000BF70BDD8130020DC0100202DE9F041B6
:101FF0000546EFF311800746202080F3118800BFCB
:1020000000BF3B4800F03AFD064634462046394BB7
:102010002A681B69D11A05E0CAB242F0800200F8B2
:10202000012BC9097F29F7D800F8011B0446204677
:10203000A96805E0CAB242F0800200F8012BC90984
:102040007F29F7D800F8011B044620222046696842
:1020500000F09CFC044609222146304600F0FEFDBB
:1020600034462046234B2A681B69D11A05E0CAB2C0
:1020700042F0800200F8012BC9097F29F7D800F847
:10208000011B04462046E96805E0CAB242F080021E
:1020900000F8012BC9097F29F7D800F8011B044675
:1020A0002046296905E0CAB242F0800200F8012BFF
:1020B000C9097F29F7D800F8011B044620460021F2
:1020C00005E0CAB242F0800200F8012BC9097F295D
:1020D000F7D800F8011B044615222146304600F0CF
:1020E000BDFDF8B280F3118800BF00BFBDE8F081EC
:1020F000D8130020B013002010B50648006A38B18C
:102100000448006A406818B10249096A4868804773
:1021100010BD0000B0130020014602480069081AF3
:1021200070470000B013002070B501203A490870D4
:10213000EFF311800446202080F3118800BF00BF18
:1021400048780A223549FFF7F3FAE0B280F31188A4
:1021500000BF00BF0A20FFF795FEEFF3118006468F
:10216000202080F3118800BF00BF2D4800F086FCBE
:1021700005462C462046284A516805E0CAB242F07E
:10218000800200F8012BC9097F29F7D800F8011B4C
:1021900004462046204A916805E0CAB242F0800217
:1021A00000F8012BC9097F29F7D800F8011B044664
:1021B0002046194A116905E0CAB242F0800200F8CF
:1021C000012BC9097F29F7D800F8011B04462046D6
:1021D000002105E0CAB242F0800200F8012BC909D3
:1021E0007F29F7D800F8011B04461822214628460B
:1021F00000F034FDF0B280F3118800BF00BF064844
:10220000406A10B10449486A8047FFF755FDFFF75F
:1022100073FFFFF7BFFE70BDB013002035720008DA
:10222000D813002070B5EFF311800546202080F30D
:10223000118800BF00BF0A4800F020FC044609488E
:10224000007838B10B222146204600F007FD00201F
:1022500004490870E8B280F3118800BF00BF70BD68
:10226000D8130020B01300202DE9F0410546EFF30C
:1022700011800646202080F3118800BF00BF194856
:1022800000F0FCFB074680222946384600F07EFB22
:1022900004462046012105E0CAB242F0800200F85F
:1022A000012BC9097F29F7D800F8011B04462046F5
:1022B000002105E0CAB242F0800200F8012BC909F2
:1022C0007F29F7D800F8011B04461A222146384618
:1022D00000F0C4FCF0B280F3118800BF00BFBDE87D
:1022E000F0810000D81300201FB502A801F086FD80
:1022F000684603F0BAF801214FF4C01001F0D0F89D
:102300000121334801F0CCF801213148093001F0B6
:10231000C7F801212F4801F0D9FD01212E4801F015
:10232000D5FD01208DF80F0000208DF80C0008204D
:102330008DF80E00029004208DF80D0002A92748A8
:1023400001F067FD01208DF80F0000208DF80C00D2
:102350008DF80E001020029004208DF80D0002A9C7
:102360001E4801F056FD01208DF80F0000208DF869
:102370000C0008208DF80E002020029004208DF81B
:102380000D0002A9154801F044FD00208DF8000061
:1023900001208DF8010000208DF804008DF8030065
:1023A00002208DF8020001208DF805008DF806004E
:1023B0008DF8070069460A4803F067F807210848C6
:1023C00003F04EF80121064803F05AF81FBD000043
:1023D000030018000203103001041028000C014013
:1023E00000300140014600BF0948806800F002004B
:1023F0000028F9D00648C16000BF0548806800F099
:1024000001000028F9D00248C068C0B2704700003F
:10241000003001402DE9F84305460C4616461F469C
:10242000DDF82080052221A12046FDF7BBFF08B979
:10243000BDE8F8831F480068082803D31E48FFF74B
:1024400013FFF5E71B48006800EB80001B4941F8CB
:1024500020501848006800EB800001EB80004460C9
:102460001448006800EB800001EB80008660114892
:10247000006800EB800001EB8000C7600D48006839
:1024800000EB800001EB8000C0F810800948006874
:10249000401C084908603B46324621462846CDF894
:1024A000008000F095F800BFC2E7000049444C45A9
:1024B00000000000E401002000750008BC140020AA
:1024C00070B505464048006800B970BD002408E0BA
:1024D00004EB84003D4951F82000A84200D104E0FB
:1024E000641C394800688442F2D300BF3648006853
:1024F000401EA0420DD104EB8401344A02EB81005E
:102500001421FEF74CF830480068401E2E49086040
:1025100057E02D480068844253D22B480068401E83
:1025200000EB8000294951F8200004EB8401274A80
:1025300042F8210024480068401E00EB800011464C
:1025400001EB8000406804EB840102EB81014860EC
:102550001D480068401E00EB8000114601EB800022
:10256000806804EB840102EB8101886016480068F2
:10257000401E00EB8000114601EB8000C06804EBB8
:10258000840102EB8101C8600F480068401E00EB27
:102590008000114601EB8000006904EB840102EB2E
:1025A0008101086108490968491E01EB810102EBBC
:1025B00081001421FDF7F3FF03480068401E024923
:1025C000086000BF81E70000E4010020BC14002087
:1025D0002DE9F04186B004460D4616461F46DDF84B
:1025E0003080142101A8FDF7DAFF019402950396CB
:1025F0000497CDF8148001A8FFF7F8FC06B0BDE8F9
:10260000F08110B5032001F005FF03F075F801F02B
:1026100073F800F0B9FD012000F0EEFD00F09AFD26
:10262000FEF760F900F060F8FEF7B9FE02E0642002
:1026300001F080F801F0BAF80028F8D1022000F08B
:10264000DBFD10BD10B500BF502080F31188BFF333
:102650004F8FBFF36F8F00BF04F046F818B14FF0F3
:1026600080500449086000BF002080F3118800BF3B
:1026700010BD000004ED00E01848006840F4700050
:10268000164908601648006820F00100401C1449F3
:10269000086000BF12480068C0F340000028F9D06D
:1026A0000F48406820F003000D49486000BF0C4807
:1026B0004068C0F381000028F9D109480068094941
:1026C0000840074908600020486008634FF41F0075
:1026D0008860C803014980390860704788ED00E0D0
:1026E00000100240FFFFF2FE70B58AB00025002402
:1026F000142103A8FDF753FF03A800F001FE0121F8
:10270000454800F0CDFE01214348093800F0C8FEDD
:102710004FF48070089008208DF8260000208DF876
:10272000240004208DF8250001208DF8270008A939
:102730003A4801F06EFB4FF40050089008208DF8E5
:10274000260000208DF8240004208DF825000120AB
:102750008DF8270008A9324801F05BFB059840007E
:102760003049B0FBF1F0401E85B2681E0A21B0FB73
:10277000F1F084B2002229462B4803F07DF80021B5
:10278000294803F0C5F801A803F0B3F907208DF834
:10279000040000208DF8090001208DF807008DF855
:1027A000050000208DF80A0001208DF808000020A7
:1027B0008DF8060001AA00211B4803F0CAF8224642
:1027C0000021194803F090F801208DF8090001AAB2
:1027D0000421154803F0BDF8264604EBD6704210DC
:1027E0000421114803F080F804200F4930310860BB
:1027F000002201210C4803F0A1F800220221192037
:1028000001F0A4FD0121084803F07CF901210648EC
:1028100003F083F80AB070BD0B00180000080140F7
:10282000000C0140A0860100002C014010B50121E0
:10283000084803F07AF801280BD10748007810B156
:10284000FEF708F901E0FEF7D7F90121014803F08E
:1028500069F810BD002C01401100002010B52021A6
:10286000204803F053FA00283AD01E4803F03CFAFF
:10287000C1B21D4802780078401C1B4B18701B48E1
:10288000815418460078801E1849085C0D2827D10D
:1028900018460078401E085C0A2821D100211846FD
:1028A0000078801E114A1154002019460870104803
:1028B000007870B107220FA10C48FDF7BEFD28B1CA
:1028C0001A220EA10948FDF7B8FD10B900200849E9
:1028D000087001F0EBF84FF480710448FDF73DFEFD
:1028E00010BD000000380140C4010020F6050020A2
:1028F000C60100202B43574A41503A00736D617264
:1029000074636F6E66696720636F6E6E656374656E
:10291000642077696669000000BFFEE770B5144C5B
:10292000A8212046FDF73BFE03202061606111A035
:10293000A0611349E1614FF4806121620021A1622D
:102940006162E1620BA020660E4961661021A166FA
:1029500000212167E1666167002505E0C5F10F00F0
:102960000949085C60556D1C102DF7D370BD00003F
:10297000F80A00205465726D696E616C00000000F9
:10298000A00B0020A00F00201472000870B50C46A8
:102990000346401C802A00D9802203E011F8015B25
:1029A00000F8015B151EA2F1010202D00D78002D86
:1029B000F4D10D1B1D7070BD10B501460A69CB68BE
:1029C0009A4204D88C68641EE41AA01801E0D41A54
:1029D000601E10BD38B52849087E01226946FEF701
:1029E000E9FD0446002C45D09DF8000005281ED0C6
:1029F00008DC01280FD0022810D0032811D00428A9
:102A00002CD111E0062815D0072816D07F2824D015
:102A1000802823D114E0FFF787FB2AE0FFF702FCB0
:102A200027E0FFF749F924E0FFF766FB21E0FFF715
:102A300035F81EE0FFF7AEFA1BE0FFF799FA18E051
:102A40000D49087E01226946FEF7B4FD04461CB11B
:102A50009DF80000FFF732FA0BE00AE09DF8000055
:102A6000802805DB0449087E01226946FEF7A2FDA5
:102A700000BF00BF38BD0000B01300200146C81DD4
:102A800070472DE9FC5F06460F4692469846DDE901
:102A90000C45002F01DA784200E0384683464FF0BB
:102AA000010903E09BFBFAFB09F10109D345F9DABF
:102AB000C84500D9C14634B1002F03DB05F004003E
:102AC000042800D1641E05F0020010B1B8F1000F17
:102AD00011D005F0010070B96CB108E0641E20212E
:102AE000304600F0ABF9F068002800DA02E00CB1E3
:102AF000A145F3D300BFF068002836DB002F05DACC
:102B00007F422D21304600F099F907E005F00400DE
:102B1000042803D12B21304600F090F9F0680028FA
:102B200023DB05F00200022814D105F0010088B96A
:102B3000B8F1000F0ED16CB108E0641E30213046B0
:102B400000F07CF9F068002800DA02E00CB1A14541
:102B5000F3D300BFF068002807DB434652463946EE
:102B60003046CDE9004500F003F8BDE8FC9F0000C9
:102B70002DE9FC5F8046894615461E460C9CCDF823
:102B800004900127BB4605E00198B0FBF5F00190E9
:102B90000BF1010B0198A842F6D25E4500D9B3466D
:102BA0000D9800F00100D0B9CCB10D9800F00200F2
:102BB000022803D116B93020009001E020200090B7
:102BC00009E0641E4046009900F038F9D8F80C007E
:102BD000002800DA02E00CB1A345F2D300BFD8F818
:102BE0000C00002835DB09E0012E01D9761E04E037
:102BF000B9FBF7FAAA4500D201E06F43F4E700BF42
:102C000000BFB9FBF7FA0AFB1799134810F80A102E
:102C1000404600F013F9D8F80C00002800DA03E071
:102C2000B7FBF5F7002FECD100BF0D9800F00100C5
:102C300078B174B109E0641E2021404600F0FEF82E
:102C4000D8F80C00002800DA02E00CB1A345F2D35A
:102C500000BFBDE8FC9F0000257200082DE9F04789
:102C600005460F46144672480078012800D10FE04F
:102C70006F48007800B9BCE06D480078022806D1A2
:102C800000F0FEF86A480078012800D0B1E000BFEB
:102C9000202C06D26648C0690121A140084000B13D
:102CA000A7E0182C03D2681E0546047078E07E1B4E
:102CB0007F2E0BD9C6F3C711681E05460170F0B20E
:102CC00040F08001681E0546017002E0681E05465E
:102CD00006707F2C03D2681E0546047060E0B4F5D0
:102CE000804F0BD2C4F3C711681E05460170E0B2D5
:102CF00040F08001681E0546017051E0B4F5001FE8
:102D000012D2C4F38731681E05460170802040EA64
:102D1000D410C1B2681E05460170E0B240F08001D7
:102D2000681E054601703BE0B4F1805F19D2C4F320
:102D30004751681E05460170802040EA9430C1B2B8
:102D4000681E05460170802040EAD410C1B2681E9A
:102D500005460170E0B240F08001681E0546017032
:102D60001EE0210F681E05460170802040EA545085
:102D7000C1B2681E05460170802040EA9430C1B29D
:102D8000681E05460170802040EAD410C1B2681E5A
:102D900005460170E0B240F08001681E05460170F2
:102DA0002448D0F804802248C068A8EB000A3846BE
:102DB000514605E0CAB242F0800200F8012BC90971
:102DC0007F29F7D800F8011B07467A1B1849487875
:102DD0002946FEF7ADFC8146B9F1000F03D0144837
:102DE000C0F80C8004E012480078401C10490870BC
:102DF00000BF0F48007E00EB40010F4800EBC10010
:102E0000C1680B48007E00EB40020B4800EBC2009B
:102E10000069081A0AD00648807838B901200449A8
:102E20008870FFF7D7FD002001498870BDE8F08762
:102E3000B0130020001000E0580B002070B50446CD
:102E40000E46A568681C6168814206D32068465515
:102E5000681CA060E068401CE060D4E90110884272
:102E60000DD1A26821682069FEF7FAFBA1688842AB
:102E700003D04FF0FF30E06001E00020A06070BDA3
:102E8000FEB501208DF800000DF1010630461C4A08
:102E9000516905E0CAB242F0800200F8012BC9096D
:102EA0007F29F7D800F8011B0646164844681448E5
:102EB000C068271A3046394605E0CAB242F080029F
:102EC00000F8012BC9097F29F7D800F8011B064635
:102ED0006946721A0A4948786946FEF729FC054690
:102EE00035B10748C4600078401E0549087004E009
:102EF00003484069401C024948612846FEBD000065
:102F0000B0130020001000E02DE9F05F0446894670
:102F100017464FF0000AE56800BFD4F81080A845B6
:102F200003D9A8EB0500461E04E0A5EB0800401CF1
:102F3000A1680E1AA068401BB04201D9304601E0DA
:102F4000A068401B0646BE4201D2304600E038462B
:102F50000646606800EB050B324649465846FDF7C9
:102F6000B7FAB244B144BF1B3544A068A84200D1AF
:102F70000025E560002FD0D15046BDE8F09F2DE937
:102F8000F047044689461546E668A068871BAF42AD
:102F90000AD9606800EB060A2A4649465046FDF702
:102FA00097FA7019E06014E0B846606800EB060A12
:102FB000424649465046FDF78BFAA5EB0708D4F880
:102FC00004A009EB070142465046FDF781FAC4F818
:102FD0000C80BDE8F08700BF70470B78426863F350
:102FE000082242604B78826863F3410282608B78EA
:102FF000826863F3CB228260CA78521EC36A62F38E
:103000001753C36270470021017041708170012124
:10301000C1707047816821F00801083181607047F4
:1030200001468868C0F3C00008B101207047002045
:10303000FCE7816821F00401091D816070470146A9
:103040008868C0F3800008B1012070470020FCE7C9
:103050000349096860F31341014A11607047000099
:1030600004240140826861F308228260704782680C
:1030700061F300028260704770B504460A290CDAD9
:10308000206901EB41060725B540A84301EB410546
:1030900003FA05F5284320610FE0E068A1F10A0575
:1030A00005EB45060725B540A843A1F10A0505EB48
:1030B000450503FA05F52843E0600D2A10DBE06AB8
:1030C000A2F10D0505EB85061F25B540A843A2F129
:1030D0000D0505EB850501FA05F52843E0621EE0C4
:1030E000072A0EDB206BD51F05EB85061F25B54093
:1030F000A843D51F05EB850501FA05F52843206394
:103100000DE0606B551E05EB85061F25B540A843F5
:10311000551E05EB850501FA05F52843606370BD72
:1031200007290ADD836823F0007303F100738360CD
:10313000836861F35343836007E0836823F000737F
:103140008360836861F353438360836862F314533D
:10315000836070471CB50121094800F0A1F9684659
:1031600000F04CFE00208DF806004FF44040009027
:1031700018208DF805006946024800F04AFE1CBD83
:1031800003001800000C01401CB501210F4800F09D
:1031900087F9684600F032FE01208DF80700002014
:1031A0008DF8040010208DF80600182000900420EF
:1031B0008DF805006946064800F02BFE08200449FA
:1031C00010310860102008601CBD000002001800CB
:1031D00000080140012802D0022808D103E008219C
:1031E000044A116003E01021024A116000BF00BFD1
:1031F0007047000010080140012802D0022808D1C1
:1032000003E00821044A116003E01021024A116022
:1032100000BF00BF7047000014080140064949681C
:1032200060F38F31044A516082080349496862F3B0
:103230001C71014A516070470010024003494968FF
:1032400060F30711014A516070470000001002400E
:103250000349496860F30A21014A51607047000040
:10326000001002400349496860F3CD21014A5160D2
:103270007047000000100240012807D10749496D3E
:1032800021F030013031054A516505E00349496DAF
:1032900021F03001014A51657047000000100240E2
:1032A000052827D2DFE800F0030A11181F00134A8F
:1032B000126861F30002114B1A601CE00F4A126899
:1032C00061F310420D4B1A6015E00C4A126861F36D
:1032D00018620A4B1A600EE0084A126A61F3000293
:1032E000064B1A6207E0054A526A61F30002034B7B
:1032F0005A6200E000BF00BF7047000000100240AB
:103300002DE9F041014600270022002590460023C8
:10331000002400F06FF9064626B1012E12D0022ECD
:1033200043D112E03948406DC0F3402038B13748EE
:10333000006BC0F3406010B13548086001E03548CB
:10334000086035E03348086032E030484068C0F338
:1033500000482E484068C0F383422C484068C0F3C0
:1033600041750DB90F2A03D12801401C024400E029
:10337000921CB8F1000F03D127485043086013E0B6
:1033800022484068C0F3404058B12048406DC0F327
:103390000137B81CDFF87CC0BCFBF0F0504308607C
:1033A00002E01C485043086002E01A48086000BF71
:1033B00000BF16484068C0F303131848C45C08688F
:1033C000E040486011484068C0F302231448C45CE0
:1033D0004868E040C8600D484068C0F3C223114807
:1033E000C45C4868E040886008484068C0F30073E7
:1033F00006484068C0F3813040EA83030A48C45C51
:103400008868B0FBF4F00861BDE8F081001002406C
:10341000006CDC0200127A0000093D004F720008C7
:103420005F720008677200086F72000810B50146ED
:103430000020094B03EB1142126801F01F04012325
:10344000A3401A4001F01F040123A3409A4200D078
:1034500000E0012010BD0000001002400349496D4A
:1034600060F30D31014A51657047000000100240C1
:1034700030B50024002500E0641C1120FFF7D6FFC2
:10348000012802D0B4F5405FF6D31120FFF7CEFF3C
:10349000012801D0002500E00125284630BD0000AC
:1034A00010B501290DD10E4B03EB1042126800F04C
:1034B0001F040123A3401A43094C04EB10431A6074
:1034C0000CE0074B03EB1042126800F01F040123CD
:1034D000A3409A43024C04EB10431A6010BD000055
:1034E0000010024010B568B91C4B5B6823F48033B0
:1034F0001A4C636023461B6B23F0007303F10073C7
:10350000236317E0154B5B6823F4803303F58033A6
:10351000124C6360012805D123465B6823F4003315
:10352000636007E00D4B5B6823F4003303F5003361
:103530000A4C6360094B5B6861F39543074C636019
:103540000C09064B5B6864F35E73044C63602346AE
:103550005B6862F3DF73636010BD0000001002401F
:103560001348006820F00100401C1149086000BFAA
:103570000F480068C0F340000028F9D00C484068AC
:1035800020F003000A49486000BF09484068C0F3C2
:1035900081000028F9D1064800680649084004491E
:1035A00008600020486008634FF41F00886070477F
:1035B00000100240FFFFF2FE0D49496860F301016F
:1035C0000B4A516000BF00BF00BF00BF00BF00BF7B
:1035D00000BF00BF00BF00BF00BF00BF00BF00BFF3
:1035E00000BF00BF00BF00BF00BF00BF70470000AA
:1035F0000010024002484068C0F38100704700009C
:1036000000100240026861F30002026070474160EE
:103610007047002101604160018141810173417364
:103620008173C17301744174704702684BF6EF7384
:103630001A40026002680B891A4302604B7C0268E0
:1036400063F30D320260CB7B026863F38B2202606E
:103650008B7B026863F3092202604B7B026863F391
:10366000C71202600B7B026863F3861202600B7C58
:10367000026863F3451202604A8942600A68826008
:103680004A68C260704700000021026822F001020F
:1036900002600022026042608260C260014640F225
:1036A000FF420A40B2F5816F0DD2CAB2083A142324
:1036B000B2FBF3F293000F229A400D4B5B681A4362
:1036C0000B4B5A6012E040F2FF420A40B2F5916F94
:1036D0000CD2CAB2083A1423B2FBF3F293000F22C1
:1036E0009A40044B1B681A43024B1A607047000053
:1036F000000002400404024000B585B01421684671
:10370000FCF74DFF6846FFF7FBFD07490098B0FB4B
:10371000F1F006490860084600684FF47A714843A2
:103720000349086005B000BD40420F003000002092
:1037300034000020134A126842F08072114B1A6064
:103740000022114B5A601A46126842F001021A60B8
:103750001A46516800BF0C4A5268531A0B4A126845
:1037600042439342F7D3084A126822F00102064B03
:103770001A6000225A60034A126822F08072014BDC
:103780001A607047FCED00E0001000E034000020FB
:1037900030B50446002505E04FF47A70FFF7CAFF04
:1037A000681C85B2A542F7DB30BD000038B502F0D9
:1037B00009FA092168A0FDF7ABFB0220FFF7E8FF3B
:1037C0004FF480716748FCF7C8FE072166A0FDF73B
:1037D0009FFB0A20FFF7AEFF65A16248FCF706FFDA
:1037E00008B1012038BD4FF480715E48FCF7B5FE8A
:1037F0000E2160A0FDF78CFB6420FFF79BFF5CA10E
:103800005848FCF7F3FE08B10220EBE74FF4807153
:103810005448FCF7A2FE0C215AA0FDF779FB4FF4A7
:10382000FA70FFF787FF5A48007800282FD001234D
:1038300058A220210020FDF797FC01235BA228213C
:103840001E20FDF791FC4FF480714648FCF785FE81
:10385000122159A0FDF75CFB6420FFF76BFF1421D8
:103860005AA0FDF755FB00BF494800780028FBD15E
:103870004FF480713B48FCF770FE112158A0FDF712
:1038800047FB6420FFF756FF0020FDF767FD4FF46C
:1038900080713448FCF761FE564800680090564835
:1038A0000368564856A10268604801F0D9FF5F4896
:1038B000FCF7A4FD84B221465C48FDF729FB642097
:1038C000FFF738FF2AA12748FCF790FE08B1042033
:1038D00088E74FF480712348FCF73FFE544855A118
:1038E0000268524801F0BCFF5048FCF787FD84B2E3
:1038F00021464E48FDF70CFB4FF47A70FFF71AFF94
:103900001BA11848FCF772FE08B105206AE74FF4C6
:1039100080711448FCF721FE4D484EA102684348CF
:1039200001F09EFF4148FCF769FD84B221463F4803
:10393000FDF7EEFA4FF4FA70FFF7FCFE0CA1094810
:10394000FCF754FE08B106204CE74FF4807105489F
:10395000FCF703FE002045E741542B5253540D0A57
:1039600000000000F6050020415445300D0A00001B
:103970004F4B000041542B43574D4F44453D310DB3
:103980000A00000041542B43574A41503F0D0A00A2
:10399000C6010020506C6561736520636F6E6669B7
:1039A0006775726520776966690000007669612035
:1039B000576543686174210041542B435741555466
:1039C0004F434F4E4E3D310D0A00000041542B43F2
:1039D000575354415254534D4152543D330D0A00F4
:1039E00041542B435753544F50534D4152540D0A99
:1039F00000000000A4010020A00100209C01002084
:103A000041542B4D515454555345524346473D3034
:103A10002C312C222573222C222573222C22257353
:103A2000222C302C302C22220D0A000060040020B1
:103A3000A801002041542B4D515454434F4E4E3D4C
:103A4000302C222573222C313838332C310D0A00CA
:103A5000AC01002041542B4D5154545355423D303C
:103A60002C222573222C310D0A00000038B50446A3
:103A70000948006823460090084809A102680A48DE
:103A800001F0EEFE0848FCF7B9FC85B2294606486D
:103A9000FDF73EFA38BD0000C0010020BC01002047
:103AA00025732573257300006004002070B50D2276
:103AB00069A16D48FCF7C1FC002879D16B48016809
:103AC0006948FCF75DFC044604B970BD04F10A05C1
:103AD00064A12846FCF74EFC65490860084600686A
:103AE000FCF78CFC401E6249096800220A5461A15F
:103AF0000020FCF73FFC6049086060A15C4800685A
:103B0000FCF774FD38B95C4800680078303840B282
:103B10005E49087092E05EA155480068FCF766FDBA
:103B200030B955480068007830385C49087085E045
:103B30005BA14F480068FCF759FD48B94E48006842
:103B4000007830385949087000205049087075E0F5
:103B500057A147480068FCF749FD50B9464800683E
:103B600001F080FD554880ED1A0A01205449087083
:103B700064E054A13E480068FCF738FD50B93E4867
:103B8000006801F06FFD4D4880ED270A00204C4988
:103B9000087053E04EA136480068FCF727FD40B995
:103BA0003548006801F05EFD4C4880ED070A45E0AD
:103BB00050E04BA12E480068FCF718FD38B92E489C
:103BC000006801F04FFD454880ED060A36E047A148
:103BD00027480068FCF70AFD38B92748006801F05B
:103BE00041FD3E4880ED050A28E043A120480068D9
:103BF000FCF7FCFC38B92048006801F033FD374879
:103C000080ED040A1AE03FA119480068FCF7EEFCB9
:103C100038B91948006801F025FD304880ED030AE5
:103C20000CE03BA112480068FCF7E0FC30B91248F8
:103C3000006801F017FD294880ED020A0E4803686C
:103C40000B4836A10268384801F00AFE3648FFF7F3
:103C50000DFF00BF00BF38E72B4D51545453554260
:103C6000524543563A000000F6050020B0010020FE
:103C7000B40100207D000000B80100204465766991
:103C8000636553776974636800000000C501002014
:103C90006D7070745F656E61626C6500120000206B
:103CA000636861726765724D6F6465001100002082
:103CB000566F75745F76616C756500009002002028
:103CC0006D000020496F75745F76616C756500004A
:103CD000666C6F6174696E675F496F0098000020C1
:103CE0006368617267696E675F496F0070726563D0
:103CF000686172675F496F006375746F66665F56CF
:103D00006F000000666C6F6174696E675F566F00CC
:103D10006368617267696E675F566F007B5C22251E
:103D2000735C223A25737D0060050020F0EE400AA6
:103D3000F5EEC00AF1EE10FA02D2B1EE600A704759
:103D4000B0EE600AFBE7B0EE401AB4EEE01AF1EE16
:103D500010FA02D2B0EE410A7047B0EE600AFBE7FB
:103D600010B50146DFED170AB4EEE00AF1EE10FAE5
:103D700004DAB5EEC00AF1EE10FA01D8002010BD49
:103D8000DFED100A60EE200AFCEEE00A10EE902A49
:103D9000042010E0022802D12E230B5409E00A234C
:103DA000B2FBF3F403FB142330330B540A23B2FBAE
:103DB000F3F2431E58B20028ECDA002048710120CB
:103DC000DDE700000000C84270B504460D4600BFA4
:103DD0008021094801F09AFF0028F9D0A1B20648D5
:103DE00001F086FF00BF4021034801F08FFF00284B
:103DF000F9D0204670BD0000005000404FF6FF7122
:103E00000160002181710171042141710121C171A1
:103E10007047F0B50A461588ABB29579032D01D1EC
:103E200000241AE0957965B9557905F00F045579A4
:103E3000182D01D1036110E05579282D0DD1436172
:103E40000BE0957905F00805167906F00406354370
:103E5000D67906F0030645EA0604DDB2A5B10021D5
:103E600010E001258D401D405DB105688F000F26D3
:103E7000BE40B543056005688E0004FA06F635437A
:103E80000560491C0829ECD3FF2B15DD1B1200210E
:103E900010E001258D401D405DB145688F000F2663
:103EA000BE40B543456045688E0004FA06F63543CA
:103EB0004560491C0829ECD3F0BD024600209368F8
:103EC0000B408B4200D000E001207047F0B50C465B
:103ED000104F07EB1062C0F30741C0F30725C6B2CD
:103EE000C5F12007A7EB010C4FF0FF3707FA0CF3E1
:103EF000C5F120077F1AFB40CB408B4017689F43DA
:103F000017602CB106FA01FC176847EA0C07176026
:103F1000F0BD00000000014000B590ED000AD0EDBA
:103F2000010A30EE600A80ED060AD0ED060AB0EE16
:103F3000600AFFF7FBFED0ED050AB4EEE00AF1EEF1
:103F400010FA04D29FED230A80ED090A13E090EDE8
:103F5000020AD0ED060A20EE200AD0ED030A90ED09
:103F6000071A00EEC10AD0ED040A90ED081A00EE1F
:103F7000810A80ED090A90ED0C0AD0ED090A30EEB5
:103F8000200A80ED0C0A90ED070A80ED080A90EDFA
:103F9000060A80ED070A90ED0C0AD0ED0A0AB4EE8D
:103FA000E00AF1EE10FA04DD90ED0A0A80ED0C0A49
:103FB0000CE090ED0C0AD0ED0B0AB4EEE00AF1EE45
:103FC00010FA03D290ED0B0A80ED0C0A90ED0C0A6A
:103FD00000BD000000000000B3EE020A394880ED89
:103FE000010A9FED390A80ED020A9FED380A80ED43
:103FF000030A9FED370A80ED040A9FED360A80ED33
:10400000050A9FED330A80ED0B0AB0EE080A80ED39
:104010000A0A9FED2F0A80ED090A9FED2E0A80ED16
:104020001F0A9FED2B0A80ED230A2B480078A8B1C8
:104030009FED2A0A234880ED1C0A9FED290A80ED96
:104040001D0A9FED230A80ED1E0A9FED210A80EDD7
:10405000250AB0EE080A80ED240A14E09FED210A3B
:10406000184880ED1C0A9FED200A80ED1D0A9FED87
:10407000180A80ED1E0A9FED1C0A80ED250A9FEDAF
:104080001B0A80ED240A9FED1A0A0E4880ED290ACA
:104090009FED180A80ED2A0A9FED0D0A80ED2B0A8C
:1040A0009FED150A80ED2C0A9FED0F0A80ED320A74
:1040B0009FED0E0A80ED310A9FED050A80ED300A72
:1040C00070470000900200206666A63E0AD7A33E15
:1040D000000000000AD7233C1100002017D9CE3D74
:1040E000CDCCCC3D69916D3DCDCC4C3D6666663FF7
:1040F000E527553CF4FD543C6F12833A90ED050AD8
:10410000D0ED040AB4EE600AF1EE10FA00D1704767
:1041100090ED020AD0ED040A20EE200AD0ED030A49
:1041200090ED051A00EE810A80ED050A00BFEEE76A
:10413000D0ED000AF5EEC00AF1EE10FA06D9D0ED86
:10414000010AF5EEC00AF1EE10FA08D8F7EE000AFF
:10415000C0ED020ADFED160AC0ED030A7047D0ED8C
:10416000000A9FED141A60EE810AB7EE001A81EE84
:10417000200A90ED011AF7EE000A40EE010AB7EEB0
:10418000001AC1EE201AC0ED021AD0ED020AB7EEF5
:10419000001A71EE600AC0ED030ADFED050AC0EDFA
:1041A000040ADFED030AC0ED050A00BFD6E70000F0
:1041B00000000000DB0FC9401CB5FEF722FA00200A
:1041C000012103464A02CDE9001004A1064802F08D
:1041D0008DF902F01DF800201CBD0000737461729F
:1041E000745F7461736B0000B155000810B504462C
:1041F0004D4890ED050A4D4880ED040A4A4890ED7F
:104200000B0A4A4880ED0A0AFFF778FF4748183042
:10421000FFF774FF454890ED040AD0ED0A0A20EE3E
:10422000200A80ED100A3030FFF768FF3F4890ED1C
:10423000110A3F4880ED000A3E480078401CC0B299
:104240003C490870A0426BDB002008703A4890EDB2
:10425000000A3748D0ED000A30EE600ADFED370A79
:10426000B4EEE00AF1EE10FA07DD3548007808B93F
:10427000012000E00020324908703148007850B138
:104280002A4890ED050ADFED2F0A30EE200A2E486D
:1042900080ED000A09E0254890ED050ADFED290AC6
:1042A00030EE600A284880ED000A214890ED000AAF
:1042B000214880ED000A1E4890ED000AB5EEC00AC4
:1042C000F1EE10FA07D801201D490870B2EE080A75
:1042D0001D4880ED000A1C4890ED000AF2EE080A25
:1042E000B4EEE00AF1EE10FA08D201201449087089
:1042F000B2EE080A144880ED000A11E0124890ED71
:10430000000AF3EE0E0AB4EEE00AF1EE10FA07DD51
:1043100000200B490870B3EE0E0A0B4880ED000A2E
:10432000094890ED000A10BDD80000203801002097
:10433000800100209001002084010020CDCC4C3D64
:1043400088010020CDCCCC3D8C0100202DE9F04728
:104350000B4614464FF0000C00BF2C4A1268C2F303
:1043600002211D4626460A46C2F10709B9F1040F8B
:1043700002D94FF0040901E0C2F10709C84602F171
:104380000409B9F1070F02D24FF0000901E0A2F1D0
:1043900003094F464FF0010909FA08F9A9F101098B
:1043A00009EA050909FA07F94FF0010A0AFA07FABA
:1043B000AAF1010A0AEA060A49EA0A09CC460146B4
:1043C0006246002904DB15072E0E114D6E5407E0DE
:1043D00015072F0E0D4D0C3501F00F06361FAF558A
:1043E00000BF014600290DDB00BF00BF01F01F0523
:1043F0000122AA404D09AD0005F1E025C5F80021D4
:1044000000BF00BF00BFBDE8F08700000CED00E07A
:1044100000E400E000BF00F00702064B19684FF609
:10442000FF031940044B0B4343EA0221014B19607F
:1044300000BF70470CED00E00000FA052DE9F743DE
:1044400084B080460C4600259EE0207825287DD14A
:10445000641C002007460646207800B998E02078C2
:10446000252800D189E020782D2801D1641C01275E
:1044700002E0641C47F0020720783028F9D006E0FB
:1044800006EB86004600207830380644641C20780D
:10449000302802DB20783928F2DD2078732811D10A
:1044A000069850F8049B0690B9F1000F01D04846D9
:1044B00000E03EA001463B463246404600F0E5F8AB
:1044C000054460E0207864280DD16120CDE90067C3
:1044D0000290069802C801230A220690404600F086
:1044E00077F805444FE0207878280DD16120CDE998
:1044F00000670290069802C80023102206904046EA
:1045000000F066F805443EE0207858280DD141209F
:10451000CDE900670290069802C800231022069099
:10452000404600F055F805442DE0207875280ED15E
:104530006120CDE900670290069802C800230A2294
:104540000690404600F044F805441CE014E0207852
:10455000632817D1069810F8041B0690C8B28DF88E
:104560000C0000208DF80D003B46324603A9404662
:1045700000F08BF8054406E000BF2178404600F0CB
:1045800019F86D1C00BF641C207800287FF45DAF13
:1045900000BFB8F1000F03D00020D8F80010087059
:1045A00000200690284607B0BDE8F083286E756CA1
:1045B0006C29000070B504460D462CB121680D70C1
:1045C0002068401C206002E02846FBF7CDFE70BD4D
:1045D0002DE9FF4F85B00C4616469A46DDF8488017
:1045E000002001908346274674B930208DF80800DA
:1045F00000208DF80900424602A9139B059800F09F
:1046000044F809B0BDE8F08FBAF1000F06D00A2EC9
:1046100004D1002C02DA0120019067420DF113054C
:104620000020287011E0B7FBF6F006FB1079B9F115
:104630000A0F02DB14983A38814409F13000C1B204
:10464000681E05460170B7FBF6F7002FEBD1019805
:1046500098B1B8F1000F0CD0139800F0020040B1EF
:104660002D210598FFF7A6FF0BF1010BA8F101081A
:1046700003E02D21681E0546017042462946139B22
:10468000059800F002F85844BBE72DE9F047804652
:104690000D4614461F4600264FF02009002C12DD5F
:1046A0000020294601E0401C491C0A78002AFAD162
:1046B000A04201DB002400E0241A07F002020AB144
:1046C0004FF0300900BF07F0010040B905E049464E
:1046D0004046FFF76FFF761C641E002CF7DC05E0F8
:1046E00029784046FFF766FF761C6D1C2878002865
:1046F000F6D105E049464046FFF75CFF761C641E94
:10470000002CF7DC3046BDE8F08700002DE9F041D1
:1047100005460E461C4807681C480068001D01F04D
:10472000BCFB50B91948006890F82C100120884053
:1047300017490968814316480160681C38B936B1C9
:1047400012480168091D134801F0E5FB1AE07C19C5
:104750000E4800684460BC4207D20C480168091D3D
:104760000D48006801F0BDFB0CE008480168091D18
:104770000A48006801F0B5FB09480068844201D28C
:1047800007480460BDE8F08104020020F001002029
:104790000802002010160020F8010020F40100207B
:1047A0002002002038B5044601F0C2FB2C48006806
:1047B000401C2B4908602B48006840B92948046018
:1047C0000846006801280DD100F030F90AE02648BB
:1047D000006838B923480068C06AE16A884201D895
:1047E0002048046021480068401C204908606CB1E2
:1047F0002046FDF7CBF9216B2068401A009004F1A8
:1048000034012046D4E90B23FDF704FE2046FDF7D2
:1048100021FA94F82C1001208840154909680843B2
:1048200013490860E16A01EB8101124A02EB810041
:10483000211D01F070FB01F0A5FB0B48006868B179
:1048400008480068C06AE16A884207D24FF0805089
:1048500009490860BFF34F8FBFF36F8F38BD000069
:1048600000020020F00100200C0200201C020020A9
:10487000080200205C15002004ED00E010B516E0F1
:1048800001F056FB0C48C068C468201D01F005FB10
:104890000A480068401E0949086009480068401E2F
:1048A0000749086001F06EFB204600F00BF8044851
:1048B00000680028E4D110BDFC1500200002002093
:1048C000FC01002010B50446206B01F079FB204666
:1048D00001F076FB10BD000030B54FF400531748CF
:1048E00000F007042CB1C01D20F00700134C041B7E
:1048F0001B1B0246124C22600024114D6C60D01824
:10490000083820F007000F4C206000240D4D2D6862
:104910006C600C4D2D682C601146441A4C60094C9B
:1049200024680C60084D4C682C60084D4C682C6065
:104930004FF00044064D2C6030BD000024160020CE
:10494000340200203C0200204402002040020020EB
:104950005002002000BFFFF791FF064800680128C1
:10496000F9D94FF0805004490860BFF34F8FBFF36F
:104970006F8FF0E75C15002004ED00E02DE9FF5F8C
:1049800081460E469246DDE90E7B109CAAF101009D
:10499000216B01EB800828F0070808F0070008B930
:1049A000012000E0002050B900BF502080F31188A2
:1049B000BFF34F8FBFF36F8F00BF00BFFEE786B11D
:1049C000002507E0715D04F134004155705D00B9C8
:1049D00002E06D1C102DF5D300BF002143200155CE
:1049E00002E0002084F83400052F00D30427E7629A
:1049F000201D01F073FA04F1180001F06FFA246130
:104A0000C7F10500A06164620020606484F848007A
:104A100049464046039A00F05FF92060BBF1000F61
:104A200001D0CBF80040BDE8FF9F000010B5002486
:104A300007E004EB84010F4A02EB810001F041FA28
:104A4000641C052CF5D30C4801F03BFA0B4801F02F
:104A500038FA0B4801F035FA0A4801F032FA0A48F0
:104A600001F02FFA04480949086004480849086021
:104A700010BD00005C150020C0150020D4150020DA
:104A8000E8150020FC15002010160020F40100207D
:104A9000F801002010B50146164800E000680368E0
:104AA0008B42FBD30246436813448B4204D14368D4
:104AB0004C682344436001460A464B68134404682B
:104AC000A34211D10C4C03682468A34208D04B6860
:104AD0000468646823444B6003681B680B6005E04E
:104AE000054B1B680B6001E003680B60884200D037
:104AF000016010BD340200203C020020094800681B
:104B0000006808B9012000E0002020B14FF0FF301C
:104B10000549086005E003480068C068006802496C
:104B200008607047F4010020200200200E48006851
:104B3000401C08B9012000E0002050B900BF5020FF
:104B400080F31188BFF34F8FBFF36F8F00BF00BF9B
:104B5000FEE700BF502080F31188BFF34F8FBFF3F3
:104B60006F8F00BF00BFFEE7200000202DE9F0415D
:104B700004464FF0000801F0A5FB5148006808B951
:104B8000FFF7AAFE4F480068204000287ED13CB3C2
:104B900004F10800A04223D9083404F0070000B350
:104BA00004F00700C0F108002044A04216D904F028
:104BB0000700C0F10800044404F0070008B9012010
:104BC00000E0002068B900BF502080F31188BFF3D7
:104BD0004F8FBFF36F8F00BF00BFFEE7002400E0E0
:104BE0000024002C54D038480068844250D8374EF6
:104BF0003046056801E02E462D686868A04202D262
:104C000028680028F7D12E480068854240D03068D7
:104C100000F10808286830606868001B102819D95E
:104C20002F1907F0070008B9012000E0002050B953
:104C300000BF502080F31188BFF34F8FBFF36F8FF9
:104C400000BF00BFFEE76868001B78606C603846F4
:104C5000FFF720FF1C4968680968081A1A490860AC
:104C6000084600681A490968884203D21648006855
:104C7000174908601349686809680843686000209C
:104C8000286014480068401C124900E000E00860F9
:104C900001F0D2FD08F0070008B9012000E0002073
:104CA00050B900BF502080F31188BFF34F8FBFF37E
:104CB0006F8F00BF00BFFEE74046BDE8F0810000F7
:104CC0003C0200205002002040020020340200205C
:104CD0004402002048020020001F4FF08073036050
:104CE000001F21F001030360001F054B036014380F
:104CF0000260001F6FF0020303602038704700005D
:104D00002D4B000808B50024621E0021084600F063
:104D1000FFFE54E00120FEF76FFA0220FEF75AFA78
:104D200000220121264800F009FE002211462448F5
:104D300000F0AAFD00220121214800F0A5FD214834
:104D400043782148027821A10120FCF741FD1E484B
:104D5000007830B103211C480078FCF753FA00B901
:104D60000124FCF721FA022804D01CB9204800785D
:104D7000012821D1FF201E49087001201D4908701B
:104D800000240020104908700E494870EF200C499B
:104D90003431086077200A493C3108600020022342
:104DA0000246014600901448006801F0CFFB621EE5
:104DB0000021084600F0ACFE642001F067F9A9E785
:104DC000002C0140980000206C0000206C6F6F7078
:104DD0005F657272203D2025642C206368616E72CD
:104DE00067655F657272203D2025640D0A00000032
:104DF000C5010020100000200400002008B5002597
:104E0000642001F043F907E038480078012803D115
:104E1000FF203649087003E0FCF7C6F90228F3D1F9
:104E200000BF0120324908705FE0FCF793F80546A7
:104E30003C210020FCF716FA80B100202C490870B4
:104E400002230246014600902A48006801F07EFBDA
:104E50004FF0FF320021084600F05AFE012D2BD101
:104E6000002408E004EB4401234A02EBC100FFF7F1
:104E70005FF9601CC4B2042CF4DB002408E004EBEE
:104E800044011E4A02EBC100FFF752F9601CC4B294
:104E9000032CF4DBFFF7A0F80020022302460146B2
:104EA00000901748006801F051FB4FF0FF320021DD
:104EB000084600F02DFE15E0681C98B9062011493F
:104EC000087000200A49087002230246014600903B
:104ED0000848006801F03AFB4FF0FF320021084615
:104EE00000F016FE052001F0D1F89EE7C501002074
:104EF0001000002008000020D80000203801002009
:104F00000C0000206C00002008B54FF0FF3200219B
:104F1000084600F0FDFD73E00220FEF76DF9012068
:104F2000FEF758F903210120FCF79CF980B100201D
:104F30003449087002230246014600903248006856
:104F400001F004FB4FF0FF320021084600F0E0FDC5
:104F50002E480078B0B32E48FBF7C6FE012811D1C9
:104F60000020284908700223024601460090264886
:104F7000006801F0EBFA4FF0FF320021084600F024
:104F8000C7FD0BE0224890ED090A224880ED1A0A7D
:104F90001F4890ED0A0A1F4880ED240A1E48007839
:104FA00080B10120FFF722F91A4880ED010A90ED47
:104FB000010A1A4880ED000A154890ED0A0A1548C2
:104FC00080ED0A0A1648007818B1FCF7EDF80128C0
:104FD00013D1FF201249087000200A4908700223EB
:104FE0000246014600900848006801F0AFFA4FF011
:104FF000FF320021084600F08BFD642001F046F8E6
:105000008AE70000100000200800002011000020A6
:1050100098000020900200201200002014000020C0
:10502000C50100202DED048B82B09FEDB00AB0EEDB
:10503000408A9FEDAE0AF0EE408A9FEDAC0AB0EEDA
:10504000409AAB480378AB480278AB49AB4800F0D4
:1050500007FCAA48FEF70AFDC82001F017F8A84887
:10506000D0ED070AB0EE600AA648FEF779FEA44824
:10507000D0ED060AB0EE600AA248801DFEF770FE71
:105080009F48D0ED050AB0EE600A9E480C30FEF74E
:1050900067FE9C480C30831F9A1F9BA10090974885
:1050A00000F0DEFB9548FEF7E1FC18219548FBF780
:1050B00054FAC82000F0EAFF9148D0ED040AB0EE9F
:1050C000600A9048FEF74CFE8D48D0ED030AB0EE22
:1050D000600A8C48801DFEF743FE8948D0ED020A25
:1050E000B0EE600A87480C30FEF73AFE85480C3077
:1050F000831F9A1F94A10090804800F0B1FB1821F3
:105100008048FBF72AFA7D48FEF7B0FCC82000F083
:10511000BDFFE9E07A48407800909A4803789A48C1
:1051200002789AA1754800F09BFB7448FEF79EFC3C
:105130004FF4167000F0AAFF01200F237F221946BA
:1051400000900020FBF76EFF01203F233C2200214E
:1051500000901046FBF766FF6648007830B10123E7
:105160009AA200210846FBF7FFFF05E001239AA25F
:1051700000210846FBF7F8FF9A48D0ED070AB0EE89
:10518000600A6048FEF7ECFDB0B19648D0ED030A26
:10519000B0EE600A5B480C30FEF7E2FD60B1594B9F
:1051A0000C33584A90A1554800F05AFB0123534A4A
:1051B00018210020FBF7D8FF8A48D0ED050AB0EE91
:1051C000600A5048801DFEF7CBFDB8B18548D0ED90
:1051D000010AB0EE600A4B481230FEF7C1FD68B11B
:1051E000484B1233A3F10C0283A1444800F038FB72
:1051F0000123424A28210020FBF7B6FF4148123024
:10520000811F8B1F9A1FCDE900107F493B4800F09A
:1052100027FB3A48FEF72AFC18213A48FBF79DF98C
:105220004FF4167000F032FF6E4890ED050AD0ED95
:10523000070A20EE200AB0EE408A90ED010AD0ED78
:10524000030A20EE200AF0EE408A88EE880ADFED9D
:105250006F0A20EE200AF0EE409ADFED6D0AFEF7AD
:1052600072FDB0EE409A2748B0EE480AFEF778FD8E
:1052700030B32448801DB0EE680AFEF771FDF8B126
:1052800020480C30B0EE490AFEF76AFDC0B11D4B54
:105290009B1D9A1F5FA1194800F0E2FA0123174AEB
:1052A00038210020FBF760FF164A0C325DA113483D
:1052B00000F0D6FA0123114A00214220FBF754FFE7
:1052C00010480C30831F9A1F58A100900B4800F023
:1052D000C7FA0A48FEF7CAFB18210A48FBF73DF94E
:1052E0004FF4167000F0D2FE14E70000000000003A
:1052F00011000020120000208872000860050020C4
:1053000098000020580200207B5C22666C6F61745C
:10531000696E675F496F5C223A25735C2C5C22637F
:1053200068617267696E675F496F5C223A25735CDA
:105330002C5C2270726563686172675F496F5C22E2
:105340003A25735C7D0000007B5C226375746F6698
:10535000665F566F5C223A25735C2C5C22666C6F2C
:105360006174696E675F566F5C223A25735C2C5CD2
:10537000226368617267696E675F566F5C223A25C7
:10538000737D00006C000020100000207B5C224434
:1053900065766963655377697463685C223A25644E
:1053A0005C2C5C226C6F6F705F6661756C745C2244
:1053B0003A25645C2C5C22636861726765725F6683
:1053C00061756C745C223A25647D00004D4F444544
:1053D0003A4D5050540000004D4F44453A50574DFF
:1053E000200000007002002056696E3A25732020CC
:1053F000566F75743A25730049696E3A25732020FB
:10540000496F75743A257300EC7200080000C842B9
:10541000E1FAC74250696E3A25732020506F7574C7
:105420003A257300506566663A2573007B5C22500E
:10543000696E5F76616C75655C223A25735C2C5CE5
:1054400022506F75745F76616C75655C223A2573C6
:105450005C2C5C22505F6566665C223A25737D0099
:10546000026961F30F02026170470021017041700F
:105470008170C1700171417181710121C1717047E9
:10548000026861F3861202607047C26922F400620A
:10549000C2610A7862B9026822F4004202600268BE
:1054A00022F480420260026822F48062026036E0E8
:1054B0000A78012A0ED1026822F4004202600268D2
:1054C00022F480420260026822F4806202F5806267
:1054D000026024E00A78022A0ED1026822F4004217
:1054E00002F500420260026822F480420260026813
:1054F00022F48062026012E00A78032A0FD1026867
:1055000022F4004202F500420260026822F4804266
:1055100002F580420260026822F480620260CB7968
:10552000026863F3492202604A78012A09D1CA79E4
:10553000012A06D1026822F4807202F580720260AC
:1055400003E0026822F4807202604B78026863F321
:10555000820202608A78072A0BDD426822F4807298
:1055600002F5807242608A78036862F3C5030360C3
:1055700008E0426822F4807242608B78026863F32C
:10558000C5020260CB78026863F3C71202600B7930
:10559000026863F3CB2202604B79026863F3410235
:1055A00002608B79026863F30002026070470000BA
:1055B0001CB5044600F0BCFC1748032100236422FC
:1055C000CDE9001015A1184800F090FF17480221FE
:1055D00000236422CDE9001015A1184800F086FFD1
:1055E0001748012100236422CDE9001015A11848B5
:1055F00000F07CFF0020012103464FF4FA72CDE950
:10560000001014A1164800F071FF002000F070FD9A
:1056100000F0B8FC1CBD000004000020496E697455
:105620005F7461736B000000FD4D000808000020EE
:105630004661756C745F7461736B0000054D000802
:105640000C00002052756E5F7461736B00000000E7
:10565000094F000873686F775F7461736B00000017
:105660002550000810B52DED0C8B04462179A1F1D1
:10567000300001F041FA41EC1B0B9FED1B0B53EC8A
:10568000102B01F051FA41EC190BE178A1F1300037
:1056900001F032FA41EC1D0B9FED150B53EC102B72
:1056A00001F042FA41EC1B0B617830392278303A34
:1056B00002EB820201EB420001F01EFA41EC1C0BEE
:1056C00053EC1B2B01F070F941EC1A0B53EC192B26
:1056D00001F06AF941EC180B01F034F900EE100A00
:1056E000BDEC0C8B10BD00007B14AE47E17A843F0B
:1056F0009A9999999999B93F10B5FDF731FF012110
:105700000846FDF7CDFD00BFFDF7B2FE0028FBD037
:1057100001223B210220FDF7E5FE0020FDF79EFE61
:1057200001210220FDF7BCFD00BF1920FDF77EFE20
:105730000128FAD10020FDF781FD0420FDF792FD3C
:105740000420FDF785FD0120FDF796FD0220FDF701
:1057500033FF00BFFDF74EFF0228FBD10020FDF70D
:105760008BFD00F001F810BD2DE9F0470026002464
:1057700000250027A046A146FDF73CFF8246BAF16E
:10578000000F06D0BAF1010F15D0BAF1020F46D1C1
:1057900015E02D48406DC0F3402040B12A48006B11
:1057A000C0F3406018B129482949086002E029483F
:1057B0002749086037E027482549086033E0224838
:1057C0004068C0F3004720484068C0F383441E4847
:1057D0004068C0F341750DB90F2C03D12801401C5E
:1057E000044400E0A41C27B91B4860431849086022
:1057F00014E015484068C0F3404058B11248406D6D
:10580000C0F30136B01C1349B1FBF0F060431049FE
:10581000086003E00F4860430D49086003E00D484D
:105820000B49086000BF00BF07484068C0F3031879
:105830000A4810F808900648006820FA09F0044960
:105840000860BDE8F087000000100240006CDC0238
:10585000E801002000127A0000093D00777200087C
:105860000FB408B504A8009002A8009A0399FEF7A7
:10587000E5FD01B05DF814FBC1628262436923F06B
:1058800001035B1C4361704710B50B46072B28D200
:10589000DFE803F004090E13181D2200046A62F306
:1058A000000404621EE0046A62F38204046219E0E8
:1058B000046A62F30414046214E0046A62F3861456
:1058C00004620FE0046A62F3082404620AE0046AD6
:1058D00062F38A24046205E0046A62F30C34046211
:1058E00000E000BF00BF10BD0B4633B1022B06D055
:1058F000042B06D0062B08D105E0426306E0826344
:1059000004E0C26302E0026400E000BF00BF704731
:10591000026861F3061202607047026861F30002D8
:1059200002607047CA430261704702460020136953
:105930000B400BB1012000E000207047012A03D189
:10594000C3680B43C36003E012B9C3688B43C360F1
:1059500070472DE9F04100250026002701F10803DA
:105960005C1C92F801C00CFA03FC1FFA8CF592F84B
:1059700002C00CFA04FC1FFA8CF6D0F804C04FF0F9
:10598000010808FA04F82CEA080CC0F804C0D0F8A2
:1059900004C04CEA060CC0F804C0D0F804C04FF0B4
:1059A000010808FA03F82CEA080CC0F804C0D0F883
:1059B00004C04CEA050CC0F804C00F4637B1022FF2
:1059C0000DD0042F14D0062F24D11AE092F80080B5
:1059D000D0F818C068F3061CC0F818C01BE092F895
:1059E0000080D0F818C068F30E3CC0F818C012E070
:1059F00092F80080D0F81CC068F3061CC0F81CC0E8
:105A000009E092F80080D0F81CC068F30E3CC0F8A2
:105A10001CC000E000BF00BF4FF0010C0CEB4103C5
:105A20004FF0030C0CEB410492F803C00CFA03FC9A
:105A30001FFA8CF592F804C00CFA04FC1FFA8CF6DD
:105A40004FF0010808FA04F8D0F820C02CEA080C3E
:105A5000C0F820C0D0F820C04CEA060CC0F820C026
:105A60004FF0010C0CFA03FCD0F8208028EA0C0857
:105A7000C0F82080D0F820C04CEA050CC0F820C047
:105A80004B004FF0020C0CEB410492F805C04FEABA
:105A900041080CFA08FC1FFA8CF592F806C04FF08A
:105AA000020808EB41080CFA08FC1FFA8CF64FF0CC
:105AB000010808FA04F8D0F820C02CEA080CC0F855
:105AC00020C0D0F820C04CEA060CC0F820C04FF02F
:105AD000010808FA03F8D0F820C02CEA080CC0F836
