:020000040800F2
:1000000088460020250300080D130008A3110008EE
:1000100009130008E50C0008812800080000000012
:100020000000000000000000000000006502000861
:100030000D0F000800000000C1020008052600089E
:100040003F0300083F0300083F0300083F03000888
:100050003F0300083F0300083F0300083F03000878
:100060003F0300083F0300083F0300083F03000868
:100070003F0300083F0300083F0300083F03000858
:100080003F0300083F0300083F0300083F03000848
:100090003F0300083F0300083F0300083F03000838
:1000A0003F030008ED2700083F0300083F03000856
:1000B0003F0300083F0300083F0300083F03000818
:1000C0003F0300083F0300083F0300083F03000808
:1000D0003F0300081D2800083F0300083F030008F5
:1000E0003F0300083F0300083F0300083F030008E8
:1000F0003F0300083F0300083F0300083F030008D8
:100100003F0300083F0300083F0300083F030008C7
:100110003F0300083F0300083F0300083F030008B7
:100120003F0300083F0300083F0300083F030008A7
:100130003F0300083F0300083F0300083F03000897
:1001400000000000000000000000000000000000AF
:100150003F0300083F0300083F0300083F03000877
:100160003F0300083F0300083F0300083F03000867
:100170003F0300083F0300083F0300083F03000857
:100180003F03000800F002F800F05CF80AA090E8D5
:10019000000C82448344AAF10107DA4501D100F042
:1001A00051F8AFF2090EBAE80F0013F0010F18BFB3
:1001B000FB1A43F00103184790720000B072000070
:1001C0000A444FF0000C10F8013B13F0070408BF7D
:1001D00010F8014B1D1108BF10F8015B641E05D01B
:1001E00010F8016B641E01F8016BF9D113F0080FD0
:1001F0001EBF10F8014BAD1C0C1B09D16D1E58BF62
:1002000001F801CBFAD505E014F8016B01F8016B98
:100210006D1EF9D59142D6D370470000002300240B
:1002200000250026103A28BF78C1FBD8520728BF06
:1002300030C148BF0B6070471FB506F0D9FD1FBD28
:1002400010B510BD00F088FA1146FFF7F5FF03F076
:100250001DFF00F0A6FA03B4FFF7F2FF03BC02F0A3
:100260006EFE00002C4B19680868B0E8F04F80F370
:100270000988BFF36F8F4FF0000080F3118870473B
:100280000000000008480068006880F308884FF00C
:10029000000080F3148862B661B6BFF34F8FBFF3DE
:1002A0006F8F00DF00BF00BF08ED00E0DFF80C003B
:1002B000016841F470010160704700BF88ED00E003
:1002C000EFF30980BFF36F8F134B1A681EF0100F06
:1002D00008BF20ED108A20E9F04F106009B44FF0FC
:1002E000500080F31188BFF34F8FBFF36F8F05F07D
:1002F0006DFF4FF0000080F3118809BC1968086891
:10030000B0E8F04F1EF0100F08BFB0EC108A80F379
:100310000988BFF36F8F7047F0010020EFF305806D
:10032000704700000948804709480047FEE7FEE79C
:10033000FEE7FEE7FEE7FEE7FEE7FEE7FEE7FEE795
:1003400004480549054A064B704700003926000855
:10035000850100088836002088460020883E00205D
:10036000883E002070470000014903F097BC000060
:1003700038000020014A00F07DB90000540200203E
:1003800030B505460B462A4613F8014B12F8010B0F
:1003900008B1A042F8D01CB1002802D06D1CF1E7D2
:1003A000284630BD40EA010310B59B070FD1042A4F
:1003B0000DD310C808C9121F9C42F8D020BA19BA30
:1003C000884201D9012010BD4FF0FF3010BD1AB195
:1003D000D30703D0521C07E0002010BD10F8013BEA
:1003E00011F8014B1B1B07D110F8013B11F8014B11
:1003F0001B1B01D1921EF1D1184610BD10B5431C34
:1004000002E010F8011B71B18107FAD14FF00132FF
:1004100002C88C1A8C4314EAC211F9D0C01A0A0619
:1004200003D0C01E10BDC01A10BD0A0401D0801E2A
:1004300010BD0902FCD0401E10BD40EA010370B59A
:100440009B072ED14FF00136042A2AD308C810C9C1
:100450009D1B9D43121F15EAC61517D0D8B2E1B2F5
:10046000401A50EA056110D198B2A1B2401A50EA80
:1004700005410AD123F07F4024F07F41401A50EA21
:10048000052102D1180EA0EB146070BDA342DBD091
:1004900018BA21BA884201D9012070BD4FF0FF304F
:1004A00070BD0AB9002070BD10F8013B11F8014B76
:1004B00063B1A3420AD1521E08D010F8013B11F8D3
:1004C000014B1BB1A34201D1521EEDD1181B70BDCF
:1004D000032A40F2308010F0030C00F0158011F870
:1004E000013BBCF1020F624498BF11F801CB00F848
:1004F000013B38BF11F8013BA2F1040298BF00F89C
:1005000001CB38BF00F8013B11F0030300F0D480A9
:10051000083AC0F0088051F8043B083A51F804CB7F
:10052000A0E80810F5E7121D5CBF51F8043B40F845
:10053000043BAFF30080D20724BF11F8013B11F850
:1005400001CB48BF11F8012B24BF00F8013B00F894
:1005500001CB48BF00F8012B70474FF0000204297F
:10056000C0F0128010F0030C00F01B80CCF1040CE2
:10057000BCF1020F18BF00F8012BA8BF20F8022B16
:10058000A1EB0C0100F00DB85FEAC17C24BF00F8BC
:10059000012B00F8012B48BF00F8012B70474FF0EA
:1005A000000200B5134694469646203922BFA0E8C3
:1005B0000C50A0E80C50B1F12001BFF4F7AF0907CF
:1005C00028BFA0E80C5048BF0CC05DF804EB8900C0
:1005D00028BF40F8042B08BF704748BF20F8022B03
:1005E00011F0804F18BF00F8012B70474FF0013C0D
:1005F00050F8042B51F8043B9A4221D1A2EB0C0392
:10060000934313EACC1317D150F8042B51F8043B51
:100610009A4215D1A2EB0C03934313EACC130BD1EE
:1006200050F8042B51F8043B9A4209D1A2EB0C0379
:10063000934313EACC13DBD04FF00000704700BFA8
:10064000D01A01BAB1FA81F101F0180122FA01F0D1
:10065000CB40C1F12001DBB2C0B2C01A2CFA01F3C9
:10066000D11A914311EAC311E6D170477047704720
:10067000704770472DE9F04115460E46040002D13F
:100680002C6804B90BA4204600F058F804442078E4
:1006900070B127463146384600F040F804442078CF
:1006A00010B1002004F8010B38462C60BDE8F08141
:1006B0000027F9E70000000010B5203AC0F00B80D9
:1006C000B1E81850203AA0E81850B1E81850A0E856
:1006D0001850BFF4F5AF5FEA027C24BFB1E81850B0
:1006E000A0E8185044BF18C918C0BDE810405FEA20
:1006F000827C24BF51F8043B40F8043B08BF70479C
:10070000D20728BF31F8023B48BF11F8012B28BFA0
:1007100020F8023B48BF00F8012B704730B5034674
:100720001D781DB10A4603E0AC4201D1181A30BD54
:1007300012F8014B002CF7D15B1CF1E730B50346F2
:100740001D783DB10A4612F8014B1CB1AC42FAD1FA
:100750005B1CF5E7181A30BD754600F02BF8AE4665
:1007600005006946534620F00700854618B020B5BD
:10077000FFF7E6FDBDE820404FF000064FF0000710
:100780004FF000084FF0000B21F00701AC46ACE839
:10079000C009ACE8C009ACE8C009ACE8C0098D46A6
:1007A000704710B50446AFF300802046BDE8104006
:1007B000FFF751BD004870472436002042490988A0
:1007C000424A9161404989889160E0B33E49498835
:1007D0003F4A9269891A3D4A11613B49C9883C4A9E
:1007E0001269891A394A116011460969394A126831
:1007F0001144384A1268A1EB9201364A1160114641
:100800000968890800EE101AB8EE400A3049D1EDA7
:10081000070A20EE200A2D4981ED050A09682E4AB3
:10082000126811442C4A1268A1EB92012A4A116005
:1008300011460968890800EE101AB8EE400A2449EA
:10084000D1ED050A00E004E020EE200A1F4981ED09
:10085000010A1E498969214A126811441F4A126817
:10086000A1EB92011D4A1160194991ED030A11464D
:100870000968890800EE901AF8EE600A144991EDB3
:10088000021A00EE810A114981ED070A8968144AAB
:1008900012681144124A1268A1EB9201104A1160C9
:1008A0000B4991ED010A11460968890800EE901A7A
:1008B000F8EE600A064991ED001A00EE810A03493C
:1008C00081ED030A704700003E0000207002002006
:1008D00048000020880000209000002084000020B4
:1008E0008C00002000B589B00121544802F08CFD35
:1008F00001215248401C02F087FD07A803F0E8F9E7
:1009000003208DF82200C020079007A94C4803F06F
:10091000EAF90320079007A94A4803F0E4F9012106
:100920004FF4A01002F070FD474802F061FE02A8EB
:1009300002F023FE45480290454803900020ADF8A0
:1009400010000420ADF8120000208DF814000120E2
:100950008DF815008DF816008DF817008DF8180029
:1009600000208DF8190002A9374802F012FE01217B
:10097000354802F0FBFD01213048C01D02F044FD66
:10098000022002F0FFFB002002F016FB01A802F09B
:10099000EEFA01208DF8040000208DF805008DF896
:1009A000060004208DF8070001A928484C3802F001
:1009B000C8FA0122022125484C3802F065FB0223C7
:1009C0000122092121484C3802F00AFB02231A4671
:1009D00008211E484C3802F003FB022303220621A3
:1009E0001A484C3802F0FCFA022304220721174867
:1009F0004C3802F0F5FA012114484C3802F0E6FABE
:100A0000012112484C3802F0E6FA10484C3802F046
:100A1000B5FA00BF0D484C3802F0B6FA0028F9D1FB
:100A20000A484C3802F0B9FA00BF08484C3802F0C6
:100A3000BAFA0028F9D109B000BD00000200180080
:100A400000080140000C0140080002404C24014015
:100A50003E00002010B55D48007830B35C4890ED52
:100A6000030A5C48008800EE900AF8EE600A5848D5
:100A700090ED021A00EE810A574880ED040A03F057
:100A8000A7FA5448408852498969401A00EE100A72
:100A9000B8EEC00A4E48D0ED070A20EE200A4E48B4
:100AA00080ED0A0A183003F093FA4C480078401C95
:100AB000C0B24A4908700A284BDB0020087044483D
:100AC00090ED010A4348808800EE900AF8EE600A33
:100AD0003F4890ED001A00EE810A3F4880ED100A71
:100AE000303003F075FA3C4890ED110A3C4880ED37
:100AF0001B0A683003F07AF9394880ED270A334839
:100B0000007830B3344890ED050A354880ED000A8E
:100B100003F06CF9324890ED0C0AD0ED260AB4EEE1
:100B2000E00AF1EE10FA03DD01202E49087002E020
:100B300000202C4908702A4890ED261AF0EE410A50
:100B400090ED0C1AB0EE410A03F067F8244880EDEE
:100B5000270A2048C0881E490969401A00EE100A79
:100B6000B8EEC00A1A48D0ED050A20EE200A1A484D
:100B700080ED160A483003F02BFA174890ED170A5B
:100B8000174880ED280A9C3003F030F9164880EDB4
:100B9000000A90ED000ADFED150A20EE200ABCEEF7
:100BA000C00A10EE100A80B2114908600E4890ED9C
:100BB000000ADFED100A20EE200ABCEEC00A10EE9B
:100BC000100A80B20A490831086010BD12000020E6
:100BD000480000203E000020D800002094000020A3
:100BE000900200206D0000206800002000E0154504
:100BF000342C014000E0954410B53148007800B332
:100C0000304890ED010A3048808800EE900AF8EEF6
:100C1000600A2C4890ED001A00EE810A2B4880ED06
:100C2000100A303003F0D4F9284890ED110A284812
:100C300080ED1B0A683003F0D9F8264880ED000AE1
:100C40001FE02148C0881F490969401A00EE100AB8
:100C5000B8EEC00A1B48D0ED050A20EE200A1B485A
:100C600080ED160A483003F0B3F9184890ED170AE2
:100C7000174880ED280A9C3003F0B8F8154880ED3D
:100C8000000A144890ED000ADFED130A20EE200A56
:100C9000BCEEC00A10EE100A80B2104908600D4880
:100CA00090ED000ADFED0E0A20EE200ABCEEC00A2D
:100CB00010EE100A80B209490831086010BD00002A
:100CC0006D000020480000203E000020D8000020D9
:100CD000900200206800002000E01545342C0140FF
:100CE00000E0954400BFFEE701468248C088824A82
:100CF0001269801A01EE100AB8EEC11A7E48D0EDD2
:100D0000051A21EE211AF0EE410A90ED011A7948F8
:100D1000808801EE900AF8EE611A774890ED002A7B
:100D200001EE821AB0EE410A087806282CD2DFE8DC
:100D300000F003D2BC2C569191ED071A81ED0A1AEE
:100D400091ED021A81ED091A91ED081AB4EEE01A3C
:100D5000F1EE10FA06D991ED021AB4EEC01AF1EED6
:100D600010FA03DD65480088401C00E00020634A5B
:100D70001080104600880A2801DD0320087000203A
:100D80005F4A10805F4A1080B1E091ED051A81ED55
:100D90000A1A91ED021A81ED091A91ED041AB4EEC6
:100DA000C01AF1EE10FA03D254480088401C00E04B
:100DB0000020524A1080104600880A2801DD0420D5
:100DC00008704F4A1288C86A904202D201204870C7
:100DD00008704B480088401C494A108087E091ED1C
:100DE000061A81ED0A1A91ED021A81ED091A91EDA8
:100DF000031AB4EEC01AF1EE10FA0AD291ED081AF5
:100E0000B4EEE01AF1EE10FA03DD3C480088401C15
:100E100000E00020394A1080104600880A2801DDD1
:100E200005200870374A1288086B904206D391ED6E
:100E3000041AB4EEC01AF1EE10FA0ADD314A128833
:100E4000086B904201D2022000E00320487001208C
:100E500008704CE091ED071A81ED0A1A91ED031A22
:100E600081ED091A91ED081AB4EEE01AF1EE10FACC
:100E700003DD22480088401C00E000201F4A10804B
:100E80001288486B904201D2022008701D4A1288D5
:100E9000086B904203D20420487001200870194862
:100EA0000088401C174A108021E091ED081A81ED5E
:100EB0000A1A91ED031A81ED091A91ED031ADFED7B
:100EC000121A21EE211AB4EEC01AF1EE10FA01DD69
:100ED000002008700BE091ED081A81ED0A1A91EDDF
:100EE000031A81ED091A0020044A108000BF00BFD8
:100EF000087870473E00002048000020D000002005
:100F0000D2000020D40000206666663F70470000D3
:100F100070B504460D462A4621460B48FFF7D8FA1D
:100F200000BF8021094804F06DFE0028F9D000219F
:100F3000074802F01BFB2946054802F01CFB012173
:100F4000034802F013FB70BD60030020003801402D
:100F5000440002402B480088401C2A4908802A4847
:100F600040882A4909680844284908602648C088FA
:100F70002749096808442649086022480088B0F5D6
:100F8000807F3CD121480068000A2249086020483F
:100F90000068000A2049086000201A4908801B499F
:100FA00008601B4908601B4A1268A2F5006100290D
:100FB00001DB0A4600E04A42502A13DA164A126858
:100FC000A2F50060002801DB024600E04242502A00
:100FD00008DA10480068114988610F480068086104
:100FE000012070470E4801880088401C0C4A108080
:100FF000032904DD002011460880401EF1E700208F
:10100000EFE700006E0000203E000020740000208A
:10101000780000207C000020800000204800002094
:10102000700000202DE9FF4F85B081468A460020E0
:10103000039083460798A0EB09050898A0EB0A06E1
:10104000CDF80890CDF804A0002D01DD012705E0C2
:101050000DB9002702E04FF0FF376D42002E02DD90
:101060004FF0010806E016B94FF0000802E04FF01B
:10107000FF387642B54201DD2C4600E034460020C0
:1010800004901EE0019AD1B2029AD0B2129A00F0F6
:1010900013FA039828440390B3440398A04205DD53
:1010A0000398001B0390029838440290A34504DD86
:1010B000ABEB040B0198404401900498401C80B2B3
:1010C0000490611C04988842DCDD00F021F909B02D
:1010D000BDE8F08F2DE9F05F06460F469046994631
:1010E0004FF0000A00240025A8F1200000F0FF0ABC
:1010F0007F2E02DD0026B81CC7B200242BE0B9F118
:10110000000F05D0174800EBCA0010F804B006E045
:10111000144800EBCA00005DC04300F0FF0B00253F
:1011200015E08020284100EA0B0038B13A19D1B20D
:101130007219D0B2012200F0BFF906E03A19D1B21B
:101140007219D0B2002200F0B7F9681CC5B2082DA0
:10115000E7DB601CC4B2082CD1DB00F0D9F8BDE895
:10116000F09F0000046E00082DE9F04104460F4690
:101170001546984600260FE0AA5D434639462046AC
:10118000FFF7A8FFA01DC4B2782C03DD002407F1EF
:101190000800C7B2701CC6B2A85D0028ECD1BDE83B
:1011A000F08100BFFEE7000010B54FF40041134886
:1011B00002F0EDFD28B14FF48041104802F0E7FD48
:1011C000C8B90F480078401CC0B20D490870022809
:1011D00011DB002008704FF40041084802F0D7FDF1
:1011E00008B9012010BD4FF48041044802F0CFFD42
:1011F00008B90220F6E70020F4E70000000C0140E7
:101200003C00002010B503460C460120FFF7D6FA3B
:10121000012B02D0022B1AD100E000BF0E488069DA
:10122000B0F5FA7F12DB0C48806940F25E618842BB
:101230000CDA0A4801780078401C084A1070A14274
:1012400004DD0020114608700549087000BF00BF8A
:101250000348007810BD00007002002096000020B6
:101260006C00002010B504460B462046FFF7A6FA96
:10127000B4B1214801682148006900F266608142EA
:101280000EDD1F4801780078401C1D4A10709942FD
:101290002EDD00201146087004201A49087027E04E
:1012A00015488069B0F5F17F0EDC154801780078AB
:1012B000401C134A107099421ADD00201146087034
:1012C00001201049087013E00B48806940F26E61FC
:1012D00088420DDD0A4801780078401C084A1070E9
:1012E000994205DD0020114608700220054908706A
:1012F0000448007810BD0000700200204800002063
:10130000950000206C00002000BFFEE77047000041
:1013100070B500241CE004F1B001C8B2002100F057
:101320000BF90021084600F007F90021102000F019
:1013300003F9002508E005EBC411074A505C0121C0
:1013400000F0FAF8681CC5B2802DF4DB601CC4B252
:10135000082CE0DB70BD0000F606002010B500F0A0
:10136000A3FF00F06BF8C82002F098F900F08CF8A9
:101370000021AE2000F0E0F80021084600F0DCF883
:101380000021102000F0D8F80021402000F0D4F80F
:101390000021B02000F0D0F80021812000F0CCF82E
:1013A0000021FF2000F0C8F80021A12000F0C4F8BF
:1013B0000021A62000F0C0F80021A82000F0BCF811
:1013C00000213F2000F0B8F80021C82000F0B4F858
:1013D0000021D32000F0B0F80021084600F0ACF85E
:1013E0000021D52000F0A8F80021802000F0A4F80A
:1013F0000021D92000F0A0F80021F12000F09CF895
:101400000021DA2000F098F80021122000F094F872
:101410000021DB2000F090F80021302000F08CF853
:1014200000218D2000F088F80021142000F084F8BD
:101430000021AF2000F080F810BD00001CB5012194
:101440000F4801F0E1FF684602F042FC01208DF8F0
:10145000070000208DF8040010208DF806004FF4DE
:101460001840009004208DF805006946054802F0F8
:101470003AFC4FF418400349103108601CBD0000CD
:10148000020018000008014010B54FF4006009493F
:101490000860642002F002F94FF400600549091D5C
:1014A0000860642002F0FAF84FF400600149086017
:1014B00010BD000010080140F0B503461446E4B129
:1014C000CD1701EB5575ED1003EBC515194E755D84
:1014D0000A46CE1701EB5676F610A1EBC607012699
:1014E000BE40F6B235430846CE1701EB5676F610ED
:1014F00003EBC6160F4FBD551AE0CD1701EB55751E
:10150000ED1003EBC5150B4E755D0A46CE1701EBCA
:101510005676F610A1EBC6070126BE40B543084635
:10152000CE1701EB5676F61003EBC616014FBD55EC
:10153000F0BD0000F606002070B505460C4624B14B
:101540004FF480500A49086004E04FF48050084985
:10155000091D08604FF400400549091D0860284630
:1015600000F020FF4FF400400149086070BD00000A
:10157000100801402DE9F74F82B08346174600BF9F
:101580002648009000980078532801D001F07AF99D
:1015900000BF0BEB4B012148603000EBC106DDF8CA
:1015A0000C903569D6F80CA04FF00008554517D9B6
:1015B000B068441BBC4201D2204600E038460446D5
:1015C000706828440190224648460199FEF780FF42
:1015D000A044A1443F1B2544B068A84200D1002587
:1015E000AAEB0504BC4201D2204600E0384604467E
:1015F0005CB1706828440190224648460199FEF784
:1016000067FFA044A1443F1B2544B8F1000F00D060
:101610003561404605B0BDE8F08F0000F80A0020B3
:101620002DE9F04104460D46164600BF0E4F3878AE
:10163000532801D001F026F900BFEFF311800746CF
:10164000202080F3118800BF00BF32462946204683
:1016500000F00CF88046F8B280F3118800BF00BF9C
:101660004046BDE8F0810000F80A00202DE9F0476F
:10167000074688461646C24607EB47011B4800EB63
:10168000C109D9F8140020B1012811D0022826D1AF
:101690001EE0484601F044F90546B54201D2002457
:1016A00005E0344632465146484601F01CFC18E03D
:1016B000484601F035F90546B54201D2284600E01A
:1016C0003046044622465146484601F00CFC08E0EC
:1016D00032465146484601F0CBFB044601E0002467
:1016E00000BF00BF2046BDE8F0870000100B0020BF
:1016F0002DE9F74F82B082461446DDF80CB00AEBB4
:101700004A01224800EBC105D5F81090EE686868E0
:1017100030440190B14528D8A868801B471EA742D5
:101720000AD3224659460198FEF7D2FE3019E860E6
:10173000012005B0BDE8F08F4F44A74223D3A8682D
:10174000A0EB0608424659460198FEF7C1FEA4EBFD
:1017500008043CB1686801900BEB0801224601982F
:10176000FEF7B6FEEC600120E3E7A9EB0600471E9A
:10177000A74208D3224659460198FEF7A9FE301920
:10178000E8600120D5E70020D3E70000100B00201F
:101790000FB438B5044606A800906A46204605995D
:1017A00000F008F8054600200090284638BC5DF897
:1017B00014FB00002DE9F04F2DED028B99B082460D
:1017C0000D46144603A81490402015900020169052
:1017D000CDF860A0179000BF2E786D1C06B926E1E9
:1017E000252E73D100274FF0010900BF2E78232E3C
:1017F00012D02B2E0CD02D2E02D0302E10D103E083
:1018000047F001076D1C0EE047F002076D1C0AE06F
:1018100047F004076D1C06E047F008076D1C02E066
:101820004FF0000900BF00BFB9F1000FDED14FF04B
:10183000000800BF2E78302E01DB392E00DD07E0D6
:101840006D1CA6F1300008EB880100EB4108F1E7C0
:1018500000BF002013902E782E2E12D16D1C00BFD9
:101860002E78302E01DB392E00DD09E06D1CA6F14B
:101870003000139901EB810100EB41001390EFE779
:1018800000BF2E7800BF6C2E01D0682E02D16D1CD7
:101890002E7800E000E0F6E700BF662E7BD00CDC7F
:1018A000582E3DD004DC252E70D0462E6DD173E02D
:1018B000632E0CD0642EF9D115E0702E53D0732E08
:1018C0003CD0752E1DD0782EF0D128E0A7E02168FD
:1018D000081D2060D1F8009009F0FF0B594614A8AC
:1018E00001F060FA98E02168081D2060D1F80090AE
:1018F000CDE900870A22494614A8139B01F075F828
:101900008AE02168081D2060D1F80090CDE90087A9
:101910000A22494614A8139B01F0DEF87CE000BFC0
:101920002168081D2060D1F80090CDE900871022C1
:10193000494614A8139B01F0CFF86DE02168081DFB
:101940002060D1F800B000BF9BF800600BF1010BE4
:1019500006B906E0314614A801F024FA17980028C9
:10196000F2DA00BF58E02168081D2060D1F800902D
:10197000002008210B461022CDE90010494614A88A
:1019800001F0AAF848E006E000E044E0252114A8B0
:1019900001F008FA40E000BF2068C01D20F00700F9
:1019A00001460830206091ED001BB0EE410AF0EED8
:1019B000610A51EC100B04F041FF08EE100ABDEE75
:1019C000C80A10EE109ACDE900870A22494614A8E9
:1019D000139B01F00AF82E2114A801F0E3F99FED02
:1019E0001E0A28EE000ABDEEC00A10EE100A0028FA
:1019F00001DB014600E041428946642099FBF0F199
:101A000000FB119902230A22494614A8CDE9008758
:101A100000F0EBFF00E000BF00BF6D1C03E03146AB
:101A200014A801F0BFF917980028BFF6D5AE00BF83
:101A3000179800280ADD169820B103A95046169A77
:101A4000FFF7EEFDDDE9161008441790179819B05E
:101A5000BDEC028BBDE8F08F0000C84270B5EFF31B
:101A600011800646202080F3118800BF00BF28485F
:101A700000F0B8FF05462C462046264A516805E08E
:101A8000CAB242F0800200F8012BC9097F29F7D8B9
:101A900000F8011B044620461E4A916805E0CAB2C0
:101AA00042F0800200F8012BC9097F29F7D800F81D
:101AB000011B04462046174A116905E0CAB242F0EC
:101AC000800200F8012BC9097F29F7D800F8011B13
:101AD00004462046002105E0CAB242F0800200F828
:101AE000012BC9097F29F7D800F8011B04461822E9
:101AF0002146284601F066F8F0B280F3118800BF55
:101B000000BF0448406A10B10249486A804770BD6E
:101B1000D8130020B013002070B5EFF311800446F5
:101B2000202080F3118800BF00BF074800F05AFF53
:101B3000054611222946284601F044F8E0B280F318
:101B4000118800BF00BF70BDD81300202DE9F041FF
:101B50000446EFF311800746202080F3118800BF70
:101B600000BF114800F03EFF05462E460F480069B1
:101B7000241A3046214605E0CAB242F0800200F83D
:101B8000012BC9097F29F7D800F8011B0646082256
:101B90003146284601F016F8F8B280F3118800BFEC
:101BA00000BFBDE8F0810000D8130020B013002072
:101BB0002DE9F0410446EFF311800746202080F321
:101BC000118800BF00BF114800F00CFF05462E46EB
:101BD0000F480069241A3046214605E0CAB242F097
:101BE000800200F8012BC9097F29F7D800F8011BF2
:101BF000064604223146284600F0E4FFF8B280F39E
:101C0000118800BF00BFBDE8F0810000D81300209C
:101C1000B01300202DE9F0410446EFF31180074690
:101C2000202080F3118800BF00BF114800F0DAFEC9
:101C300005462E460F480069241A3046214605E025
:101C4000CAB242F0800200F8012BC9097F29F7D8F7
:101C500000F8011B064606223146284600F0B2FF76
:101C6000F8B280F3118800BF00BFBDE8F08100002A
:101C7000D8130020B013002070B50C48006A78B16A
:101C80000A48006A006858B10849096A086880472C
:101C900004460D462A4621460D2000F039F804E09E
:101CA000034841680C2000F005F870BDB013002017
:101CB000001000E02DE9F04105460E46EFF31180DB
:101CC0008046202080F3118800BF00BF0F4800F03D
:101CD00089FE044627463846314605E0CAB242F03E
:101CE000800200F8012BC9097F29F7D800F8011BF1
:101CF00007462A463946204600F064FF08F0FF00F8
:101D000080F3118800BF00BFBDE8F081D813002028
:101D10002DE9F04706460F469046EFF311808146C5
:101D2000202080F3118800BF00BF174800F05AFE42
:101D300005462C462046394605E0CAB242F08002EC
:101D400000F8012BC9097F29F7D800F8011B0446C8
:101D50002046414605E0CAB242F0800200F8012B5D
:101D6000C9097F29F7D800F8011B044632462146ED
:101D7000284600F027FF09F0FF0080F3118800BF1C
:101D800000BFBDE8F0870000D81300202DE9F05F08
:101D900006460F4690469946DDF828A0EFF31180DD
:101DA0008346202080F3118800BF00BF244800F044
:101DB00019FE05462C462046394605E0CAB242F0D7
:101DC000800200F8012BC9097F29F7D800F8011B10
:101DD00004462046414605E0CAB242F0800200F8BF
:101DE000012BC9097F29F7D800F8011B04462046BA
:101DF000494605E0CAB242F0800200F8012BC90949
:101E00007F29F7D800F8011B04462046514605E01B
:101E1000CAB242F0800200F8012BC9097F29F7D825
:101E200000F8011B044632462146284600F0CAFE4F
:101E30000BF0FF0080F3118800BF00BFBDE8F09FEA
:101E4000D813002070B50446EFF31180054620201A
:101E500080F3118800BF00BF074800F0C3FD0646AD
:101E600022463146304600F0ADFEE8B280F31188DC
:101E700000BF00BF70BD0000D81300202DE9F0475F
:101E800006462948006800284CD0274804680027E7
:101E900003E0246904B902E07F1CB742F9D300BF14
:101EA000002C3AD0EFF311808146202080F3118876
:101EB00000BF00BF1D4800F095FD804645462846FE
:101EC000314605E0CAB242F0800200F8012BC90990
:101ED0007F29F7D800F8011B05462846A16805E0D0
:101EE000CAB242F0800200F8012BC9097F29F7D855
:101EF00000F8011B054680222846216800F0FAFC04
:101F0000054616222946404600F05CFE09F0FF0017
:101F100080F3118800BF00BF00BF1CB1E06808B1AA
:101F2000E0688047BDE8F087D8010020D813002082
:101F300010B50748006848B10548046800BFE0686C
:101F400008B1E06880472469002CF8D110BD00007A
:101F5000D801002070B5EFF311800646202080F3F1
:101F6000118800BF00BF0F4800F03CFD0446254625
:101F700028460D4A117805E0CAB242F0800200F806
:101F8000012BC9097F29F7D800F8011B05461B2240
:101F90002946204600F016FEF0B280F3118800BFFB
:101FA00000BF70BDD8130020DC0100202DE9F041F6
:101FB0000546EFF311800746202080F3118800BF0B
:101FC00000BF3B4800F00EFD064634462046394B24
:101FD0002A681B69D11A05E0CAB242F0800200F8F3
:101FE000012BC9097F29F7D800F8011B04462046B8
:101FF000A96805E0CAB242F0800200F8012BC909C5
:102000007F29F7D800F8011B044620222046696882
:1020100000F070FC044609222146304600F0D2FD53
:1020200034462046234B2A681B69D11A05E0CAB200
:1020300042F0800200F8012BC9097F29F7D800F887
:10204000011B04462046E96805E0CAB242F080025E
:1020500000F8012BC9097F29F7D800F8011B0446B5
:102060002046296905E0CAB242F0800200F8012B3F
:10207000C9097F29F7D800F8011B04462046002132
:1020800005E0CAB242F0800200F8012BC9097F299D
:10209000F7D800F8011B044615222146304600F00F
:1020A00091FDF8B280F3118800BF00BFBDE8F08158
:1020B000D8130020B013002010B50648006A38B1CC
:1020C0000448006A406818B10249096A48688047B4
:1020D00010BD0000B0130020014602480069081A34
:1020E00070470000B013002070B501203A49087015
:1020F000EFF311800446202080F3118800BF00BF59
:1021000048780A223549FFF7F3FAE0B280F31188E4
:1021100000BF00BF0A20FFF795FEEFF311800646CF
:10212000202080F3118800BF00BF2D4800F05AFC2A
:1021300005462C462046284A516805E0CAB242F0BE
:10214000800200F8012BC9097F29F7D800F8011B8C
:1021500004462046204A916805E0CAB242F0800257
:1021600000F8012BC9097F29F7D800F8011B0446A4
:102170002046194A116905E0CAB242F0800200F80F
:10218000012BC9097F29F7D800F8011B0446204616
:10219000002105E0CAB242F0800200F8012BC90913
:1021A0007F29F7D800F8011B04461822214628464B
:1021B00000F008FDF0B280F3118800BF00BF0648B0
:1021C000406A10B10449486A8047FFF755FDFFF7A0
:1021D00073FFFFF7BFFE70BDB01300202D71000824
:1021E000D813002070B5EFF311800546202080F34E
:1021F000118800BF00BF0A4800F0F4FB04460948FC
:10220000007838B10B222146204600F0DBFC00208C
:1022100004490870E8B280F3118800BF00BF70BDA8
:10222000D8130020B01300202DE9F0410546EFF34C
:1022300011800646202080F3118800BF00BF194896
:1022400000F0D0FB074680222946384600F052FBBA
:1022500004462046012105E0CAB242F0800200F89F
:10226000012BC9097F29F7D800F8011B0446204635
:10227000002105E0CAB242F0800200F8012BC90932
:102280007F29F7D800F8011B04461A222146384658
:1022900000F098FCF0B280F3118800BF00BFBDE8E9
:1022A000F0810000D81300201FB502A801F010FD36
:1022B000684603F056F801214FF4C01001F0A4F86D
:1022C0000121334801F0A0F801213148093001F023
:1022D0009BF801212F4801F063FD01212E4801F0F8
:1022E0005FFD01208DF80F0000208DF80C00082004
:1022F0008DF80E00029004208DF80D0002A92748E9
:1023000001F0F1FC01208DF80F0000208DF80C0089
:102310008DF80E001020029004208DF80D0002A907
:102320001E4801F0E0FC01208DF80F0000208DF820
:102330000C0008208DF80E002020029004208DF85B
:102340000D0002A9154801F0CEFC00208DF8000018
:1023500001208DF8010000208DF804008DF80300A5
:1023600002208DF8020001208DF805008DF806008E
:102370008DF8070069460A4803F003F8072108486A
:1023800002F0EAFF0121064802F0F6FF1FBD00003F
:10239000030018000203103001041028000C014053
:1023A00000300140014600BF0948806800F002008B
:1023B0000028F9D00648C16000BF0548806800F0D9
:1023C00001000028F9D00248C068C0B27047000080
:1023D000003001402DE9F84305460C4616461F46DD
:1023E000DDF82080052221A12046FDF7DBFF08B99A
:1023F000BDE8F8831F480068082803D31E48FFF78C
:1024000013FFF5E71B48006800EB80001B4941F80B
:1024100020501848006800EB800001EB8000446009
:102420001448006800EB800001EB800086601148D2
:10243000006800EB800001EB8000C7600D48006879
:1024400000EB800001EB8000C0F8108009480068B4
:10245000401C084908603B46324621462846CDF8D4
:10246000008000F095F800BFC2E7000049444C45E9
:1024700000000000E4010020F8730008BC140020F4
:1024800070B505464048006800B970BD002408E0FA
:1024900004EB84003D4951F82000A84200D104E03B
:1024A000641C394800688442F2D300BF3648006893
:1024B000401EA0420DD104EB8401344A02EB81009E
:1024C0001421FEF76CF830480068401E2E49086061
:1024D00057E02D480068844253D22B480068401EC4
:1024E00000EB8000294951F8200004EB8401274AC1
:1024F00042F8210024480068401E00EB800011468D
:1025000001EB8000406804EB840102EB810148602C
:102510001D480068401E00EB8000114601EB800062
:10252000806804EB840102EB810188601648006832
:10253000401E00EB8000114601EB8000C06804EBF8
:10254000840102EB8101C8600F480068401E00EB67
:102550008000114601EB8000006904EB840102EB6E
:102560008101086108490968491E01EB810102EBFC
:1025700081001421FEF713F803480068401E024949
:10258000086000BF81E70000E4010020BC140020C7
:102590002DE9F04186B004460D4616461F46DDF88B
:1025A0003080142101A8FDF7FAFF019402950396EB
:1025B0000497CDF8148001A8FFF7F8FC06B0BDE839
:1025C000F08110B5032001F08FFE03F011F801F047
:1025D00047F800F08DFD012000F0C2FD00F06EFD17
:1025E000FEF780F900F060F802E0642001F056F890
:1025F00001F090F80028F8D1FEF7B0FE022000F0BC
:10260000AFFD10BD10B500BF502080F31188BFF39F
:102610004F8FBFF36F8F00BF03F0E2FF18B14FF091
:1026200080500449086000BF002080F3118800BF7B
:1026300010BD000004ED00E01848006840F4700090
:10264000164908601648006820F00100401C144933
:10265000086000BF12480068C0F340000028F9D0AD
:102660000F48406820F003000D49486000BF0C4847
:102670004068C0F381000028F9D109480068094981
:102680000840074908600020486008634FF41F00B5
:102690008860C803014980390860704788ED00E010
:1026A00000100240FFFFF2FE70B58AB00025002442
:1026B000142103A8FDF773FF03A800F0D5FD012145
:1026C000454800F0A1FE01214348093800F09CFE76
:1026D0004FF48070089008208DF8260000208DF8B7
:1026E000240004208DF8250001208DF8270008A97A
:1026F0003A4801F0F8FA4FF40050089008208DF89D
:10270000260000208DF8240004208DF825000120EB
:102710008DF8270008A9324801F0E5FA0598400035
:102720003049B0FBF1F0401E85B2681E0A21B0FBB3
:10273000F1F084B2002229462B4803F019F8002159
:10274000294803F061F801A803F04FF907208DF83C
:10275000040000208DF8090001208DF807008DF895
:10276000050000208DF80A0001208DF808000020E7
:102770008DF8060001AA00211B4803F066F82246E6
:102780000021194803F02CF801208DF8090001AA56
:102790000421154803F059F8264604EBD670421080
:1027A0000421114803F01CF804200F49303108605F
:1027B000002201210C4803F03DF8002202211920DB
:1027C00001F02EFD0121084803F018F90121064807
:1027D00003F01FF80AB070BD0B001800000801409C
:1027E000000C0140A0860100002C014010B5012121
:1027F000084803F016F801280BD10748007810B1FB
:10280000FEF728F901E0FEF7F7F90121014803F08E
:1028100005F810BD002C01401100002010B520214A
:10282000144803F0EFF918B3124803F0D9F9C1B214
:10283000114802780078401C0F4B18700F488154E3
:1028400018460078801E0D49085C0D2810D11846E6
:102850000078401E085C0A280AD10021184600783A
:10286000801E064A115400201946087001F088F8AD
:1028700010BD000000380140C4010020F605002012
:1028800000BFFEE770B5144CA8212046FDF787FE77
:1028900003202061606111A0A0611349E1614FF440
:1028A000806121620021A1626162E1620BA0206669
:1028B0000E4961661021A16600212167E16661670A
:1028C000002505E0C5F10F000949085C60556D1C45
:1028D000102DF7D370BD0000F80A00205465726D0A
:1028E000696E616C00000000A00B0020A00F0020AA
:1028F0000C71000870B50C460346401C802A00D9B4
:10290000802203E011F8015B00F8015B151EA2F1C3
:10291000010202D00D78002DF4D10D1B1D7070BD89
:1029200010B501460A69CB689A4204D88C68641EC7
:10293000E41AA01801E0D41A601E10BD38B5284969
:10294000087E01226946FEF715FE0446002C45D09C
:102950009DF8000005281ED008DC01280FD00228B1
:1029600010D0032811D004282CD111E0062815D04E
:10297000072816D07F2824D0802823D114E0FFF721
:10298000B3FB2AE0FFF72EFC27E0FFF775F924E000
:10299000FFF792FB21E0FFF761F81EE0FFF7DAFA9C
:1029A0001BE0FFF7C5FA18E00D49087E01226946D1
:1029B000FEF7E0FD04461CB19DF80000FFF75EFA4B
:1029C0000BE00AE09DF80000802805DB0449087E42
:1029D00001226946FEF7CEFD00BF00BF38BD0000F2
:1029E000B01300200146C81D70472DE9FC5F064664
:1029F0000F4692469846DDE90C45002F01DA7842F1
:102A000000E0384683464FF0010903E09BFBFAFBE8
:102A100009F10109D345F9DAC84500D9C14634B1F5
:102A2000002F03DB05F00400042800D1641E05F02C
:102A3000020010B1B8F1000F11D005F0010070B91B
:102A40006CB108E0641E2021304600F0ABF9F0685C
:102A5000002800DA02E00CB1A145F3D300BFF06812
:102A6000002836DB002F05DA7F422D21304600F0AA
:102A700099F907E005F00400042803D12B21304622
:102A800000F090F9F068002823DB05F0020002282E
:102A900014D105F0010088B9B8F1000F0ED16CB166
:102AA00008E0641E3021304600F07CF9F068002810
:102AB00000DA02E00CB1A145F3D300BFF0680028B2
:102AC00007DB4346524639463046CDE9004500F023
:102AD00003F8BDE8FC9F00002DE9FC5F80468946B5
:102AE00015461E460C9CCDF804900127BB4605E018
:102AF0000198B0FBF5F001900BF1010B0198A84291
:102B0000F6D25E4500D9B3460D9800F00100D0B969
:102B1000CCB10D9800F00200022803D116B9302084
:102B2000009001E02020009009E0641E40460099DA
:102B300000F038F9D8F80C00002800DA02E00CB1F7
:102B4000A345F2D300BFD8F80C00002835DB09E01C
:102B5000012E01D9761E04E0B9FBF7FAAA4500D28E
:102B600001E06F43F4E700BF00BFB9FBF7FA0AFBCF
:102B70001799134810F80A10404600F013F9D8F8D6
:102B80000C00002800DA03E0B7FBF5F7002FECD1CA
:102B900000BF0D9800F0010078B174B109E0641E27
:102BA0002021404600F0FEF8D8F80C00002800DA9A
:102BB00002E00CB1A345F2D300BFBDE8FC9F0000CA
:102BC0001D7100082DE9F04705460F46144672486E
:102BD0000078012800D10FE06F48007800B9BCE010
:102BE0006D480078022806D100F0FEF86A480078A7
:102BF000012800D0B1E000BF202C06D26648C06991
:102C00000121A140084000B1A7E0182C03D2681EA2
:102C10000546047078E07E1B7F2E0BD9C6F3C711E2
:102C2000681E05460170F0B240F08001681E05463E
:102C3000017002E0681E054606707F2C03D2681EF4
:102C40000546047060E0B4F5804F0BD2C4F3C711A1
:102C5000681E05460170E0B240F08001681E05461E
:102C6000017051E0B4F5001F12D2C4F38731681E21
:102C700005460170802040EAD410C1B2681E0546A6
:102C80000170E0B240F08001681E054601703BE033
:102C9000B4F1805F19D2C4F34751681E0546017034
:102CA000802040EA9430C1B2681E05460170802041
:102CB00040EAD410C1B2681E05460170E0B240F08F
:102CC0008001681E054601701EE0210F681E054642
:102CD0000170802040EA5450C1B2681E0546017060
:102CE000802040EA9430C1B2681E05460170802001
:102CF00040EAD410C1B2681E05460170E0B240F04F
:102D00008001681E054601702448D0F804802248DE
:102D1000C068A8EB000A3846514605E0CAB242F046
:102D2000800200F8012BC9097F29F7D800F8011BA0
:102D300007467A1B184948782946FEF7D9FC814690
:102D4000B9F1000F03D01448C0F80C8004E0124819
:102D50000078401C1049087000BF0F48007E00EB4F
:102D600040010F4800EBC100C1680B48007E00EB3A
:102D700040020B4800EBC2000069081A0AD006485E
:102D8000807838B9012004498870FFF7D7FD00200A
:102D900001498870BDE8F087B0130020001000E002
:102DA000580B002070B504460E46A568681C616883
:102DB000814206D320684655681CA060E068401C2C
:102DC000E060D4E9011088420DD1A2682168206931
:102DD000FEF726FCA168884203D04FF0FF30E06088
:102DE00001E00020A06070BDFEB501208DF800005C
:102DF0000DF1010630461C4A516905E0CAB242F0A5
:102E0000800200F8012BC9097F29F7D800F8011BBF
:102E10000646164844681448C068271A30463946A2
:102E200005E0CAB242F0800200F8012BC9097F29EF
:102E3000F7D800F8011B06466946721A0A49487815
:102E40006946FEF755FC054635B10748C460007871
:102E5000401E0549087004E003484069401C0249CF
:102E600048612846FEBD0000B0130020001000E0BD
:102E70002DE9F05F0446894617464FF0000AE568E1
:102E800000BFD4F81080A84503D9A8EB0500461E62
:102E900004E0A5EB0800401CA1680E1AA068401BC6
:102EA000B04201D9304601E0A068401B0646BE4250
:102EB00001D2304600E038460646606800EB050B5C
:102EC000324649465846FDF703FBB244B144BF1BA6
:102ED0003544A068A84200D10025E560002FD0D17C
:102EE0005046BDE8F09F2DE9F04704468946154657
:102EF000E668A068871BAF420AD9606800EB060A43
:102F00002A4649465046FDF7E3FA7019E06014E09E
:102F1000B846606800EB060A424649465046FDF74F
:102F2000D7FAA5EB0708D4F804A009EB070142463D
:102F30005046FDF7CDFAC4F80C80BDE8F08700BF1D
:102F400070470B78426863F3082242604B788268CE
:102F500063F3410282608B78826863F3CB228260E4
:102F6000CA78521EC36A62F31753C36270470021C6
:102F70000170417081700121C1707047816821F03A
:102F8000080108318160704701468868C0F3C000BD
:102F900008B1012070470020FCE7816821F004019E
:102FA000091D8160704701468868C0F3800008B140
:102FB000012070470020FCE70349096860F31341D2
:102FC000014A11607047000004240140826861F3E7
:102FD000082282607047826861F300028260704755
:102FE00070B504460A290CDA206901EB4106072571
:102FF000B540A84301EB410503FA05F528432061DC
:103000000FE0E068A1F10A0505EB45060725B5408C
:10301000A843A1F10A0505EB450503FA05F5284388
:10302000E0600D2A10DBE06AA2F10D0505EB8506D4
:103030001F25B540A843A2F10D0505EB850501FA52
:1030400005F52843E0621EE0072A0EDB206BD51F42
:1030500005EB85061F25B540A843D51F05EB850563
:1030600001FA05F5284320630DE0606B551E05EB62
:1030700085061F25B540A843551E05EB850501FAB9
:1030800005F52843606370BD07290ADD836823F0D6
:10309000007303F100738360836861F353438360BB
:1030A00007E0836823F000738360836861F3534310
:1030B0008360836862F31453836070471CB50121F9
:1030C000094800F0A1F9684600F002FE00208DF8E2
:1030D00006004FF44040009018208DF80500694626
:1030E000024800F000FE1CBD03001800000C014067
:1030F0001CB501210F4800F087F9684600F0E8FD93
:1031000001208DF8070000208DF8040010208DF8B4
:1031100006001820009004208DF805006946064836
:1031200000F0E1FD0820044910310860102008601B
:103130001CBD00000200180000080140012802D058
:10314000022808D103E00821044A116003E010219D
:10315000024A116000BF00BF704700001008014024
:10316000012802D0022808D103E00821044A116096
:1031700003E01021024A116000BF00BF7047000049
:10318000140801400649496860F38F31044A5160D0
:1031900082080349496862F31C71014A5160704713
:1031A000001002400349496860F30711014A516069
:1031B00070470000001002400349496860F30A218B
:1031C000014A5160704700000010024003494968FD
:1031D00060F3CD21014A51607047000000100240A9
:1031E000012807D10749496D21F030013031054AE6
:1031F000516505E00349496D21F03001014A5165EF
:103200007047000000100240052827D2DFE800F0D8
:10321000030A11181F00134A126861F30002114BD0
:103220001A601CE00F4A126861F310420D4B1A60DD
:1032300015E00C4A126861F318620A4B1A600EE03E
:10324000084A126A61F30002064B1A6207E0054A57
:10325000526A61F30002034B5A6200E000BF00BFF4
:1032600070470000001002402DE9F04101460027A0
:103270000022002590460023002400F06FF9064646
:1032800026B1012E12D0022E43D112E03948406DF2
:10329000C0F3402038B13748006BC0F3406010B134
:1032A0003548086001E03548086035E0334808607B
:1032B00032E030484068C0F300482E484068C0F310
:1032C00083422C484068C0F341750DB90F2A03D1E1
:1032D0002801401C024400E0921CB8F1000F03D109
:1032E00027485043086013E022484068C0F340403C
:1032F00058B12048406DC0F30137B81CDFF87CC0DE
:10330000BCFBF0F05043086002E01C4850430860EA
:1033100002E01A48086000BF00BF16484068C0F3CA
:1033200003131848C45C0868E040486011484068CE
:10333000C0F302231448C45C4868E040C8600D48EC
:103340004068C0F3C2231148C45C4868E04088600C
:1033500008484068C0F3007306484068C0F38130F5
:1033600040EA83030A48C45C8868B0FBF4F0086153
:10337000BDE8F08100100240006CDC0200127A000F
:1033800000093D0047710008577100085F7100088F
:103390006771000810B501460020094B03EB11428C
:1033A000126801F01F040123A3401A4001F01F041A
:1033B0000123A3409A4200D000E0012010BD00008C
:1033C000001002400349496D60F30D31014A516517
:1033D000704700000010024030B50024002500E0D6
:1033E000641C1120FFF7D6FF012802D0B4F5405F1E
:1033F000F6D31120FFF7CEFF012801D0002500E011
:103400000125284630BD000010B501290DD10E4B15
:1034100003EB1042126800F01F040123A3401A437B
:10342000094C04EB10431A600CE0074B03EB10420D
:10343000126800F01F040123A3409A43024C04EBDE
:1034400010431A6010BD00000010024010B568B9AA
:103450001C4B5B6823F480331A4C636023461B6B60
:1034600023F0007303F10073236317E0154B5B68CF
:1034700023F4803303F58033124C6360012805D1B7
:1034800023465B6823F40033636007E00D4B5B6801
:1034900023F4003303F500330A4C6360094B5B6887
:1034A00061F39543074C63600C09064B5B6864F35A
:1034B0005E73044C636023465B6862F3DF73636092
:1034C00010BD0000001002401348006820F0010009
:1034D000401C1149086000BF0F480068C0F340005D
:1034E0000028F9D00C48406820F003000A494860E1
:1034F00000BF09484068C0F381000028F9D10648A0
:1035000000680649084004490860002048600863D4
:103510004FF41F008860704700100240FFFFF2FE6A
:103520000D49496860F301010B4A516000BF00BFBB
:1035300000BF00BF00BF00BF00BF00BF00BF00BF93
:1035400000BF00BF00BF00BF00BF00BF00BF00BF83
:1035500000BF00BF704700000010024002484068F2
:10356000C0F381007047000000100240026861F360
:1035700000020260704741607047002101604160B5
:1035800001814181017341738173C173017441747D
:10359000704702684BF6EF731A40026002680B89AD
:1035A0001A4302604B7C026863F30D320260CB7BEE
:1035B000026863F38B2202608B7B026863F309224B
:1035C00002604B7B026863F3C71202600B7B0268E8
:1035D00063F3861202600B7C026863F3451202609B
:1035E0004A8942600A6882604A68C2607047000087
:1035F0000021026822F001020260002202604260A3
:103600008260C260014640F2FF420A40B2F5816F1B
:103610000DD2CAB2083A1423B2FBF3F293000F2280
:103620009A400D4B5B681A430B4B5A6012E040F214
:10363000FF420A40B2F5916F0CD2CAB2083A142385
:10364000B2FBF3F293000F229A40044B1B681A431B
:10365000024B1A6070470000000002400404024060
:1036600000B585B014216846FCF799FF6846FFF75E
:10367000FBFD07490098B0FBF1F0064908600846D9
:1036800000684FF47A7148430349086005B000BDF3
:1036900040420F003000002034000020134A12681E
:1036A00042F08072114B1A600022114B5A601A4688
:1036B000126842F001021A601A46516800BF0C4AB3
:1036C0005268531A0B4A126842439342F7D3084A8E
:1036D000126822F00102064B1A6000225A60034A67
:1036E000126822F08072014B1A607047FCED00E016
:1036F000001000E03400002030B50446002505E04D
:103700004FF47A70FFF7CAFF681C85B2A542F7DB59
:1037100030BD000038B502F0D1F9092157A0FDF7FE
:10372000F7FB0220FFF7E8FF4FF480715648FCF7E3
:1037300014FF072155A0FDF7EBFB0A20FFF7AEFFB2
:1037400054A15148FCF752FF08B1012038BD4FF495
:1037500080714D48FCF701FF0E214FA0FDF7D8FB0B
:103760006420FFF79BFF4BA14748FCF73FFF08B1E0
:103770000220EBE74FF480714348FCF7EEFE4A4825
:1037800003684A484AA102684F4801F0E5FF4E48E5
:10379000FCF734FE84B221464B48FDF7B9FB02200A
:1037A000FFF7AAFF3BA13848FCF720FF08B1032030
:1037B000CCE74FF480713448FCF7CFFE43480068F3
:1037C000009043480368434843A102683E4801F023
:1037D000C3FF3D48FCF712FE84B221463A48FDF78C
:1037E00097FB6420FFF75AFF2AA12748FCF7FEFE4B
:1037F00008B10420AAE74FF480712348FCF7ADFE1E
:10380000404841A10268304801F0A6FF2E48FCF76D
:10381000F5FD84B221462C48FDF77AFB4FF47A700F
:10382000FFF73CFF1BA11848FCF7E0FE08B105209C
:103830008CE74FF480711448FCF78FFE39483AA1A9
:103840000268214801F088FF1F48FCF7D7FD84B2C9
:1038500021461D48FDF75CFB4FF4FA70FFF71EFF91
:103860000CA10948FCF7C2FE08B106206EE74FF430
:1038700080710548FCF771FE002067E741542B5228
:1038800053540D0A00000000F60500204154453055
:103890000D0A00004F4B000041542B43574D4F443D
:1038A000453D310D0A0000009801002094010020E0
:1038B00041542B43574A41503D222573222C222547
:1038C00073220D0A0000000060040020A401002003
:1038D000A00100209C01002041542B4D515454550F
:1038E0005345524346473D302C312C222573222C20
:1038F000222573222C222573222C302C302C2222BC
:103900000D0A0000A801002041542B4D515454438E
:103910004F4E4E3D302C222573222C313838332C1B
:10392000310D0A00AC01002041542B4D5154545329
:1039300055423D302C222573222C310D0A00000007
:1039400038B504460948006823460090084809A194
:1039500002680A4801F000FF0848FCF74FFD85B2F5
:1039600029460648FDF7D4FA38BD0000C001002002
:10397000BC0100202573257325730000600400201E
:1039800070B50D2269A16D48FCF757FD002879D16B
:103990006B4801686948FCF7F3FC044604B970BD44
:1039A00004F10A0564A12846FCF7E4FC65490860B7
:1039B00008460068FCF722FD401E624909680022A3
:1039C0000A5461A10020FCF7D5FC6049086060A1A1
:1039D0005C480068FCF70AFE38B95C48006800786B
:1039E000303840B25E49087092E05EA155480068E8
:1039F000FCF7FCFD30B955480068007830385C4968
:103A0000087085E05BA14F480068FCF7EFFD48B9FE
:103A10004E480068007830385949087000205049F5
:103A2000087075E057A147480068FCF7DFFD50B902
:103A30004648006801F092FD554880ED1A0A0120C1
:103A40005449087064E054A13E480068FCF7CEFD7C
:103A500050B93E48006801F081FD4D4880ED270ACD
:103A600000204C49087053E04EA136480068FCF72E
:103A7000BDFD40B93548006801F070FD4C4880ED4F
:103A8000070A45E050E04BA12E480068FCF7AEFD68
:103A900038B92E48006801F061FD454880ED060AFE
:103AA00036E047A127480068FCF7A0FD38B9274851
:103AB000006801F053FD3E4880ED050A28E043A16F
:103AC00020480068FCF792FD38B92048006801F0F2
:103AD00045FD374880ED040A1AE03FA11948006807
:103AE000FCF784FD38B91948006801F037FD30480B
:103AF00080ED030A0CE03BA112480068FCF776FD5C
:103B000030B91248006801F029FD294880ED020A09
:103B10000E4803680B4836A10268384801F01CFEC5
:103B20003648FFF70DFF00BF00BF38E72B4D51545B
:103B300054535542524543563A000000F6050020C2
:103B4000B0010020B40100207D000000B801002079
:103B500044657669636553776974636800000000A3
:103B6000C50100206D7070745F656E61626C6500E8
:103B700012000020636861726765724D6F646500B2
:103B800011000020566F75745F76616C75650000DA
:103B9000900200206D000020496F75745F76616CA3
:103BA00075650000666C6F6174696E675F496F00D0
:103BB000980000206368617267696E675F496F00F3
:103BC00070726563686172675F496F006375746FD7
:103BD00066665F566F000000666C6F6174696E67A1
:103BE0005F566F006368617267696E675F566F004A
:103BF0007B5C2225735C223A25737D0060050020E2
:103C0000F0EE400AF5EEC00AF1EE10FA02D2B1EE83
:103C1000600A7047B0EE600AFBE7B0EE401AB4EEFF
:103C2000E01AF1EE10FA02D2B0EE410A7047B0EE9F
:103C3000600AFBE710B50146DFED170AB4EEE00AB3
:103C4000F1EE10FA04DAB5EEC00AF1EE10FA01D87E
:103C5000002010BDDFED100A60EE200AFCEEE00A45
:103C600010EE902A042010E0022802D12E230B54DB
:103C700009E00A23B2FBF3F403FB142330330B54A3
:103C80000A23B2FBF3F2431E58B20028ECDA0020FC
:103C900048710120DDE700000000C84270B504460D
:103CA0000D4600BF8021094801F0ACFF0028F9D083
:103CB000A1B2064801F098FF00BF4021034801F07F
:103CC000A1FF0028F9D0204670BD00000050004040
:103CD0004FF6FF7101600021817101710421417172
:103CE0000121C1717047F0B50A461588ABB29579CC
:103CF000032D01D100241AE0957965B9557905F0B5
:103D00000F045579182D01D1036110E05579282D44
:103D10000DD143610BE0957905F00805167906F0A1
:103D200004063543D67906F0030645EA0604DDB2FB
:103D3000A5B1002110E001258D401D405DB1056851
:103D40008F000F26BE40B543056005688E0004FA5B
:103D500006F635430560491C0829ECD3FF2B15DD19
:103D60001B12002110E001258D401D405DB145680A
:103D70008F000F26BE40B543456045688E0004FAAB
:103D800006F635434560491C0829ECD3F0BD0246D0
:103D9000002093680B408B4200D000E00120704768
:103DA000F0B50C46104F07EB1062C0F30741C0F3AB
:103DB0000725C6B2C5F12007A7EB010C4FF0FF376E
:103DC00007FA0CF3C5F120077F1AFB40CB408B406C
:103DD00017689F4317602CB106FA01FC176847EA81
:103DE0000C071760F0BD00000000014000B590ED29
:103DF000000AD0ED010A30EE600A80ED060AD0ED2F
:103E0000060AB0EE600AFFF7FBFED0ED050AB4EE3D
:103E1000E00AF1EE10FA04D29FED230A80ED090AC0
:103E200013E090ED020AD0ED060A20EE200AD0ED54
:103E3000030A90ED071A00EEC10AD0ED040A90EDD6
:103E4000081A00EE810A80ED090A90ED0C0AD0ED07
:103E5000090A30EE200A80ED0C0A90ED070A80ED89
:103E6000080A90ED060A80ED070A90ED0C0AD0EDE5
:103E70000A0AB4EEE00AF1EE10FA04DD90ED0A0A47
:103E800080ED0C0A0CE090ED0C0AD0ED0B0AB4EEBC
:103E9000E00AF1EE10FA03D290ED0B0A80ED0C0A65
:103EA00090ED0C0A00BD000000000000B3EE020A15
:103EB000394880ED010A9FED390A80ED020A9FED35
:103EC000380A80ED030A9FED370A80ED040A9FED62
:103ED000360A80ED050A9FED330A80ED0B0AB0EE3D
:103EE000080A80ED0A0A9FED2F0A80ED090A9FED6E
:103EF0002E0A80ED1F0A9FED2B0A80ED230A2B4826
:103F00000078A8B19FED2A0A234880ED1C0A9FED96
:103F1000290A80ED1D0A9FED230A80ED1E0A9FED00
:103F2000210A80ED250AB0EE080A80ED240A14E08B
:103F30009FED210A184880ED1C0A9FED200A80EDB4
:103F40001D0A9FED180A80ED1E0A9FED1C0A80EDE8
:103F5000250A9FED1B0A80ED240A9FED1A0A0E48E0
:103F600080ED290A9FED180A80ED2A0A9FED0D0ABF
:103F700080ED2B0A9FED150A80ED2C0A9FED0F0AAC
:103F800080ED320A9FED0E0A80ED310A9FED050AA1
:103F900080ED300A70470000900200206666A63E61
:103FA0000AD7A33E000000000AD7233C11000020DE
:103FB00017D9CE3DCDCCCC3D69916D3DCDCC4C3D9E
:103FC0006666663FE527553CF4FD543C6F12833A24
:103FD00090ED050AD0ED040AB4EE600AF1EE10FA95
:103FE00000D1704790ED020AD0ED040A20EE200ABD
:103FF000D0ED030A90ED051A00EE810A80ED050A66
:1040000000BFEEE7D0ED000AF5EEC00AF1EE10FABF
:1040100006D9D0ED010AF5EEC00AF1EE10FA08D883
:10402000F7EE000AC0ED020ADFED160AC0ED030A42
:104030007047D0ED000A9FED141A60EE810AB7EECA
:10404000001A81EE200A90ED011AF7EE000A40EE08
:10405000010AB7EE001AC1EE201AC0ED021AD0ED27
:10406000020AB7EE001A71EE600AC0ED030ADFED36
:10407000050AC0ED040ADFED030AC0ED050A00BF22
:10408000D6E7000000000000DB0FC9401CB5FEF7BA
:1040900098FA0020012103464A02CDE9001004A14C
:1040A000064802F09FF902F02FF800201CBD000026
:1040B00073746172745F7461736B0000A9540008BB
:1040C00010B504464D4890ED050A4D4880ED040AB0
:1040D0004A4890ED0B0A4A4880ED0A0AFFF778FF3C
:1040E00047481830FFF774FF454890ED040AD0EDBB
:1040F0000A0A20EE200A80ED100A3030FFF768FF30
:104100003F4890ED110A3F4880ED000A3E48007894
:10411000401CC0B23C490870A0426BDB0020087014
:104120003A4890ED000A3748D0ED000A30EE600AB8
:10413000DFED370AB4EEE00AF1EE10FA07DD35489C
:10414000007808B9012000E00020324908703148A9
:10415000007850B12A4890ED050ADFED2F0A30EEC5
:10416000200A2E4880ED000A09E0254890ED050A56
:10417000DFED290A30EE600A284880ED000A214868
:1041800090ED000A214880ED000A1E4890ED000ADB
:10419000B5EEC00AF1EE10FA07D801201D490870EB
:1041A000B2EE080A1D4880ED000A1C4890ED000A96
:1041B000F2EE080AB4EEE00AF1EE10FA08D201209D
:1041C00014490870B2EE080A144880ED000A11E0A4
:1041D000124890ED000AF3EE0E0AB4EEE00AF1EE9A
:1041E00010FA07DD00200B490870B3EE0E0A0B48E9
:1041F00080ED000A094890ED000A10BDD8000020AB
:10420000380100208001002090010020840100205E
:10421000CDCC4C3D88010020CDCCCC3D8C01002084
:104220002DE9F0470B4614464FF0000C00BF2C4A16
:104230001268C2F302211D4626460A46C2F107094A
:10424000B9F1040F02D94FF0040901E0C2F10709E6
:10425000C84602F10409B9F1070F02D24FF0000974
:1042600001E0A2F103094F464FF0010909FA08F9EC
:10427000A9F1010909EA050909FA07F94FF0010A4C
:104280000AFA07FAAAF1010A0AEA060A49EA0A0939
:10429000CC4601466246002904DB15072E0E114D5F
:1042A0006E5407E015072F0E0D4D0C3501F00F066B
:1042B000361FAF5500BF014600290DDB00BF00BF10
:1042C00001F01F050122AA404D09AD0005F1E025CE
:1042D000C5F8002100BF00BF00BFBDE8F0870000A7
:1042E0000CED00E000E400E000BF00F00702064B28
:1042F00019684FF6FF031940044B0B4343EA0221B0
:10430000014B196000BF70470CED00E00000FA059A
:104310002DE9F74384B080460C4600259EE02078C6
:1043200025287DD1641C002007460646207800B968
:1043300098E02078252800D189E020782D2801D127
:10434000641C012702E0641C47F002072078302833
:10435000F9D006E006EB86004600207830380644A7
:10436000641C2078302802DB20783928F2DD2078A0
:10437000732811D1069850F8049B0690B9F1000FEC
:1043800001D0484600E03EA001463B46324640464A
:1043900000F0E5F8054460E0207864280DD1612044
:1043A000CDE900670290069802C801230A22069010
:1043B000404600F077F805444FE0207878280DD18A
:1043C0006120CDE900670290069802C80023102200
:1043D0000690404600F066F805443EE020785828F4
:1043E0000DD14120CDE900670290069802C8002354
:1043F00010220690404600F055F805442DE0207844
:1044000075280ED16120CDE900670290069802C898
:1044100000230A220690404600F044F805441CE0C0
:1044200014E02078632817D1069810F8041B069032
:10443000C8B28DF80C0000208DF80D003B463246C6
:1044400003A9404600F08BF8054406E000BF217840
:10445000404600F019F86D1C00BF641C207800284D
:104460007FF45DAF00BFB8F1000F03D00020D8F893
:104470000010087000200690284607B0BDE8F083C1
:10448000286E756C6C29000070B504460D462CB181
:1044900021680D702068401C206002E02846FBF770
:1044A00063FF70BD2DE9FF4F85B00C4616469A4656
:1044B000DDF84880002001908346274674B93020FB
:1044C0008DF8080000208DF80900424602A9139BD0
:1044D000059800F044F809B0BDE8F08FBAF1000F7C
:1044E00006D00A2E04D1002C02DA01200190674286
:1044F0000DF113050020287011E0B7FBF6F006FB64
:104500001079B9F10A0F02DB14983A38814409F1A5
:104510003000C1B2681E05460170B7FBF6F7002FE8
:10452000EBD1019898B1B8F1000F0CD0139800F0BE
:10453000020040B12D210598FFF7A6FF0BF1010BFA
:10454000A8F1010803E02D21681E054601704246CE
:104550002946139B059800F002F85844BBE72DE963
:10456000F04780460D4614461F4600264FF02009AE
:10457000002C12DD0020294601E0401C491C0A786D
:10458000002AFAD1A04201DB002400E0241A07F03F
:1045900002020AB14FF0300900BF07F0010040B934
:1045A00005E049464046FFF76FFF761C641E002C6D
:1045B000F7DC05E029784046FFF766FF761C6D1CA6
:1045C00028780028F6D105E049464046FFF75CFF11
:1045D000761C641E002CF7DC3046BDE8F087000036
:1045E0002DE9F04105460E461C4807681C48006846
:1045F000001D01F0CEFB50B91948006890F82C104E
:104600000120884017490968814316480160681CE9
:1046100038B936B112480168091D134801F0F7FB9B
:104620001AE07C190E4800684460BC4207D20C486E
:104630000168091D0D48006801F0CFFB0CE0084837
:104640000168091D0A48006801F0C7FB09480068B5
:10465000844201D207480460BDE8F08104020020D2
:10466000F00100200802002010160020F8010020B0
:10467000F40100202002002038B5044601F0D4FBEC
:104680002C480068401C2B4908602B48006840B942
:10469000294804600846006801280DD100F030F96F
:1046A0000AE02648006838B923480068C06AE16A11
:1046B000884201D82048046021480068401C2049F5
:1046C00008606CB12046FDF741FA216B2068401A62
:1046D000009004F134012046D4E90B23FDF77AFE63
:1046E0002046FDF797FA94F82C10012088401549D0
:1046F0000968084313490860E16A01EB8101124A25
:1047000002EB8100211D01F082FB01F0B7FB0B4899
:10471000006868B108480068C06AE16A884207D248
:104720004FF0805009490860BFF34F8FBFF36F8F80
:1047300038BD000000020020F00100200C02002023
:104740001C020020080200205C15002004ED00E09F
:1047500010B516E001F068FB0C48C068C468201D65
:1047600001F017FB0A480068401E09490860094823
:104770000068401E0749086001F080FB204600F0F9
:104780000BF8044800680028E4D110BDFC15002097
:1047900000020020FC01002010B50446206B01F04F
:1047A0008BFB204601F088FB10BD000030B54FF4B4
:1047B0000053174800F007042CB1C01D20F007007B
:1047C000134C041B1B1B0246124C22600024114D8B
:1047D0006C60D018083820F007000F4C20600024CF
:1047E0000D4D2D686C600C4D2D682C601146441ADF
:1047F0004C60094C24680C60084D4C682C60084DD6
:104800004C682C604FF00044064D2C6030BD000019
:1048100024160020340200203C0200204402002024
:10482000400200205002002000BFFFF791FF064821
:1048300000680128F9D94FF0805004490860BFF39F
:104840004F8FBFF36F8FF0E75C15002004ED00E0A1
:104850002DE9FF5F81460E469246DDE90E7B109CF6
:10486000AAF10100216B01EB800828F0070808F08D
:10487000070008B9012000E0002050B900BF502017
:1048800080F31188BFF34F8FBFF36F8F00BF00BF5E
:10489000FEE786B1002507E0715D04F13400415563
:1048A000705D00B902E06D1C102DF5D300BF002132
:1048B0004320015502E0002084F83400052F00D386
:1048C0000427E762201D01F085FA04F1180001F0C9
:1048D00081FA2461C7F10500A06164620020606470
:1048E00084F8480049464046039A00F05FF920608A
:1048F000BBF1000F01D0CBF80040BDE8FF9F0000E6
:1049000010B5002407E004EB84010F4A02EB81009C
:1049100001F053FA641C052CF5D30C4801F04DFA54
:104920000B4801F04AFA0B4801F047FA0A4801F037
:1049300044FA0A4801F041FA044809490860044869
:104940000849086010BD00005C150020C01500205B
:10495000D4150020E8150020FC15002010160020BA
:10496000F4010020F801002010B50146164800E0CF
:10497000006803688B42FBD30246436813448B42B2
:1049800004D143684C682344436001460A464B689F
:1049900013440468A34211D10C4C03682468A34259
:1049A00008D04B680468646823444B6003681B6844
:1049B0000B6005E0054B1B680B6001E003680B60B2
:1049C000884200D0016010BD340200203C0200206B
:1049D00009480068006808B9012000E0002020B103
:1049E0004FF0FF300549086005E003480068C068E3
:1049F0000068024908607047F4010020200200208E
:104A00000E480068401C08B9012000E0002050B9A1
:104A100000BF502080F31188BFF34F8FBFF36F8F1B
:104A200000BF00BFFEE700BF502080F31188BFF336
:104A30004F8FBFF36F8F00BF00BFFEE72000002045
:104A40002DE9F04104464FF0000801F0B7FB514852
:104A5000006808B9FFF7AAFE4F4800682040002808
:104A60007ED13CB304F10800A04223D9083404F0FD
:104A7000070000B304F00700C0F108002044A04282
:104A800016D904F00700C0F10800044404F0070040
:104A900008B9012000E0002068B900BF502080F371
:104AA0001188BFF34F8FBFF36F8F00BF00BFFEE7CA
:104AB000002400E00024002C54D0384800688442D0
:104AC00050D8374E3046056801E02E462D6868689C
:104AD000A04202D228680028F7D12E4800688542FB
:104AE00040D0306800F10808286830606868001B12
:104AF000102819D92F1907F0070008B9012000E084
:104B0000002050B900BF502080F31188BFF34F8FB1
:104B1000BFF36F8F00BF00BFFEE76868001B7860BF
:104B20006C603846FFF720FF1C4968680968081A5E
:104B30001A490860084600681A490968884203D281
:104B400016480068174908601349686809680843EF
:104B500068600020286014480068401C124900E08A
:104B600000E0086001F0E4FD08F0070008B901204A
:104B700000E0002050B900BF502080F31188BFF33F
:104B80004F8FBFF36F8F00BF00BFFEE74046BDE809
:104B9000F08100003C020020500200204002002072
:104BA000340200204402002048020020001F4FF081
:104BB00080730360001F21F001030360001F054B99
:104BC000036014380260001F6FF002030360203896
:104BD00070470000014A000808B50024621E002149
:104BE000084600F011FF54E00120FEF7B9FA022058
:104BF000FEF7A4FA00220121264800F01BFE002245
:104C00001146244800F0BCFD00220121214800F09B
:104C1000B7FD214843782148027821A10120FCF703
:104C2000B7FD1E48007830B103211C480078FCF71E
:104C3000E9FA00B90124FCF7B7FA022804D01CB93C
:104C400020480078012821D1FF201E49087001204A
:104C50001D49087000240020104908700E49487052
:104C6000EF200C493431086077200A493C31086054
:104C7000002002230246014600901448006801F01B
:104C8000E1FB621E0021084600F0BEFE642001F038
:104C900079F9A9E7002C0140980000206C00002061
:104CA0006C6F6F705F657272203D2025642C2063ED
:104CB00068616E7267655F657272203D2025640DC4
:104CC0000A000000C50100201000002004000020A0
:104CD00008B50025642001F055F907E04048007848
:104CE000012803D1FF203E49087003E0FCF75CFA7D
:104CF0000228F3D100BF01203A4908706EE0FCF7AA
:104D000029F905463C210020FCF7ACFA80B10020CF
:104D10003449087002230246014600903248006878
:104D200001F090FB4FF0FF320021084600F06CFECE
:104D3000012D3AD1002408E004EB44012B4A02EB98
:104D4000C100FFF75FF9601CC4B2042CF4DB00243F
:104D500008E004EB4401264A02EBC100FFF752F9D8
:104D6000601CC4B2032CF4DBFFF7A0F80122002181
:104D7000204800F005FD012211461E4800F000FD0C
:104D8000012211461B4800F055FD00200223024677
:104D9000014600901848006801F054FB4FF0FF32C4
:104DA0000021084600F030FE15E0681C98B9062086
:104DB0001249087000200B49087002230246014680
:104DC00000900948006801F03DFB4FF0FF320021E0
:104DD000084600F019FE052001F0D4F88FE7000026
:104DE000C50100201000002008000020D80000208D
:104DF00038010020002C01400C0000206C00002035
:104E000008B54FF0FF320021084600F0FDFD73E0C9
:104E10000220FEF7A5F90120FEF790F903210120F9
:104E2000FCF720FA80B100203449087002230246C2
:104E3000014600903248006801F004FB4FF0FF3259
:104E40000021084600F0E0FD2E480078B0B32E485F
:104E5000FBF74AFF012811D10020284908700223DE
:104E60000246014600902648006801F0EBFA4FF038
:104E7000FF320021084600F0C7FD0BE0224890ED0C
:104E8000090A224880ED1A0A1F4890ED0A0A1F48B5
:104E900080ED240A1E48007880B10120FFF710F948
:104EA0001A4880ED010A90ED010A1A4880ED000AC7
:104EB000154890ED0A0A154880ED0A0A1648007850
:104EC00018B1FCF771F9012813D1FF2012490870BD
:104ED00000200A4908700223024601460090084853
:104EE000006801F0AFFA4FF0FF320021084600F0F1
:104EF0008BFD642001F046F88AE7000010000020D6
:104F000008000020110000209800002090020020DE
:104F10001200002014000020C50100202DED048B9C
:104F200082B09FEDB00AB0EE408A9FEDAE0AF0EE7F
:104F3000408A9FEDAC0AB0EE409AAB480378AB488C
:104F40000278AB49AB4800F007FCAA48FEF7F8FC32
:104F5000C82001F017F8A848D0ED070AB0EE600AA3
:104F6000A648FEF767FEA448D0ED060AB0EE600A38
:104F7000A248801DFEF75EFE9F48D0ED050AB0EE08
:104F8000600A9E480C30FEF755FE9C480C30831F8B
:104F90009A1F9BA10090974800F0DEFB9548FEF712
:104FA000CFFC18219548FBF7D8FAC82000F0EAFF9B
:104FB0009148D0ED040AB0EE600A9048FEF73AFE40
:104FC0008D48D0ED030AB0EE600A8C48801DFEF7D4
:104FD00031FE8948D0ED020AB0EE600A87480C30F5
:104FE000FEF728FE85480C30831F9A1F94A100907D
:104FF000804800F0B1FB18218048FBF7AEFA7D48ED
:10500000FEF79EFCC82000F0BDFFE9E07A4840783A
:1050100000909A4803789A4802789AA1754800F05F
:105020009BFB7448FEF78CFC4FF4167000F0AAFF4F
:1050300001200F237F22194600900020FBF7F2FF8A
:1050400001203F233C22002100901046FBF7EAFF9D
:105050006648007830B101239AA200210846FCF787
:1050600083F805E001239AA200210846FCF77CF8AA
:105070009A48D0ED070AB0EE600A6048FEF7DAFD04
:10508000B0B19648D0ED030AB0EE600A5B480C3030
:10509000FEF7D0FD60B1594B0C33584A90A15548EA
:1050A00000F05AFB0123534A18210020FCF75CF85A
:1050B0008A48D0ED050AB0EE600A5048801DFEF720
:1050C000B9FDB8B18548D0ED010AB0EE600A4B4891
:1050D0001230FEF7AFFD68B1484B1233A3F10C025A
:1050E00083A1444800F038FB0123424A28210020D4
:1050F000FCF73AF841481230811F8B1F9A1FCDE907
:1051000000107F493B4800F027FB3A48FEF718FCA7
:1051100018213A48FBF721FA4FF4167000F032FFDD
:105120006E4890ED050AD0ED070A20EE200AB0EE99
:10513000408A90ED010AD0ED030A20EE200AF0EE3D
:10514000408A88EE880ADFED6F0A20EE200AF0EE32
:10515000409ADFED6D0AFEF760FDB0EE409A2748F9
:10516000B0EE480AFEF766FD30B32448801DB0EE6D
:10517000680AFEF75FFDF8B120480C30B0EE490A2E
:10518000FEF758FDC0B11D4B9B1D9A1F5FA119482A
:1051900000F0E2FA0123174A38210020FBF7E4FF70
:1051A000164A0C325DA1134800F0D6FA0123114AC9
:1051B00000214220FBF7D8FF10480C30831F9A1FB4
:1051C00058A100900B4800F0C7FA0A48FEF7B8FB58
:1051D00018210A48FBF7C1F94FF4167000F0D2FE0F
:1051E00014E7000000000000110000201200002061
:1051F00080710008600500209800002058020020FF
:105200007B5C22666C6F6174696E675F496F5C22BC
:105210003A25735C2C5C226368617267696E675F14
:10522000496F5C223A25735C2C5C2270726563685E
:105230006172675F496F5C223A25735C7D000000F4
:105240007B5C226375746F66665F566F5C223A25DD
:10525000735C2C5C22666C6F6174696E675F566F5D
:105260005C223A25735C2C5C226368617267696E0C
:10527000675F566F5C223A25737D00006C0000204A
:10528000100000207B5C2244657669636553776972
:105290007463685C223A25645C2C5C226C6F6F70CE
:1052A0005F6661756C745C223A25645C2C5C2263D9
:1052B0006861726765725F6661756C745C223A251D
:1052C000647D00004D4F44453A4D5050540000005D
:1052D0004D4F44453A50574D2000000070020020C9
:1052E00056696E3A25732020566F75743A257300FF
:1052F00049696E3A25732020496F75743A25730009
:10530000E47100080000C842E1FAC74250696E3AF1
:1053100025732020506F75743A25730050656666BA
:105320003A2573007B5C2250696E5F76616C75650F
:105330005C223A25735C2C5C22506F75745F766139
:105340006C75655C223A25735C2C5C22505F656647
:10535000665C223A25737D00026961F30F020261E7
:1053600070470021017041708170C17001714171FD
:1053700081710121C1717047026861F38612026078
:105380007047C26922F40062C2610A7862B9026899
:1053900022F400420260026822F480420260026845
:1053A00022F48062026036E00A78012A0ED1026897
:1053B00022F400420260026822F480420260026825
:1053C00022F4806202F58062026024E00A78022AF8
:1053D0000ED1026822F4004202F500420260026827
:1053E00022F480420260026822F48062026012E0CD
:1053F0000A78032A0FD1026822F4004202F5004223
:105400000260026822F4804202F580420260026873
:1054100022F480620260CB79026863F34922026061
:105420004A78012A09D1CA79012A06D1026822F4F0
:10543000807202F58072026003E0026822F48072DA
:1054400002604B78026863F3820202608A78072A5E
:105450000BDD426822F4807202F5807242608A7825
:10546000036862F3C503036008E0426822F48072B7
:1054700042608B78026863F3C5020260CB780268F1
:1054800063F3C71202600B79026863F3CB220260F8
:105490004B79026863F3410202608B79026863F31F
:1054A00000020260704700001CB5044600F0BCFC1E
:1054B0001748032100236422CDE9001015A11848E4
:1054C00000F090FF1748022100236422CDE900106C
:1054D00015A1184800F086FF174801210023642217
:1054E000CDE9001015A1184800F07CFF0020012133
:1054F00003464FF4FA72CDE9001014A1164800F0EB
:1055000071FF002000F070FD00F0B8FC1CBD000031
:1055100004000020496E69745F7461736B000000C1
:10552000D14C0008080000204661756C745F7461FE
:10553000736B0000D94B00080C00002052756E5FA1
:105540007461736B00000000014E000873686F7790
:105550005F7461736B0000001D4F000810B52DEDE6
:105560000C8B04462179A1F1300001F041FA41ECA5
:105570001B0B9FED1B0B53EC102B01F051FA41EC70
:10558000190BE178A1F1300001F032FA41EC1D0B6A
:105590009FED150B53EC102B01F042FA41EC1B0B65
:1055A000617830392278303A02EB820201EB420016
:1055B00001F01EFA41EC1C0B53EC1B2B01F070F9AF
:1055C00041EC1A0B53EC192B01F06AF941EC180B62
:1055D00001F034F900EE100ABDEC0C8B10BD000098
:1055E0007B14AE47E17A843F9A9999999999B93F8A
:1055F00010B5FDF769FF01210846FDF705FE00BF64
:10560000FDF7EAFE0028FBD001223B210220FDF736
:105610001DFF0020FDF7D6FE01210220FDF7F4FD5D
:1056200000BF1920FDF7B6FE0128FAD10020FDF7D2
:10563000B9FD0420FDF7CAFD0420FDF7BDFD0120E2
:10564000FDF7CEFD0220FDF76BFF00BFFDF786FFE3
:105650000228FBD10020FDF7C3FD00F001F810BDCA
:105660002DE9F0470026002400250027A046A1468A
:10567000FDF774FF8246BAF1000F06D0BAF1010FB0
:1056800015D0BAF1020F46D115E02D48406DC0F398
:10569000402040B12A48006BC0F3406018B129484F
:1056A0002949086002E029482749086037E027486F
:1056B0002549086033E022484068C0F3004720488D
:1056C0004068C0F383441E484068C0F341750DB97B
:1056D0000F2C03D12801401C044400E0A41C27B96E
:1056E0001B4860431849086014E015484068C0F33F
:1056F000404058B11248406DC0F30136B01C134908
:10570000B1FBF0F060431049086003E00F486043CC
:105710000D49086003E00D480B49086000BF00BF59
:1057200007484068C0F303180A4810F80890064874
:10573000006820FA09F004490860BDE8F08700001D
:1057400000100240006CDC02E801002000127A0028
:1057500000093D006F7100080FB408B504A800905F
:1057600002A8009A0399FEF7D3FD01B05DF814FB7F
:10577000C1628262436923F001035B1C436170478D
:1057800010B50B46072B28D2DFE803F004090E13EF
:10579000181D2200046A62F3000404621EE0046A19
:1057A00062F38204046219E0046A62F3041404627E
:1057B00014E0046A62F3861404620FE0046A62F380
:1057C000082404620AE0046A62F38A24046205E0A1
:1057D000046A62F30C34046200E000BF00BF10BD35
:1057E0000B4633B1022B06D0042B06D0062B08D172
:1057F00005E0426306E0826304E0C26302E0026403
:1058000000E000BF00BF7047026861F3061202604B
:105810007047026861F3000202607047CA43026188
:1058200070470246002013690B400BB1012000E0D5
:1058300000207047012A03D1C3680B43C36003E013
:1058400012B9C3688B43C36070472DE9F04100254E
:105850000026002701F108035C1C92F801C00CFA35
:1058600003FC1FFA8CF592F802C00CFA04FC1FFA34
:105870008CF6D0F804C04FF0010808FA04F82CEABE
:10588000080CC0F804C0D0F804C04CEA060CC0F8FC
:1058900004C0D0F804C04FF0010808FA03F82CEA5D
:1058A000080CC0F804C0D0F804C04CEA050CC0F8DD
:1058B00004C00F4637B1022F0DD0042F14D0062F8D
:1058C00024D11AE092F80080D0F818C068F3061CC2
:1058D000C0F818C01BE092F80080D0F818C068F338
:1058E0000E3CC0F818C012E092F80080D0F81CC03E
:1058F00068F3061CC0F81CC009E092F80080D0F8DC
:105900001CC068F30E3CC0F81CC000E000BF00BF24
:105910004FF0010C0CEB41034FF0030C0CEB410476
:1059200092F803C00CFA03FC1FFA8CF592F804C03D
:105930000CFA04FC1FFA8CF64FF0010808FA04F880
:10594000D0F820C02CEA080CC0F820C0D0F820C045
:105950004CEA060CC0F820C04FF0010C0CFA03FC16
:10596000D0F8208028EA0C08C0F82080D0F820C0A9
:105970004CEA050CC0F820C04B004FF0020C0CEBB9
:10598000410492F805C04FEA41080CFA08FC1FFADE
:105990008CF592F806C04FF0020808EB41080CFAAB
:1059A00008FC1FFA8CF64FF0010808FA04F8D0F84A
:1059B00020C02CEA080CC0F820C0D0F820C04CEA67
:1059C000060CC0F820C04FF0010808FA03F8D0F820
:1059D00020C02CEA080CC0F820C0D0F820C04CEA47
:1059E000050CC0F820C0BDE8F081002101704170B5
:1059F0008170C1700171417181717047426C61F3B6
:105A0000CF324264704700002DE9F04104460F4652
:105A100016460CB9012000E0002050B900BF50200C
:105A200080F31188BFF34F8FBFF36F8F00BF00BFAC
:105A3000FEE700F0F9F91F480068443050F82400F0
:105A400080B901211B4800684830015556B13046E5
:105A5000FEF7C6FD4FF0805017490860BFF34F8F27
:105A6000BFF36F8F00F00AFA00F0DEF932463946D4
:105A70004220FCF74DF90F480068443050F824509C
:105A80006DB137B100210B480068443040F8241054
:105A900005E0681E07490968443141F824000021E7
:105AA000044800684830015500F0E8F92846BDE890
:105AB000F0810000F001002004ED00E000B587B0A7
:105AC00001214FF4A010FDF79FFC01213E48FDF796
:105AD0009BFC01213C480C30FDF796FC05A8FEF725
