:020000040800F2
:10000000983C002025030008790F0008290E0008FD
:10001000750F0008E90A0008A51500080000000097
:100020000000000000000000000000006502000861
:10003000110D000800000000C1020008391300087B
:100040003F0300083F0300083F0300083F03000888
:100050003F0300083F0300083F0300083F03000878
:100060003F0300083F0300083F0300083F03000868
:100070003F0300083F0300083F0300083F03000858
:100080003F0300083F0300083F0300083F03000848
:100090003F0300083F0300083F0300083F03000838
:1000A0003F030008211500083F0300083F03000834
:1000B0003F0300083F0300083F0300083F03000818
:1000C0003F0300083F0300083F0300083F03000808
:1000D0003F030008411500083F0300083F030008E4
:1000E0003F0300083F0300083F0300083F030008E8
:1000F0003F0300083F0300083F0300083F030008D8
:100100003F0300083F0300083F0300083F030008C7
:100110003F0300083F0300083F0300083F030008B7
:100120003F0300083F0300083F0300083F030008A7
:100130003F0300083F0300083F0300083F03000897
:1001400000000000000000000000000000000000AF
:100150003F0300083F0300083F0300083F03000877
:100160003F0300083F0300083F0300083F03000867
:100170003F0300083F0300083F0300083F03000857
:100180003F03000800F002F800F05CF80AA090E8D5
:10019000000C82448344AAF10107DA4501D100F042
:1001A00051F8AFF2090EBAE80F0013F0010F18BFB3
:1001B000FB1A43F0010318476C4C00008C4C000004
:1001C0000A444FF0000C10F8013B13F0070408BF7D
:1001D00010F8014B1D1108BF10F8015B641E05D01B
:1001E00010F8016B641E01F8016BF9D113F0080FD0
:1001F0001EBF10F8014BAD1C0C1B09D16D1E58BF62
:1002000001F801CBFAD505E014F8016B01F8016B98
:100210006D1EF9D59142D6D370470000002300240B
:1002200000250026103A28BF78C1FBD8520728BF06
:1002300030C148BF0B6070471FB504F0E0FC1FBD24
:1002400010B510BD00F05EFA1146FFF7F5FF02F0A1
:100250005FFA00F07CFA03B4FFF7F2FF03BC01F091
:100260005EFB00002C4B19680868B0E8F04F80F383
:100270000988BFF36F8F4FF0000080F3118870473B
:100280000000000008480068006880F308884FF00C
:10029000000080F3148862B661B6BFF34F8FBFF3DE
:1002A0006F8F00DF00BF00BF08ED00E0DFF80C003B
:1002B000016841F470010160704700BF88ED00E003
:1002C000EFF30980BFF36F8F134B1A681EF0100F06
:1002D00008BF20ED108A20E9F04F106009B44FF0FC
:1002E000500080F31188BFF34F8FBFF36F8F03F07F
:1002F0002BFE4FF0000080F3118809BC19680868D4
:10030000B0E8F04F1EF0100F08BFB0EC108A80F379
:100310000988BFF36F8F7047C8010020EFF3058095
:10032000704700000948804709480047FEE7FEE79C
:10033000FEE7FEE7FEE7FEE7FEE7FEE7FEE7FEE795
:1003400004480549054A064B704700006D13000834
:1003500085010008982C0020983C0020983400204B
:100360009834002070470000014902F019B80000DD
:1003700034000020014A00F053B900002C02002094
:1003800030B505460B462A4613F8014B12F8010B0F
:1003900008B1A042F8D01CB1002802D06D1CF1E7D2
:1003A000284630BD40EA0103024630B59B0710D114
:1003B0004FF0013400E008C208C91D1B9D4315EA37
:1003C000C41FF8D013F0FF0102F8011B0DD01B0A67
:1003D000F8E711F8013B002B02F8013B05D011F8BA
:1003E000013B002B02F8013BF3D130BD10B5431C9B
:1003F00002E010F8011B71B18107FAD14FF0013210
:1004000002C88C1A8C4314EAC211F9D0C01A0A0629
:1004100003D0C01E10BDC01A10BD0A0401D0801E3A
:1004200010BD0902FCD0401E10BD40EA010370B5AA
:100430009B072ED14FF00136042A2AD308C810C9D1
:100440009D1B9D43121F15EAC61517D0D8B2E1B205
:10045000401A50EA056110D198B2A1B2401A50EA90
:1004600005410AD123F07F4024F07F41401A50EA31
:10047000052102D1180EA0EB146070BDA342DBD0A1
:1004800018BA21BA884201D9012070BD4FF0FF305F
:1004900070BD0AB9002070BD10F8013B11F8014B86
:1004A00063B1A3420AD1521E08D010F8013B11F8E3
:1004B000014B1BB1A34201D1521EEDD1181B70BDDF
:1004C000032A40F2308010F0030C00F0158011F880
:1004D000013BBCF1020F624498BF11F801CB00F858
:1004E000013B38BF11F8013BA2F1040298BF00F8AC
:1004F00001CB38BF00F8013B11F0030300F0B280DC
:10050000083AC0F0088051F8043B083A51F804CB8F
:10051000A0E80810F5E7121D5CBF51F8043B40F855
:10052000043BAFF30080D20724BF11F8013B11F860
:1005300001CB48BF11F8012B24BF00F8013B00F8A4
:1005400001CB48BF00F8012B70474FF0000200B507
:10055000134694469646203922BFA0E80C50A0E8E6
:100560000C50B1F12001BFF4F7AF090728BFA0E894
:100570000C5048BF0CC05DF804EB890028BF40F860
:10058000042B08BF704748BF20F8022B11F0804FA2
:1005900018BF00F8012B70474FF0013C50F8042BB6
:1005A00051F8043B9A4221D1A2EB0C03934313EA86
:1005B000CC1317D150F8042B51F8043B9A4215D1B3
:1005C000A2EB0C03934313EACC130BD150F8042B8A
:1005D00051F8043B9A4209D1A2EB0C03934313EA6E
:1005E000CC13DBD04FF00000704700BFD01A01BA27
:1005F000B1FA81F101F0180122FA01F0CB40C1F10A
:100600002001DBB2C0B2C01A2CFA01F3D11A914317
:1006100011EAC311E6D170477047704770477047C1
:100620002DE9F04115460E46040002D12C6804B9AC
:100630000BA4204600F058F80444207870B12746F7
:100640003146384600F040F80444207810B10020CC
:1006500004F8010B38462C60BDE8F0810027F9E76B
:100660000000000010B5203AC0F00B80B1E818502F
:10067000203AA0E81850B1E81850A0E81850BFF48C
:10068000F5AF5FEA027C24BFB1E81850A0E818502B
:1006900044BF18C918C0BDE810405FEA827C24BF7F
:1006A00051F8043B40F8043B08BF7047D20728BF0D
:1006B00031F8023B48BF11F8012B28BF20F8023B5C
:1006C00048BF00F8012B704730B503461D781DB1B7
:1006D0000A4603E0AC4201D1181A30BD12F8014BB2
:1006E000002CF7D15B1CF1E730B503461D783DB116
:1006F0000A4612F8014B1CB1AC42FAD15B1CF5E77B
:10070000181A30BD754600F02BF8AE460500694654
:10071000534620F00700854618B020B5FFF710FEBD
:10072000BDE820404FF000064FF000074FF00008F2
:100730004FF0000B21F00701AC46ACE8C009ACE873
:10074000C009ACE8C009ACE8C0098D46704710B5D7
:100750000446AFF300802046BDE81040FFF77BBDA4
:1007600000487047382C002042490988424A91616C
:10077000404989889160E0B33E4949883F4A92697F
:10078000891A3D4A11613B49C9883C4A1269891A54
:10079000394A116011460969394A12681144384AC8
:1007A0001268A1EB9201364A116011460968890866
:1007B00000EE101AB8EE400A3049D1ED070A20EEDB
:1007C000200A2D4981ED050A09682E4A1268114454
:1007D0002C4A1268A1EB92012A4A1160114609685D
:1007E000890800EE101AB8EE400A2449D1ED050A36
:1007F00000E004E020EE200A1F4981ED010A1E49B5
:100800008969214A126811441F4A1268A1EB9201BA
:100810001D4A1160194991ED030A114609688908BA
:1008200000EE901AF8EE600A144991ED021A00EEFB
:10083000810A114981ED070A8968144A1268114436
:10084000124A1268A1EB9201104A11600B4991ED16
:10085000010A11460968890800EE901AF8EE600A4C
:10086000064991ED001A00EE810A034981ED030A61
:1008700070470000380000203002002040000020B7
:1008800080000020880000207C00002084000020E0
:1008900000B589B00121544801F0A6FA012152485F
:1008A000401C01F0A1FA07A801F094FD03208DF887
:1008B0002200C020079007A94C4801F096FD0320B4
:1008C000079007A94A4801F090FD01214FF4A010BC
:1008D00001F08AFA474801F07BFB02A801F03DFBDA
:1008E00045480290454803900020ADF810000420D0
:1008F000ADF8120000208DF8140001208DF81500CD
:100900008DF816008DF817008DF8180000208DF86E
:10091000190002A9374801F02CFB0121354801F0EC
:1009200015FB01213048C01D01F05EFA022001F0E4
:1009300019F9002001F030F801A801F008F80120B1
:100940008DF8040000208DF805008DF806000420C5
:100950008DF8070001A928484C3800F0E2FF012279
:10096000022125484C3801F07FF802230122092199
:1009700021484C3801F024F802231A4608211E4869
:100980004C3801F01DF80223032206211A484C3886
:1009900001F016F802230422072117484C3801F011
:1009A0000FF8012114484C3801F000F801211248D9
:1009B0004C3801F000F810484C3800F0CFFF00BF71
:1009C0000D484C3800F0D0FF0028F9D10A484C38C7
:1009D00000F0D3FF00BF08484C3800F0D4FF0028D7
:1009E000F9D109B000BD0000020018000008014064
:1009F000000C0140080002404C2401403800002057
:100A000010B530480078E8B12F4890ED030A2F4820
:100A1000008800EE900AF8EE600A2B4890ED021A6A
:100A200000EE810A2A4880ED040A01F013FE2848EE
:100A300090ED050A274880ED010A01F033FD2548B5
:100A400080ED270A2148C0881F490969401A00EE35
:100A5000100AB8EEC00A1C48D0ED050A20EE200AA4
:100A60001B4880ED160A483001F0F4FD184890ED5F
:100A7000170A184880ED280A9C3001F013FD15482C
:100A800090ED330A144880ED000A90ED000ADFED86
:100A9000130A20EE200ABCEEC00A10EE100A80B243
:100AA0000F4908600C4890ED000ADFED0E0A20EEB9
:100AB000200ABCEEC00A10EE100A80B208490831C4
:100AC000086010BD12000020400000203800002007
:100AD000D0000020500200206000002000E01545FA
:100AE000342C014000E0954400BFFEE701468248F7
:100AF000C088824A1269801A01EE100AB8EEC11A43
:100B00007E48D0ED051A21EE211AF0EE410A90ED53
:100B1000011A7948808801EE900AF8EE611A774848
:100B200090ED002A01EE821AB0EE410A08780628FC
:100B30002CD2DFE800F003D2BC2C569191ED071ABD
:100B400081ED0A1A91ED021A81ED091A91ED081A48
:100B5000B4EEE01AF1EE10FA06D991ED021AB4EEF5
:100B6000C01AF1EE10FA03DD65480088401C00E071
:100B70000020634A1080104600880A2801DD032007
:100B8000087000205F4A10805F4A1080B1E091ED4C
:100B9000051A81ED0A1A91ED021A81ED091A91EDFB
:100BA000041AB4EEC01AF1EE10FA03D254480088C9
:100BB000401C00E00020524A1080104600880A289D
:100BC00001DD042008704F4A1288C86A904202D2A0
:100BD0000120487008704B480088401C494A10802A
:100BE00087E091ED061A81ED0A1A91ED021A81ED66
:100BF000091A91ED031AB4EEC01AF1EE10FA0AD2F6
:100C000091ED081AB4EEE01AF1EE10FA03DD3C485B
:100C10000088401C00E00020394A108010460088FF
:100C20000A2801DD01200870374A1288086B9042BB
:100C300006D391ED041AB4EEC01AF1EE10FA0ADDF3
:100C4000314A1288086B904201D2022000E0032052
:100C50004870012008704CE091ED071A81ED0A1AE6
:100C600091ED031A81ED091A91ED081AB4EEE01A1C
:100C7000F1EE10FA03DD22480088401C00E000205D
:100C80001F4A10801288486B904201D202200870DF
:100C90001D4A1288086B904203D20420487001203C
:100CA000087019480088401C174A108021E091ED17
:100CB000081A81ED0A1A91ED031A81ED091A91EDD6
:100CC000031ADFED121A21EE211AB4EEC01AF1EE6A
:100CD00010FA01DD002008700BE091ED081A81ED9B
:100CE0000A1A91ED031A81ED091A0020044A1080B6
:100CF00000BF00BF08787047380000204000002087
:100D0000C8000020CA000020CC0000206666663FB4
:100D10007047000070B504460D462A4621460B4830
:100D2000FFF7CEFB00BF8021094802F015FF002825
:100D3000F9D00021074801F009F92946054801F0DA
:100D40000AF90121034801F001F970BD20030020D8
:100D500000380140440002402B480088401C2A49CA
:100D600008802A4840882A490968084428490860B8
:100D70002648C0882749096808442649086022484F
:100D80000088B0F5807F3CD121480068000A2249E4
:100D9000086020480068000A2049086000201A49BD
:100DA00008801B4908601B4908601B4A1268A2F5AD
:100DB0000061002901DB0A4600E04A42502A13DAAA
:100DC000164A1268A2F50060002801DB024600E026
:100DD0004242502A08DA10480068114988610F48D9
:100DE00000680861012070470E4801880088401C97
:100DF0000C4A1080032904DD002011460880401EA3
:100E0000F1E70020EFE70000660000203800002036
:100E10006C0000207000002074000020780000208A
:100E2000400000206800002000BFFEE710B54FF42E
:100E300000410F4801F02DFB28B14FF480410C48D0
:100E400001F027FB90B9642001F018F94FF400413C
:100E5000074801F01EFB08B9012010BD4FF4804186
:100E6000034801F016FB08B90220F6E70020F4E77A
:100E7000000C014010B503460C460120FFF774FC3E
:100E8000012B02D0022B19D100E000BF0D48806970
:100E9000B0F5FA7F11DB0B488069B0F5B26F0CDC5E
:100EA000094801780078401C074A1070A14204DD0F
:100EB0000020114608700549087000BF00BF0348B4
:100EC000007810BD300200208D000020640000205A
:100ED00010B504460B462046FFF746FCB4B1214846
:100EE00001682148006900F2666081420EDD1F48FA
:100EF00001780078401C1D4A107099422EDD0020B8
:100F00001146087004201A49087027E015488069C6
:100F1000B0F5F17F0EDC154801780078401C134ACB
:100F2000107099421ADD0020114608700120104906
:100F3000087013E00B48806940F2A15188420DDD32
:100F40000A4801780078401C084A1070994205DD73
:100F500000201146087002200549087004480078F6
:100F600010BD000030020020400000208C00002056
:100F70006400002000BFFEE7704700002DE9F0414B
:100F800004460D4616460E4F00BF387808B900F0EB
:100F90000BFB00BFEFF311800746202080F3118880
:100FA00000BF00BF32462946204600F00BF88046BD
:100FB000F8B280F3118800BF00BF4046BDE8F08161
:100FC000B80600202DE9F047074688461646C24677
:100FD00007EB47011B4800EBC109D9F8140020B109
:100FE000012811D0022826D11EE0484600F014FB4B
:100FF0000546B54201D2002405E03446324651464A
:10100000484600F060FC18E0484600F005FB054645
:10101000B54201D2284600E03046044622465146F9
:10102000484600F050FC08E032465146484600F081
:101030000FFC044601E0002400BF00BF2046BDE8CD
:10104000F0870000D00600200FB438B5044606A88B
:1010500000906A462046059900F008F805460020F1
:101060000090284638BC5DF814FB00002DE9F04FD5
:101070002DED028B99B082460D46144603A81490BC
:101080004020159000201690CDF860A0179000BF6A
:101090002E786D1C06B926E1252E73D100274FF05E
:1010A000010900BF2E78232E12D02B2E0CD02D2E0E
:1010B00002D0302E10D103E047F001076D1C0EE086
:1010C00047F002076D1C0AE047F004076D1C06E0BC
:1010D00047F008076D1C02E04FF0000900BF00BF99
:1010E000B9F1000FDED14FF0000800BF2E78302E8E
:1010F00001DB392E00DD07E06D1CA6F1300008EBA6
:10110000880100EB4108F1E700BF002013902E7822
:101110002E2E12D16D1C00BF2E78302E01DB392E01
:1011200000DD09E06D1CA6F13000139901EB81018F
:1011300000EB41001390EFE700BF2E7800BF6C2E4C
:1011400001D0682E02D16D1C2E7800E000E0F6E799
:1011500000BF662E7BD00CDC582E3DD004DC252E43
:1011600070D0462E6DD173E0632E0CD0642EF9D171
:1011700015E0702E53D0732E3CD0752E1DD0782ED6
:10118000F0D128E0A7E02168081D2060D1F8009088
:1011900009F0FF0B594614A800F038FB98E02168CD
:1011A000081D2060D1F80090CDE900870A22494649
:1011B00014A8139B00F03EFA8AE02168081D206005
:1011C000D1F80090CDE900870A22494614A8139B64
:1011D00000F0A6FA7CE000BF2168081D2060D1F86D
:1011E0000090CDE900871022494614A8139B00F017
:1011F00097FA6DE02168081D2060D1F800B000BFAB
:101200009BF800600BF1010B06B906E0314614A80B
:1012100000F0FCFA17980028F2DA00BF58E02168C5
:10122000081D2060D1F80090002008210B461022F4
:10123000CDE90010494614A800F072FA48E006E033
:1012400000E044E0252114A800F0E0FA40E000BFEF
:101250002068C01D20F0070001460830206091ED95
:10126000001BB0EE410AF0EE610A51EC100B03F0E6
:101270007BF908EE100ABDEEC80A10EE109ACDE90F
:1012800000870A22494614A8139B00F0D3F92E21A7
:1012900014A800F0BBFA9FED1E0A28EE000ABDEE6E
:1012A000C00A10EE100A002801DB014600E04142AE
:1012B0008946642099FBF0F100FB119902230A2270
:1012C000494614A8CDE9008700F0B4F900E000BF5A
:1012D00000BF6D1C03E0314614A800F097FA179880
:1012E0000028BFF6D5AE00BF179800280ADD169873
:1012F00020B103A95046169AFFF740FEDDE916100B
:1013000008441790179819B0BDEC028BBDE8F08F18
:101310000000C84210B5032001F026FB02F0B4F92A
:1013200000F08EFE00F0D4FB00F0B8FBFFF7B0FA3F
:1013300000F054F810BD000010B500BF502080F33D
:101340001188BFF34F8FBFF36F8F00BF02F0E6FF2E
:1013500018B14FF080500449086000BF002080F3AE
:10136000118800BF10BD000004ED00E018480068BF
:1013700040F47000164908601648006820F001002B
:10138000401C1449086000BF12480068C0F34000C8
:101390000028F9D00F48406820F003000D4948604C
:1013A00000BF0C484068C0F381000028F9D109480B
:1013B0000068094908400749086000204860086340
:1013C0004FF41F008860C8030149803908607047E6
:1013D00088ED00E000100240FFFFF2FE70B58AB019
:1013E00000250024142103A8FFF7AFF803A800F09C
:1013F0002BFC0121454800F0F7FC01214348093846
:1014000000F0F2FC4FF48070089008208DF8260060
:1014100000208DF8240004208DF8250001208DF88F
:10142000270008A93A4800F0E0FF4FF40050089068
:1014300008208DF8260000208DF8240004208DF867
:10144000250001208DF8270008A9324800F0CDFFC3
:10145000059840003049B0FBF1F0401E85B2681E8F
:101460000A21B0FBF1F084B2002229462B4802F099
:10147000CBF90021294802F013FA01A802F001FB80
:1014800007208DF8040000208DF8090001208DF858
:1014900007008DF8050000208DF80A0001208DF866
:1014A000080000208DF8060001AA00211B4802F068
:1014B00018FA22460021194802F0DEF901208DF8C1
:1014C000090001AA0421154802F00BFA264604EB94
:1014D000D67042100421114802F0CEF904200F49C1
:1014E00030310860002201210C4802F0EFF900229F
:1014F0000221192001F0D4F90121084802F0CAFAAA
:101500000121064802F0D1F90AB070BD0B001800A5
:1015100000080140000C0140A0860100002C0140A1
:1015200010B50121054802F0C8F9012805D1FFF7DF
:1015300067FA0121014802F0BDF910BD002C0140FD
:1015400010B52021144802F007FB18B3124802F02E
:10155000FBFAC1B2114802780078401C0F4B18709A
:101560000F48815418460078801E0D49085C0D28EC
:1015700010D118460078401E085C0A280AD10021C4
:1015800018460078801E064A11540020194608703B
:1015900000F0C2FD10BD000000380140BC01002079
:1015A000B605002000BFFEE710B5124C03202061F5
:1015B000606111A0A0611349E1614FF48061216273
:1015C0000021A1626162E1620BA020660E496166A2
:1015D0001021A16600212167E16661670BA1E01D72
:1015E000FEF7E0FE0AA12046FEF7DCFE2020A071F7
:1015F00010BD0000B80600205465726D696E616C04
:101600000000000060070020600B002052545400CE
:10161000534547474552000010B501460A69CB685B
:101620009A4204D88C68641EE41AA01801E0D41A07
:10163000601E10BD2DE9FC5F06460F469246984697
:10164000DDE90C45002F01DA784200E03846834698
:101650004FF0010903E09BFBFAFB09F10109D345B7
:10166000F9DAC84500D9C14634B1002F03DB05F0D3
:101670000400042800D1641E05F0020010B1B8F186
:10168000000F11D005F0010070B96CB108E0641EC4
:101690002021304600F0BAF8F068002800DA02E0B5
:1016A0000CB1A145F3D300BFF068002836DB002F52
:1016B00005DA7F422D21304600F0A8F807E005F05A
:1016C0000400042803D12B21304600F09FF8F06875
:1016D000002823DB05F00200022814D105F00100E8
:1016E00088B9B8F1000F0ED16CB108E0641E30214A
:1016F000304600F08BF8F068002800DA02E00CB108
:10170000A145F3D300BFF068002807DB43465246EB
:1017100039463046CDE9004500F002F8BDE8FC9FAF
:101720002DE9FC5F8046894615461E460C9CCDF887
:1017300004900127BB4605E00198B0FBF5F001904D
:101740000BF1010B0198A842F6D25E4500D9B346D1
:101750000D9800F00100D0B9CCB10D9800F0020056
:10176000022803D116B93020009001E0202000901B
:1017700009E0641E4046009900F048F8D8F80C00D3
:10178000002800DA02E00CB1A345F2D300BFD8F87C
:101790000C00002835DB09E0012E01D9761E04E09B
:1017A000B9FBF7FAAA4500D201E06F43F4E700BFA6
:1017B00000BFB9FBF7FA0AFB1799134810F80A1093
:1017C000404600F023F8D8F80C00002800DA03E0C7
:1017D000B7FBF5F7002FECD100BF0D9800F001002A
:1017E00078B174B109E0641E2021404600F00EF883
:1017F000D8F80C00002800DA02E00CB1A345F2D3BF
:1018000000BFBDE8FC9F0000124C000870B5044604
:101810000E46A568681C6168814206D3206846555B
:10182000681CA060E068401CE060D4E901108842B8
:101830000DD1A26821682069FFF7A0FBA16888424A
:1018400003D04FF0FF30E06001E00020A06070BDE9
:101850002DE9F05F0446894617464FF0000AE56817
:1018600000BFD4F81080A84503D9A8EB0500461E98
:1018700004E0A5EB0800401CA1680E1AA068401BFC
:10188000B04201D9304601E0A068401B0646BE4286
:1018900001D2304600E038460646606800EB050B92
:1018A000324649465846FEF70BFEB244B144BF1BD0
:1018B0003544A068A84200D10025E560002FD0D1B2
:1018C0005046BDE8F09F2DE9F0470446894615468D
:1018D000E668A068871BAF420AD9606800EB060A79
:1018E0002A4649465046FEF7EBFD7019E06014E0C9
:1018F000B846606800EB060A424649465046FEF785
:10190000DFFDA5EB0708D4F804A009EB0701424668
:101910005046FEF7D5FDC4F80C80BDE8F08700BF47
:1019200070470B78426863F3082242604B78826804
:1019300063F3410282608B78826863F3CB2282601A
:10194000CA78521EC36A62F31753C36270470021FC
:101950000170417081700121C1707047816821F070
:10196000080108318160704701468868C0F3C000F3
:1019700008B1012070470020FCE7816821F00401D4
:10198000091D8160704701468868C0F3800008B176
:10199000012070470020FCE70349096860F3134108
:1019A000014A11607047000004240140826861F31D
:1019B000082282607047826861F30002826070478B
:1019C00070B504460A290CDA206901EB41060725A7
:1019D000B540A84301EB410503FA05F52843206112
:1019E0000FE0E068A1F10A0505EB45060725B540C3
:1019F000A843A1F10A0505EB450503FA05F52843BF
:101A0000E0600D2A10DBE06AA2F10D0505EB85060A
:101A10001F25B540A843A2F10D0505EB850501FA88
:101A200005F52843E0621EE0072A0EDB206BD51F78
:101A300005EB85061F25B540A843D51F05EB850599
:101A400001FA05F5284320630DE0606B551E05EB98
:101A500085061F25B540A843551E05EB850501FAEF
:101A600005F52843606370BD07290ADD836823F00C
:101A7000007303F100738360836861F353438360F1
:101A800007E0836823F000738360836861F3534346
:101A90008360836862F31453836070471CB501212F
:101AA000094800F0A1F9684600F094FC00208DF888
:101AB00006004FF44040009018208DF8050069465C
:101AC000024800F092FC1CBD03001800000C01400D
:101AD0001CB501210F4800F087F9684600F07AFC38
:101AE00001208DF8070000208DF8040010208DF8EB
:101AF00006001820009004208DF80500694606486D
:101B000000F073FC082004491031086010200860C0
:101B10001CBD00000200180000080140012802D08E
:101B2000022808D103E00821044A116003E01021D3
:101B3000024A116000BF00BF70470000100801405A
:101B4000012802D0022808D103E00821044A1160CC
:101B500003E01021024A116000BF00BF704700007F
:101B6000140801400649496860F38F31044A516006
:101B700082080349496862F31C71014A5160704749
:101B8000001002400349496860F30711014A51609F
:101B900070470000001002400349496860F30A21C1
:101BA000014A516070470000001002400349496833
:101BB00060F3CD21014A51607047000000100240DF
:101BC000012807D10749496D21F030013031054A1C
:101BD000516505E00349496D21F03001014A516525
:101BE0007047000000100240052827D2DFE800F00F
:101BF000030A11181F00134A126861F30002114B07
:101C00001A601CE00F4A126861F310420D4B1A6013
:101C100015E00C4A126861F318620A4B1A600EE074
:101C2000084A126A61F30002064B1A6207E0054A8D
:101C3000526A61F30002034B5A6200E000BF00BF2A
:101C400070470000001002402DE9F04101460027D6
:101C50000022002590460023002400F06FF906467C
:101C600026B1012E12D0022E43D112E03948406D28
:101C7000C0F3402038B13748006BC0F3406010B16A
:101C80003548086001E03548086035E033480860B1
:101C900032E030484068C0F300482E484068C0F346
:101CA00083422C484068C0F341750DB90F2A03D117
:101CB0002801401C024400E0921CB8F1000F03D13F
:101CC00027485043086013E022484068C0F3404072
:101CD00058B12048406DC0F30137B81CDFF87CC014
:101CE000BCFBF0F05043086002E01C485043086021
:101CF00002E01A48086000BF00BF16484068C0F301
:101D000003131848C45C0868E04048601148406804
:101D1000C0F302231448C45C4868E040C8600D4822
:101D20004068C0F3C2231148C45C4868E040886042
:101D300008484068C0F3007306484068C0F381302B
:101D400040EA83030A48C45C8868B0FBF4F0086189
:101D5000BDE8F08100100240006CDC0200127A0045
:101D600000093D00224C0008324C00083A4C0008A3
:101D7000424C000810B501460020094B03EB11420C
:101D8000126801F01F040123A3401A4001F01F0450
:101D90000123A3409A4200D000E0012010BD0000C2
:101DA000001002400349496D60F30D31014A51654D
:101DB000704700000010024030B50024002500E00C
:101DC000641C1120FFF7D6FF012802D0B4F5405F54
:101DD000F6D31120FFF7CEFF012801D0002500E047
:101DE0000125284630BD000010B501290DD10E4B4C
:101DF00003EB1042126800F01F040123A3401A43B2
:101E0000094C04EB10431A600CE0074B03EB104243
:101E1000126800F01F040123A3409A43024C04EB14
:101E200010431A6010BD00000010024010B568B9E0
:101E30001C4B5B6823F480331A4C636023461B6B96
:101E400023F0007303F10073236317E0154B5B6805
:101E500023F4803303F58033124C6360012805D1ED
:101E600023465B6823F40033636007E00D4B5B6837
:101E700023F4003303F500330A4C6360094B5B68BD
:101E800061F39543074C63600C09064B5B6864F390
:101E90005E73044C636023465B6862F3DF736360C8
:101EA00010BD0000001002401348006820F001003F
:101EB000401C1149086000BF0F480068C0F3400093
:101EC0000028F9D00C48406820F003000A49486017
:101ED00000BF09484068C0F381000028F9D10648D6
:101EE000006806490840044908600020486008630B
:101EF0004FF41F008860704700100240FFFFF2FEA1
:101F00000D49496860F301010B4A516000BF00BFF1
:101F100000BF00BF00BF00BF00BF00BF00BF00BFC9
:101F200000BF00BF00BF00BF00BF00BF00BF00BFB9
:101F300000BF00BF70470000001002400248406828
:101F4000C0F381007047000000100240026861F396
:101F500000020260704741607047002101604160EB
:101F600001814181017341738173C17301744174B3
:101F7000704702684BF6EF731A40026002680B89E3
:101F80001A4302604B7C026863F30D320260CB7B24
:101F9000026863F38B2202608B7B026863F3092281
:101FA00002604B7B026863F3C71202600B7B02681E
:101FB00063F3861202600B7C026863F345120260D1
:101FC0004A8942600A6882604A68C26070470000BD
:101FD0000021026822F001020260002202604260D9
:101FE0008260C260014640F2FF420A40B2F5816F52
:101FF0000DD2CAB2083A1423B2FBF3F293000F22B7
:102000009A400D4B5B681A430B4B5A6012E040F24A
:10201000FF420A40B2F5916F0CD2CAB2083A1423BB
:10202000B2FBF3F293000F229A40044B1B681A4351
:10203000024B1A6070470000000002400404024096
:1020400000B585B014216846FEF77FFA6846FFF7B1
:10205000FBFD07490098B0FBF1F00649086008460F
:1020600000684FF47A7148430349086005B000BD29
:1020700040420F002C00002030000020134A12685C
:1020800042F08072114B1A600022114B5A601A46BE
:10209000126842F001021A601A46516800BF0C4AE9
:1020A0005268531A0B4A126842439342F7D3084AC4
:1020B000126822F00102064B1A6000225A60034A9D
:1020C000126822F08072014B1A607047FCED00E04C
:1020D000001000E03000002038B5044609480068D0
:1020E00023460090084809A102680A4801F080FBD5
:1020F0000848FEF77BF985B229460648FEF70AFE36
:1021000038BD0000B8010020B401002025732573FC
:10211000257300002004002070B50D2265A16948D8
:10212000FEF783F9002870D1674801686548FEF71B
:1021300027F9044604B970BD04F10A0560A12846D8
:10214000FEF718F96149086008460068FEF74EF985
:10215000401E5E49096800220A545DA10020FEF776
:1021600009F95C4908605CA158480068FEF714FA58
:1021700038B9584800680078303840B25A49087079
:1021800089E05AA151480068FEF706FA30B9514873
:10219000006800783038584908707CE057A14B48F7
:1021A0000068FEF7F9F930B94A480068007830381D
:1021B000554908706FE055A144480068FEF7ECF9F6
:1021C00038B94448006801F015FA534880ED1A0AFE
:1021D00061E052A13D480068FEF7DEF938B93D489C
:1021E000006801F007FA4C4880ED010A53E04EA167
:1021F00036480068FEF7D0F940B93648006801F06B
:10220000F9F94C4880ED070A45E050E04AA12F4813
:102210000068FEF7C1F938B92E48006801F0EAF904
:10222000444880ED060A36E046A128480068FEF7DB
:10223000B3F938B92748006801F0DCF93D4880ED72
:10224000050A28E042A121480068FEF7A5F938B93F
:102250002048006801F0CEF9364880ED040A1AE003
:102260003EA11A480068FEF797F938B91948006886
:1022700001F0C0F92F4880ED030A0CE03AA11348A1
:102280000068FEF789F930B91248006801F0B2F928
:10229000284880ED020A0F4803680C4835A10268FF
:1022A000374801F0A5FA3648FFF716FF00BF00BF18
:1022B00041E700002B4D515454535542524543566B
:1022C0003A000000B6050020A8010020AC01002063
:1022D0007D000000B0010020446576696365537796
:1022E0006974636800000000BD0100206D707074A7
:1022F0005F656E61626C6500120000206368617248
:102300006765724D6F64650011000020566F75742B
:102310005F76616C756500005002002056696E5F43
:1023200076616C7565000000666C6F6174696E673C
:102330005F496F00900000206368617267696E6793
:102340005F496F0070726563686172675F496F0013
:102350006375746F66665F566F000000666C6F6130
:1023600074696E675F566F006368617267696E6754
:102370005F566F007B5C2225735C223A25737D00DB
:1023800020050020F0EE400AF5EEC00AF1EE10FA4A
:1023900002D2B1EE600A7047B0EE600AFBE70000BF
:1023A00070B504460D4600BF8021094801F0D4FBFA
:1023B0000028F9D0A1B2064801F0CAFB00BF4021B5
:1023C000034801F0C9FB0028F9D0204670BD000089
:1023D000005000404FF6FF710160002181710171D2
:1023E000042141710121C1717047F0B50A46158879
:1023F000ABB29579032D01D100241AE0957965B926
:10240000557905F00F045579182D01D1036110E0BD
:102410005579282D0DD143610BE0957905F008051C
:10242000167906F004063543D67906F0030645EA28
:102430000604DDB2A5B1002110E001258D401D404C
:102440005DB105688F000F26BE40B5430560056885
:102450008E0004FA06F635430560491C0829ECD3C2
:10246000FF2B15DD1B12002110E001258D401D40C2
:102470005DB145688F000F26BE40B5434560456895
:102480008E0004FA06F635434560491C0829ECD352
:10249000F0BD0246002093680B408B4200D000E064
:1024A0000120704700B590ED000AD0ED010A30EE32
:1024B000600A80ED060AD0ED060AB0EE600AFFF76A
:1024C00061FFD0ED050AB4EEE00AF1EE10FA04D295
:1024D0009FED230A80ED090A13E090ED020AD0ED8A
:1024E000060A20EE200AD0ED030A90ED071A00EE4E
:1024F000C10AD0ED040A90ED081A00EE810A80EDC1
:10250000090A90ED0C0AD0ED090A30EE200A80EDA0
:102510000C0A90ED070A80ED080A90ED060A80ED9E
:10252000070A90ED0C0AD0ED0A0AB4EEE00AF1EECB
:1025300010FA04DD90ED0A0A80ED0C0A0CE090ED33
:102540000C0AD0ED0B0AB4EEE00AF1EE10FA03D259
:1025500090ED0B0A80ED0C0A90ED0C0A00BD000016
:1025600000000000B3EE020A2F4880ED010A9FED43
:102570002F0A80ED020A9FED2D0A80ED030A9FEDE0
:102580002C0A80ED040A9FED2B0A80ED050AB0EEBF
:10259000080A80ED0A0A9FED260A80ED0B0A9FEDDE
:1025A000240A80ED090A9FED240A80ED1A0A9FEDA6
:1025B000230A80ED1C0A9FED220A80ED1D0A9FED83
:1025C0001C0A80ED1E0A9FED1B0A80ED1F0A9FED7D
:1025D0001C0A80ED250A9FED1B0A80ED240A9FED61
:1025E000140A80ED230AB7EE000A80ED270A9FED5A
:1025F000160A80ED290A9FED150A80ED2A0A9FED43
:102600000C0A80ED2B0A9FED120A80ED2C0A9FED3B
:102610000C0A80ED320A9FED0B0A80ED310A9FED26
:10262000040A80ED300A704750020020295C8F3D7B
:10263000000000000AD7233C6666664169916D3D43
:10264000CDCC4C3D6666663FE527553CF4FD543CD9
:102650006F12833A90ED050AD0ED040AB4EE600AD9
:10266000F1EE10FA00D1704790ED020AD0ED040AA5
:1026700020EE200AD0ED030A90ED051A00EE810A43
:1026800080ED050A00BFEEE7D0ED000AF5EEC00AC6
:10269000F1EE10FA06D9D0ED010AF5EEC00AF1EE1E
:1026A00010FA08D8F7EE000AC0ED020ADFED160AAC
:1026B000C0ED030A7047D0ED000A9FED141A60EEDA
:1026C000810AB7EE001A81EE200A90ED011AF7EEAA
:1026D000000A40EE010AB7EE001AC1EE201AC0ED62
:1026E000021AD0ED020AB7EE001A71EE600AC0EDD0
:1026F000030ADFED050AC0ED040ADFED030AC0EDB1
:10270000050A00BFD6E7000000000000DB0FC9404B
:102710001CB5FEF7FFFD0020012103464A02CDE96A
:10272000001004A1064801F009FD01F0BDFB0020E6
:102730001CBD000073746172745F7461736B000080
:102740006935000810B504464D4890ED050A4D481E
:1027500080ED040A4A4890ED0B0A4A4880ED0A0AC7
:10276000FFF778FF47481830FFF774FF454890EDB2
:10277000040AD0ED0A0A20EE200A80ED100A30305B
:10278000FFF768FF3F4890ED110A3F4880ED000ACF
:102790003E480078401CC0B23C490870A0426BD152
:1027A000002008703A4890ED000A3748D0ED000A42
:1027B00030EE600ADFED370AB4EEE00AF1EE10FA0F
:1027C00007DD3548007808B9012000E000203249D3
:1027D00008703148007850B12A4890ED050ADFEDC5
:1027E0002D0A30EE200A2D4880ED000A09E0254828
:1027F00090ED050ADFED270A30EE600A274880EDEC
:10280000000A214890ED000A214880ED000A1E4888
:1028100090ED000AB5EEC00AF1EE10FA07D80120DB
:102820001D490870B2EE080A1C4880ED000A1B48DA
:1028300090ED000AF2EE080AB4EEE00AF1EE10FAAA
:1028400008D2012014490870B2EE080A134880ED3E
:10285000000A11E0114890ED000AF3EE0E0AB4EE02
:10286000E00AF1EE10FA07DD00200B490870B3EE24
:102870000E0A0A4880ED000A084890ED000A10BDD3
:10288000D0000020300100207801002088010020C5
:102890007C010020CDCCCC3D8001002084010020B3
:1028A0002DE9F0470B4614464FF0000C00BF2C4AB0
:1028B0001268C2F302211D4626460A46C2F10709E4
:1028C000B9F1040F02D94FF0040901E0C2F1070980
:1028D000C84602F10409B9F1070F02D24FF000090E
:1028E00001E0A2F103094F464FF0010909FA08F986
:1028F000A9F1010909EA050909FA07F94FF0010AE6
:102900000AFA07FAAAF1010A0AEA060A49EA0A09D2
:10291000CC4601466246002904DB15072E0E114DF8
:102920006E5407E015072F0E0D4D0C3501F00F0604
:10293000361FAF5500BF014600290DDB00BF00BFA9
:1029400001F01F050122AA404D09AD0005F1E02567
:10295000C5F8002100BF00BF00BFBDE8F087000040
:102960000CED00E000E400E000BF00F00702064BC1
:1029700019684FF6FF031940044B0B4343EA022149
:10298000014B196000BF70470CED00E00000FA0534
:102990002DE9F74384B080460C4600259EE0207860
:1029A00025287DD1641C002007460646207800B902
:1029B00098E02078252800D189E020782D2801D1C1
:1029C000641C012702E0641C47F0020720783028CD
:1029D000F9D006E006EB8600460020783038064441
:1029E000641C2078302802DB20783928F2DD20783A
:1029F000732811D1069850F8049B0690B9F1000F86
:102A000001D0484600E03EA001463B4632464046E3
:102A100000F0E5F8054460E0207864280DD16120DD
:102A2000CDE900670290069802C801230A220690A9
:102A3000404600F077F805444FE0207878280DD123
:102A40006120CDE900670290069802C80023102299
:102A50000690404600F066F805443EE0207858288D
:102A60000DD14120CDE900670290069802C80023ED
:102A700010220690404600F055F805442DE02078DD
:102A800075280ED16120CDE900670290069802C832
:102A900000230A220690404600F044F805441CE05A
:102AA00014E02078632817D1069810F8041B0690CC
:102AB000C8B28DF80C0000208DF80D003B46324660
:102AC00003A9404600F08BF8054406E000BF2178DA
:102AD000404600F019F86D1C00BF641C20780028E7
:102AE0007FF45DAF00BFB8F1000F03D00020D8F82D
:102AF0000010087000200690284607B0BDE8F0835B
:102B0000286E756C6C29000070B504460D462CB11A
:102B100021680D702068401C206002E02846FDF707
:102B200023FC70BD2DE9FF4F85B00C4616469A4632
:102B3000DDF84880002001908346274674B9302094
:102B40008DF8080000208DF80900424602A9139B69
:102B5000059800F044F809B0BDE8F08FBAF1000F15
:102B600006D00A2E04D1002C02DA0120019067421F
:102B70000DF113050020287011E0B7FBF6F006FBFD
:102B80001079B9F10A0F02DB14983A38814409F13F
:102B90003000C1B2681E05460170B7FBF6F7002F82
:102BA000EBD1019898B1B8F1000F0CD0139800F058
:102BB000020040B12D210598FFF7A6FF0BF1010B94
:102BC000A8F1010803E02D21681E05460170424668
:102BD0002946139B059800F002F85844BBE72DE9FD
:102BE000F04780460D4614461F4600264FF0200948
:102BF000002C12DD0020294601E0401C491C0A7807
:102C0000002AFAD1A04201DB002400E0241A07F0D8
:102C100002020AB14FF0300900BF07F0010040B9CD
:102C200005E049464046FFF76FFF761C641E002C06
:102C3000F7DC05E029784046FFF766FF761C6D1C3F
:102C400028780028F6D105E049464046FFF75CFFAA
:102C5000761C641E002CF7DC3046BDE8F0870000CF
:102C60002DE9F04105460E461C4807681C480068DF
:102C7000001D00F079FF50B91948006890F82C1039
:102C80000120884017490968814316480160681C83
:102C900038B936B112480168091D134800F0A2FF87
:102CA0001AE07C190E4800684460BC4207D20C4808
:102CB0000168091D0D48006800F07AFF0CE0084823
:102CC0000168091D0A48006800F072FF09480068A1
:102CD000844201D207480460BDE8F081DC01002095
:102CE000C8010020E0010020240C0020D0010020B9
:102CF000CC010020F801002010B5044600F07EFF52
:102D000023480068401C224908602248006840B9F6
:102D1000204804600846006801280DD100F01EF923
:102D20000AE01D48006838B91A480068C06AE16ABC
:102D3000884201D81748046018480068401C1749A9
:102D4000086094F82C100120884015490968084350
:102D500013490860E16A01EB8101124A02EB81002C
:102D6000211D00F03FFF00F073FF0B48006868B1C1
:102D700008480068C06AE16A884207D24FF0805074
:102D800009490860BFF34F8FBFF36F8F10BD00007C
:102D9000D8010020C8010020E4010020F401002037
:102DA000E0010020700B002004ED00E010B516E0FB
:102DB00000F024FF0C48C068C468201D00F0D4FE59
:102DC0000A480068401E0949086009480068401E1A
:102DD0000749086000F03CFF204600F00BF804486B
:102DE00000680028E4D110BD100C0020D80100209C
:102DF000D401002010B50446206B00F047FF2046A8
:102E000000F044FF10BD000030B54FF400531748E8
:102E100000F007042CB1C01D20F00700134C041B68
:102E20001B1B0246124C22600024114D6C60D0180E
:102E3000083820F007000F4C206000240D4D2D684D
:102E40006C600C4D2D682C601146441A4C60094C86
:102E500024680C60084D4C682C60084D4C682C6050
:102E60004FF00044064D2C6030BD0000380C0020AF
:102E70000C020020140200201C0200201802002076
:102E80002802002000BFFFF791FF064800680128D4
:102E9000F9D94FF0805004490860BFF34F8FBFF35A
:102EA0006F8FF0E7700B002004ED00E02DE9FF5F6D
:102EB00081460E469246DDE90E7B109CAAF1010088
:102EC000216B01EB800828F0070808F0070008B91B
:102ED000012000E0002050B900BF502080F311888D
:102EE000BFF34F8FBFF36F8F00BF00BFFEE786B108
:102EF000002507E0715D04F134004155705D00B9B3
:102F000002E06D1C102DF5D300BF002143200155B8
:102F100002E0002084F83400052F00D30427E76284
:102F2000201D00F042FE04F1180000F03EFE246176
:102F3000C7F10500A06164620020606484F8480065
:102F400049464046039A00F05FF92060BBF1000F4C
:102F500001D0CBF80040BDE8FF9F000010B5002471
:102F600007E004EB84010F4A02EB810000F010FE41
:102F7000641C052CF5D30C4800F00AFE0B4800F049
:102F800007FE0B4800F004FE0A4800F001FE0A4864
:102F900000F0FEFD0448094908600448084908603B
:102FA00010BD0000700B0020D40B0020E80B0020A7
:102FB000FC0B0020100C0020240C0020CC01002071
:102FC000D001002010B50146164800E000680368F3
:102FD0008B42FBD30246436813448B4204D14368BF
:102FE0004C682344436001460A464B681344046816
:102FF000A34211D10C4C03682468A34208D04B684B
:103000000468646823444B6003681B680B6005E038
:10301000054B1B680B6001E003680B60884200D021
:10302000016010BD0C020020140200200948006855
:10303000006808B9012000E0002020B14FF0FF3007
:103040000549086005E003480068C0680068024957
:1030500008607047CC010020F80100200E4800688D
:10306000401C08B9012000E0002050B900BF5020EA
:1030700080F31188BFF34F8FBFF36F8F00BF00BF86
:10308000FEE700BF502080F31188BFF34F8FBFF3DE
:103090006F8F00BF00BFFEE71C0000202DE9F0414C
:1030A00004464FF0000800F047FF5148006808B997
:1030B000FFF7AAFE4F480068204000287ED13CB3AD
:1030C00004F10800A04223D9083404F0070000B33B
:1030D00004F00700C0F108002044A04216D904F013
:1030E0000700C0F10800044404F0070008B90120FB
:1030F00000E0002068B900BF502080F31188BFF3C2
:103100004F8FBFF36F8F00BF00BFFEE7002400E0CA
:103110000024002C54D038480068844250D8374EE0
:103120003046056801E02E462D686868A04202D24C
:1031300028680028F7D12E480068854240D03068C2
:1031400000F10808286830606868001B102819D949
:103150002F1907F0070008B9012000E0002050B93E
:1031600000BF502080F31188BFF34F8FBFF36F8FE4
:1031700000BF00BFFEE76868001B78606C603846DF
:10318000FFF720FF1C4968680968081A1A49086097
:10319000084600681A490968884203D21648006840
:1031A0001749086013496868096808436860002087
:1031B000286014480068401C124900E000E00860E4
:1031C00001F050F908F0070008B9012000E00020E4
:1031D00050B900BF502080F31188BFF34F8FBFF369
:1031E0006F8F00BF00BFFEE74046BDE8F0810000E2
:1031F0001402002028020020180200200C020020E7
:103200001C02002020020020001F4FF0807303608A
:10321000001F21F001030360001F054B03601438F9
:103220000260001F6FF00203036020387047000047
:103230005D30000808B50024621E0021084600F039
:103240002FFC4CE00120FEF77BFC0220FEF766FC21
:1032500000220121224800F039FB002211462048BB
:1032600000F0DAFA002201211D4800F0D5FA1D48CD
:10327000007830B103211B480078FDF7FBFD00B951
:103280000124FDF7D3FD022804D01CB916480078AC
:10329000012821D1FF20144908700120134908702A
:1032A000002400200F49087011494870EF200C4994
:1032B0003431086077200A493C310860002002233D
:1032C0000246014600900B48006800F067FF621E4E
:1032D0000021084600F0E4FB642000F03DFDB1E76A
:1032E000002C014064000020BD01002010000020DF
:1032F000900000200400002008B50025642000F0A4
:103300002BFD07E040480078012803D1FF203E490B
:10331000087003E0FDF78AFD0228F3D100BF012009
:103320003A4908706EE0FDF717FD05463C21002084
:10333000FDF7CEFD80B1002034490870022302461B
:10334000014600903248006800F028FF4FF0FF323D
:103350000021084600F0A4FB012D3AD1002408E02A
:1033600004EB44012B4A02EBC100FFF78DF9601C0E
:10337000C4B2042CF4DB002408E004EB4401264A28
:1033800002EBC100FFF780F9601CC4B2032CF4DB30
:10339000FFF7E8F801220021204800F03DFA012261
:1033A00011461E4800F038FA012211461B4800F071
:1033B0008DFA00200223024601460090184800685A
:1033C00000F0ECFE4FF0FF320021084600F068FBF1
:1033D00015E0681C98B906201249087000200B49B6
:1033E000087002230246014600900948006800F078
:1033F000D5FE4FF0FF320021084600F051FB0520BA
:1034000000F0AAFC8FE70000BD01002010000020A2
:1034100008000020D000002030010020002C0140D6
:103420000C000020640000202DED028B82B04FF0D4
:10343000FF320021084600F033FB80E00220FEF757
:103440007FFB0120FEF76AFB03210120FDF740FD11
:1034500080B100203A4908700223024601460090DC
:103460003848006800F09AFE4FF0FF32002108460D
:1034700000F016FB3448007868B10120FFF762F9CC
:10348000324880ED000A90ED000ABCEEC00A10EE52
:10349000100A2F4908702F48007810B32E48FDF706
:1034A00025FB012811D1002025490870022302467E
:1034B000014600902348006800F070FE4FF0FF3294
:1034C0000021084600F0ECFA0BE0234890ED090AD1
:1034D0001E4880ED1A0A204890ED0A0A1B4880ED2C
:1034E000270A1A4890ED270A10EE101A084601F034
:1034F00015FB41EC180B53EC182B18A10020FDF71D
:10350000A3FD1848007818B1FDF790FC012813D1ED
:10351000FF20144908700020094908700223024660
:10352000014600900748006800F038FE4FF0FF3277
:103530000021084600F0B4FA642000F00DFC7DE79D
:10354000100000200800002012000020500200207F
:1035500013000020110000209000002025660D0AB5
:1035600000000000BD0100201CB5044600F046FB31
:103570001148032100236422CDE900100FA1124855
:1035800000F0DCFD1148022100236422CDE9001087
:103590000FA1124800F0D2FD11480121002364223E
:1035A000CDE900100FA1124800F0C8FD002000F086
:1035B00001FC00F04DFB1CBD04000020496E697445
:1035C0005F7461736B000000F9320008080000208E
:1035D0004661756C745F7461736B0000353200086E
:1035E0000C00002052756E5F7461736B0000000068
:1035F0002934000810B52DED0C8B04462179A1F17A
:10360000300001F08BF841EC1B0B9FED1B0B53ECD2
:10361000102B01F09BF841EC190BE178A1F130007F
:1036200001F07CF841EC1D0B9FED150B53EC102BBA
:1036300001F08CF841EC1B0B617830392278303A7C
:1036400002EB820201EB420001F068F841EC1C0B36
:1036500053EC1B2B00F0BAFF41EC1A0B53EC192B67
:1036600000F0B4FF41EC180B00F07EFF00EE100AF2
:10367000BDEC0C8B10BD00007B14AE47E17A843F9B
:103680009A9999999999B93F10B5FEF70DFC0121C6
:103690000846FEF7A9FA00BFFEF78EFB0028FBD014
:1036A00001223B210220FEF7C1FB0020FEF77AFB3E
:1036B00001210220FEF798FA00BF1920FEF75AFBFD
:1036C0000128FAD10020FEF75DFA0420FEF76EFA19
:1036D0000420FEF761FA0120FEF772FA0220FEF7DD
:1036E0000FFC00BFFEF72AFC0228FBD10020FEF7EA
:1036F00067FA00F001F810BD2DE9F047002600241C
:1037000000250027A046A146FEF718FC8246BAF124
:10371000000F06D0BAF1010F15D0BAF1020F46D151
:1037200015E02D48406DC0F3402040B12A48006BA1
:10373000C0F3406018B129482949086002E02948CF
:103740002749086037E027482549086033E02248C8
:103750004068C0F3004720484068C0F383441E48D7
:103760004068C0F341750DB90F2C03D12801401CEE
:10377000044400E0A41C27B91B48604318490860B2
:1037800014E015484068C0F3404058B11248406DFD
:10379000C0F30136B01C1349B1FBF0F0604310498F
:1037A000086003E00F4860430D49086003E00D48DE
:1037B0000B49086000BF00BF07484068C0F303180A
:1037C0000A4810F808900648006820FA09F00449F1
:1037D0000860BDE8F087000000100240006CDC02C9
:1037E000C001002000127A0000093D004A4C000888
:1037F0000FB408B504A8009002A8009A0399FFF737
:10380000C7F801B05DF814FBC1628262436923F01E
:1038100001035B1C4361704710B50B46072B28D290
:10382000DFE803F004090E13181D2200046A62F396
:10383000000404621EE0046A62F38204046219E078
:10384000046A62F30414046214E0046A62F38614E6
:1038500004620FE0046A62F3082404620AE0046A66
:1038600062F38A24046205E0046A62F30C340462A1
:1038700000E000BF00BF10BD0B4633B1022B06D0E5
:10388000042B06D0062B08D105E0426306E08263D4
:1038900004E0C26302E0026400E000BF00BF7047C2
:1038A000026861F3061202607047026861F3000269
:1038B00002607047CA4302617047024600201369E4
:1038C0000B400BB1012000E000207047012A03D11A
:1038D000C3680B43C36003E012B9C3688B43C36082
:1038E00070472DE9F04100250026002701F108036B
:1038F0005C1C92F801C00CFA03FC1FFA8CF592F8DC
:1039000002C00CFA04FC1FFA8CF6D0F804C04FF089
:10391000010808FA04F82CEA080CC0F804C0D0F832
:1039200004C04CEA060CC0F804C0D0F804C04FF044
:10393000010808FA03F82CEA080CC0F804C0D0F813
:1039400004C04CEA050CC0F804C00F4637B1022F82
:103950000DD0042F14D0062F24D11AE092F8008045
:10396000D0F818C068F3061CC0F818C01BE092F825
:103970000080D0F818C068F30E3CC0F818C012E000
:1039800092F80080D0F81CC068F3061CC0F81CC078
:1039900009E092F80080D0F81CC068F30E3CC0F833
:1039A0001CC000E000BF00BF4FF0010C0CEB410356
:1039B0004FF0030C0CEB410492F803C00CFA03FC2B
:1039C0001FFA8CF592F804C00CFA04FC1FFA8CF66E
:1039D0004FF0010808FA04F8D0F820C02CEA080CCF
:1039E000C0F820C0D0F820C04CEA060CC0F820C0B7
:1039F0004FF0010C0CFA03FCD0F8208028EA0C08E8
:103A0000C0F82080D0F820C04CEA050CC0F820C0D7
:103A10004B004FF0020C0CEB410492F805C04FEA4A
:103A200041080CFA08FC1FFA8CF592F806C04FF01A
:103A3000020808EB41080CFA08FC1FFA8CF64FF05C
:103A4000010808FA04F8D0F820C02CEA080CC0F8E5
:103A500020C0D0F820C04CEA060CC0F820C04FF0BF
:103A6000010808FA03F8D0F820C02CEA080CC0F8C6
:103A700020C0D0F820C04CEA050CC0F820C0BDE83A
:103A8000F0810021017041708170C170017141713C
:103A900081717047426C61F3CF324264704700001D
:103AA0002DE9F04104460F4616460CB9012000E00E
:103AB000002050B900BF502080F31188BFF34F8F12
:103AC000BFF36F8F00BF00BFFEE700F097F81C4800
:103AD0000068443050F8240080B90121184800687B
:103AE0004830015556B13046FFF7BAF84FF08050D4
:103AF00014490860BFF34F8FBFF36F8F00F0A8F831
:103B000000F07CF80E480068443050F824506DB145
:103B100037B100210A480068443040F8241005E01D
:103B2000681E07490968443141F82400002104480F
:103B300000684830015500F08BF82846BDE8F08158
:103B4000C801002004ED00E00146486880B27047DB
:103B5000C1F308024260704702461068084008B18D
:103B6000012070470020FCE701460A69D1E90130D5
:103B70009860D1E9010358605068884201D1886893
:103B80005060002008611068401E10601068704787
:103B900000F1080141604FF0FF31816000F1080140
:103BA000C16001610021016070470021016170471F
:103BB00010B502460B685C1C0CB9106907E002F1F5
:103BC000080000E04068446824689C42FAD94468D0
:103BD0004C604C68A160886041600A611468641C94
:103BE000146010BD42684A6093688B6093685960A6
:103BF0009160086103685B1C0360704700BF502040
:103C000080F31188BFF34F8FBFF36F8F00BF0E4853
:103C10000068401C0C49086008460068012812D161
:103C20000A480068C0B208B9012000E0002050B97D
:103C300000BF502080F31188BFF34F8FBFF36F8F09
:103C400000BF00BFFEE770471C00002004ED00E04D
:103C50000D48006850B900BF502080F31188BFF3B1
:103C60004F8FBFF36F8F00BF00BFFEE706480068AD
:103C7000401E054908600846006820B9002080F30E
:103C8000118800BF00BF70471C00002070B50646B9
:103C90003546002E44D0083D2C462249606809680C
:103CA000084008B1012000E0002050B900BF5020BA
:103CB00080F31188BFF34F8FBFF36F8F00BF00BF3A
:103CC000FEE7206808B9012000E0002050B900BFDD
:103CD000502080F31188BFF34F8FBFF36F8F00BF69
:103CE00000BFFEE70F49606809680840C0B120685E
:103CF000B0B90C49606809688843606000F01CF93D
:103D00000949606809680844074908602046FFF7C8
:103D100059F906480068401C0449086000F0A2FBFD
:103D200070BD00002802002018020020240200209C
:103D300000204FF0E02108618861064800684FF4D8
:103D40007A71B0FBF1F0401E4FF0E021486107208E
:103D5000086170471800002070B504460025D4B1F2
:103D60001248006808B9012000E0002050B900BFE7
:103D7000502080F31188BFF34F8FBFF36F8F00BFC8
:103D800000BFFEE700F0D8F800212046FEF768FFEC
:103D900000F068FB05463DB94FF0805004490860CB
:103DA000BFF34F8FBFF36F8F70BD00000402002080
:103DB00004ED00E070B50546FFF720FF15B9304867
:103DC000006800E028460446201DFFF7CDFE78B9C4
:103DD000E06A00EB80002B4951F8200040B994F8CC
:103DE0002C10012088402849096881432648016039
:103DF000A06A18B104F11800FFF7B6FE2348006866
:103E0000401C224908601E480068844209D1211DD7
:103E10001F48FFF7E7FE1F480068401C1D49086067
:103E200009E01D480068401E1B4908602046FEF757
:103E3000E1FFFFF7FBF8FFF70BFF18480068E8B158
:103E40000F480068844219D11548006808B901205C
:103E500000E0002050B900BF502080F31188BFF36C
:103E60004F8FBFF36F8F00BF00BFFEE74FF0805052
:103E70000C490860BFF34F8FBFF36F8F70BD000018
:103E8000C8010020700B0020E0010020F401002098
:103E9000100C0020D4010020D8010020E4010020F3
:103EA0000402002004ED00E01CB51B4800210B4675
:103EB0008022CDE9001019A11A4800F03FF904460C
:103EC000012C15D100BF502080F31188BFF34F8F14
:103ED000BFF36F8F00BF4FF0FF3013490860012020
:103EE0001249086000201249086000F073F810E0E1
:103EF000601C08B1012000E0002050B900BF502034
:103F000080F31188BFF34F8FBFF36F8F00BF00BFE7
:103F1000FEE7084800681CBDFC01002049444C45F0
:103F200000000000852E0008F8010020E4010020B8
:103F3000DC0100200002002002480068401C01490A
:103F400008607047040200201D48006818B1012075
:103F50001C49086032E000201A4908601A480068CD
:103F6000B0FA80F0C0F11F0101EB8100174A52F84E
:103F7000200008B1012000E0002050B900BF50200F
:103F800080F31188BFF34F8FBFF36F8F00BF00BF67
:103F9000FEE701EB81020D4B03EB820042685268A1
:103FA000426000F108024368934202D142685268BD
:103FB00042604268D268064B1A6000BF704700003A
:103FC00004020020EC010020E0010020700B002022
:103FD000C80100201CB5524800685249884201D0EF
:103FE000012000E0002050B900BF502080F311886C
:103FF000BFF34F8FBFF36F8F00BF00BFFEE748488E
:1040000000684849491E884201D0012000E0002094
:1040100050B900BF502080F31188BFF34F8FBFF31A
:104020006F8F00BF00BFFEE73F4908460078019050
:10403000FF200A4610700846007800909DF80000A6
:1040400000F0F0009DF80020904201D1012000E036
:10405000002050B900BF502080F31188BFF34F8F6C
:10406000BFF36F8F00BF00BFFEE79DF8000000F0B8
:1040700050002E4A107007202D4A106009E02C488D
:104080000068401E2A4A10609DF800004006000E9D
:1040900000909DF8000000F080008028EFD02448B8
:1040A0000068C0F10700042801D1012000E00020D1
:1040B00050B900BF502080F31188BFF34F8FBFF37A
:1040C0006F8F00BF00BFFEE7194800680002184A62
:1040D00010601046008800F4E0601060124A0198F9
:1040E00010700F482030006840F470000C492031F7
:1040F00008600846006840F070400860FFF718FE4E
:1041000000200C490860FCF7D1F80B48006840F02B
:10411000404009490860FCF7B5F800201CBD0000CC
:1041200000ED00E071C20F4100E400E0200000203B
:10413000240000201C00002034EF00E02DE9FF4F98
:1041400085B0804689461746DDE912ABB800FEF718
:10415000A5FF064656B14C20FEF7A0FF04460CB161
:10416000266304E03046FFF791FD00E000247CB1B7
:104170000020CDE900ABCDE902403A464946404631
:10418000089BFEF793FE2046FEF7B6FD012501E0F1
:104190004FF0FF35284609B0BDE8F08F2DE9F05FFC
:1041A00007460D4616469846DDF828A04FF0010B4D
:1041B0000DB9012000E0002050B900BF502080F36D
:1041C0001188BFF34F8FBFF36F8F00BF00BFFEE7B3
:1041D00057B900BF502080F31188BFF34F8FBFF352
:1041E0006F8F00BF00BFFEE73C46FFF707FDBAF147
:1041F000000F05D004F1440050F82500CAF8000073
:1042000004F1480010F8059002214155B8F1050F5E
:1042100029D2DFE808F027030D171C0004F1440041
:1042200050F82500304304F1440141F825002DE009
:1042300004F1440050F82500401C04F1440141F809
:10424000250023E004F1440040F825601EE0B9F1A8
:10425000020F04D004F1440040F8256001E04FF063
:10426000000B13E012E02848006808B9012000E0C4
:10427000002050B900BF502080F31188BFF34F8F4A
:10428000BFF36F8F00BF00BFFEE700BF00BFB9F1F3
:10429000010F33D1201DFFF767FC94F82C1001208B
:1042A00088401A490968084318490860E16A01EB27
:1042B0008101174A02EB8100211DFFF793FCA06AE0
:1042C00008B9012000E0002050B900BF502080F361
:1042D0001188BFF34F8FBFF36F8F00BF00BFFEE7A2
:1042E0000C49E06A0968C96A884207D94FF08050D2
:1042F00009490860BFF34F8FBFF36F8FFFF7A8FC2A
:104300005846BDE8F09F0000DC010020E0010020DD
:10431000700B0020C801002004ED00E02DE9F04101
:104320004FF000084448006800287CD143480068EA
:10433000451C4248056015BB41480068006808B943
:10434000012000E0002050B900BF502080F3118808
:10435000BFF34F8FBFF36F8F00BF00BFFEE738483A
:1043600007683848006836490860364807603648AC
:104370000068401C34490860FEF758FE00BF33480F
:10438000006885423CD300BF2D480068006808B92A
:10439000012000E0002020B14FF0FF302B490860E1
:1043A0002DE027480068C068C4686668B54202D23C
:1043B0002648066023E0201DFFF7D6FBA06A18B14F
:1043C00004F11800FFF7D0FB94F82C10012088406E
:1043D0001F49096808431E490860E16A01EB810131
:1043E0001C4A02EB8100211DFFF7FCFB1A49E06A21
:1043F0000968C96A8842C7D34FF00108C4E700BF03
:1044000015480068C06A00EB8000124951F820008E
:10441000012801D94FF001081048006808B14FF099
:10442000010805E0FFE70E480068401C0C490860E1
:104430004046BDE8F081000004020020DC010020BD
:10444000CC010020D0010020F0010020F801002064
:10445000E0010020700B0020C8010020EC010020CA
:10446000E801002070B5002400263648006850B9E5
:1044700000BF502080F31188BFF34F8FBFF36F8FC1
:1044800000BF00BFFEE7FFF7B9FB2E480068401EE3
:104490002C4908600846006800284FD12A48006867
:1044A00000284BD024E02948C068C46804F11800F3
:1044B000FFF75AFB201DFFF757FB94F82C10012043
:1044C000884023490968084321490860E16A01EBF3
:1044D0008101204A02EB8100211DFFF783FB1E4969
:1044E000E06A0968C96A884202D301201B49086052
:1044F0001648006808B9012000E000200028D2D04A
:104500000CB1FEF793FD1648056865B100BFFFF7D3
:1045100005FF10B10120114908606D1E002DF6D174
:1045200000200F4908600D48006838B101263007A7
:104530000C490860BFF34F8FBFF36F8FFFF788FB05
:10454000304670BD04020020D8010020FC0B002082
:10455000E0010020700B0020C8010020EC010020C9
:10456000E801002004ED00E021F00042A2F16052D9
:10457000B2F5801F01F0004328BFD2F17F6C0BD948
:104580005FEA001C43EAC20242EB507018BF70475A
:1045900028BF20F001007047B2F5801FBCBF18464D
:1045A00070474FEA410C1CF5001F02D2084600F08C
:1045B0002BBB70B500F074F900000089FFF7F6BF5F
:1045C0004FF00040A0F580007047000010B591EA60
:1045D000030F48BF83F0004300F1BE81841A71EBE2
:1045E000030C05D2121943EB0C03001B61EB0C0109
:1045F000DFF824E14FEA1154A4EB135C1EEA430FE9
:1046000018BF9EEA445F73D023EA0E03DCF1200E4C
:1046100021EA045143F4801332D322FA0CFE10EB4A
:104620000E0023FA0CFE41EB0E01CCF1200E03FA32
:104630000EFE10EB0E0051F10001B1F5801FCCF120
:10464000200E32D201EB045112FA0EF2BDE81040F6
:1046500058BF7047401C38BF5FEA420218BF70471E
:10466000002814BF20F0010041F100014FEA41038E
:1046700013F5001F38BF7047A1F1C04100F05EB9CB
:10468000012A43EB0302ACF1200CDCF11F0E32BF18
:104690004FF0000E23FA0CF310EB030041EB045132
:1046A000B4EB115FD0D0A1EB045101F580114908A2
:1046B0005FEA300001EB04510ED350F1000038BF27
:1046C00012FA0EFE08D1BDE81040C9E7401C38BF01
:1046D0005FEA4202CAD1C3E7BDE810404FEA410396
:1046E00013F5001F38BF7047A1F1C04100F026B993
:1046F0009EEA445F08D011EA5E0FBDE8104004BF97
:1047000001F0004100207047BDE8104070B500F096
:10471000C7F800BF64FBBE3E0000E0FF10F000429F
:1047200048BF4042B0FA80F310FA03F10AD0C3F157
:104730001D0303F580634FEA415002EB035202EB85
:10474000D12170474FF0000070470000DFF848C1EA
:1047500070B51CEA111E1EBF1CEA13159EEA0C0F51
:1047600095EA0C0F00F06F8081EA030423EA4C13F2
:104770004EEAD47E21EA4C1141F4801143F48013B7
:10478000AE44A1FB024CA0FB0365AEF17F7E36195F
:1047900055EB0C05A1FB034C4CF10003A0FB021CE4
:1047A00016EB0C06654153F10003094218BF46F0B1
:1047B000010613F4007F0BD14FEA03314FEA0530B5
:1047C000340341EA155140EA16506FF003020AE043
:1047D0004FEAC3214FEAC520F40241EA555140EAAD
:1047E00056506FF0020202EB2E4201EB025585EAB1
:1047F000CE710AD05FEA440C18BF24F0004450F197
:10480000000041F1000120EAD47040F2FE7C6245D4
:1048100000D270BDA84214BF4FF080444FF0404416
:10482000002E08BF0024BEF1806FA8BFA1F1C041D7
:10483000BDE8704080F282804FF0000001F1C0417D
:1048400001F0004170479EEA0C0F0CEA131518BFE7
:1048500095EA0C0F06D04FF0000081EA030E0EF02F
:10486000004170BD00F01CF88900013E00F007B85F
:1048700000F009B84FEA430C5FEA5C5C08D081EABB
:10488000030100F05BB84FEA410C5FEA5C5CF6D1D3
:104890004FF00000014970470000FF070000F87F5B
:1048A0000EF1020E2EF0030E5EF8046B364205D4B4
:1048B000012A43EB030515F5001F12D8012841EB2F
:1048C000010C1CF5001F0CD80ED14FEAD17C15F558
:1048D000001F0CEB4C0C0CF1020C08BF4CEBD37C12
:1048E00004E04FF0080C01E04FEAD37C0CEB4C05E0
:1048F00026FA05F606F00706B6F1040C06D20EEB12
:10490000860CBDE870404CF0010C6047DFE80CF00D
:10491000090B02024FF000414FF00000A1F5002109
:1049200070BD19461046012851EB010418BFD4F59B
:10493000001484BF002001F0004170BD0808A0F5FC
:1049400000114FEA3101704710B591EA030F48BFDB
:1049500083F000433FF542AE841A71EB030C07D29B
:1049600012198CF0004C43EB0C03001B61EB0C01A3
:10497000DFF8A4E14FEA1154A4EB135C1EEA430FE5
:1049800018BF9EEA445F00F0B08023EA6E035242F3
:1049900021EA0451C3EB6E0338BF5B1EDCF1200E2D
:1049A00025D322FA0CFE10EB0E0043FA0CFE41EB6D
:1049B0000E01CCF1200E03FA0EFE10EB0E0051F1A9
:1049C0000001CCF1200E29D412FA0EF201EB0451B1
:1049D000BDE8104058BF7047401C1CBFB2F1004FEB
:1049E000704700280CBF491C20F00100704712EBF3
:1049F000020E43EB030218BF4FF0010E4EEA4202D3
:104A0000ACF1200CDCF11E0E54D943FA0CFE10EB75
:104A10000E0051F1FF31CCF11E0ED5D50EF1010E75
:104A200012FA0EFE404141EB010101EB445C5FEAEA
:104A30005C5C10D910EBDE7001EB045138BFBEF1A5
:104A4000004FBDE8104018BF704700280CBF491C3C
:104A500020F00100704730D24FEAD42C11F500113C
:104A600024F400641BD0B1FA81F20B3AA41AA41EFC
:104A7000D2F12003914030FA03F31943904001EB47
:104A8000CC71002C01EB0451BDE81040A8BF704769
:104A900001F1C0414FF0000001F000417047B0FA51
:104AA00080F310FA03F100D110BDE41A173C480559
:104AB000C90AE4E701EB045110BD491001EB0451B0
:104AC000BDE810404FEA300002E04FF000017047AF
:104AD0004A0008BF0042F8D0B2F5001F28BF704757
:104AE00001F000414FF0000070479EEA445F07D09C
:104AF00011EA5E0FBDE8104004BF0021002070479E
:104B0000BDE8104070B5FFF7CBFE00BF40DFF63EBA
:104B100083F00041104670470000E0FF43004FEA79
:104B2000D30C4FEA3C0C43401FBF40070CF16051CF
:104B300013F0FE4F70471CF0006F03D100200CF003
:104B4000004170470CF0004343EA507010B540EA52
:104B5000CC0000F00EF800BF000000924FEA000108
:104B6000FFF7ECBE4FF000414FF00000A1F500212F
:104B700070470EF1020E2EF0030E5EF8044B244235
:104B800004D44FEA4102B2F17F4F11D84FEA4003FB
:104B9000B3F17F4F0CD80ED14FEAD07CB2F17F4FEA
:104BA0000CEB4C0C0CF1020C08BF4CEBD17C04E07C
:104BB0004FF0080C01E04FEAD17C0CEB4C0324FAD7
:104BC00003F404F00704B4F1040C06D20EEB840CD9
:104BD000BDE810404CF0010C6047DFE80CF007081E
:104BE00002024FF00040A0F5800010BD08464200D0
:104BF00018BFD2F1807288BF00F0004010BD4FF0A6
:104C00004070E1EE100A7047FF2141EAD050C00524
:104C100070473031323334353637383941424344C6
:104C200045460000000000000000010203040607E2
:104C30000809000000000102030400000000010256
:104C4000030402040608020C081000000000000023
:104C50000000010203040607080900005C2C5C2226
:104C600076657273696F6E5C223A5C22312E302E4B
:104C7000305C227D222C302C300D0A007061726174
:104C80006D73223A7B220000396233303533303580
:104C900000000000394233303500000041542B4DF4
:104CA0005154545055423D302C222F7379732F6B41
:104CB000313135716A4D68674E6A2F6D707074536B
:104CC0006F6C6F724465766963652F7468696E678F
:104CD0002F6576656E742F70726F70657274792FA0
:104CE000706F7374222C227B5C22706172616D7311
:104CF0005C223A0063326164303863313730646675
:104D000062666437613565386461393033646433B1
:104D1000306631613432313366613563303937633F
:104D20006161313438636565333937613538323321
:104D300064386666000000006D707074536F6C6FAD
:104D400072446576696365266B313135716A4D68E9
:104D5000674E6A00696F742D30367A303069696F3A
:104D6000783173357934392E6D7174742E696F749E
:104D70006875622E616C6979756E63732E636F6DF1
:104D8000000000002F7379732F6B313135716A4D3C
:104D900068674E6A2F6D707074536F6C6F724465E4
:104DA000766963652F7468696E672F6576656E74C2
:104DB0002F70726F70657274792F706F73745F7279
:104DC00065706C79000000006B313135716A4D6897
:104DD000674E6A2E6D707074536F6C6F7244657697
:104DE0006963657C7365637572656D6F64653D327B
:104DF0005C2C7369676E6D6574686F643D686D6186
:104E0000637368613235365C2C74696D65737461E7
:104E10006D703D31373131393934383530323231D6
:104E20007C000000444E000800000020300200001A
:104E3000C0010008D84E000830020020683A000087
:104E40001C02000811E41C4E0E120133FFFF19185A
:104E50001AAA0191F928616011AEC7C73C728A0E87
:104E60003D0B57C83C304CA6BDCBA03B08013018C9
:104E70000AA04166666641CDCC5C04332C41323FCA
:104E80002E409A99993E04811B70172A228CB3E018
:104E90002E1C409C4504021146094618111A209008
:104EA0000B40C84218011213944C1B08880413C805
:104EB0004D1B0838041AF40C1A54081A84041A7C7E
:104EC0000C811A9C0C2A5C1032FF23127A04381CC5
:084ED0004E0E82040925440086
:040000050800018569
:00000001FF
