:020000040800F2
:10000000B840002025030008F111000887100008FF
:10001000ED110008C90B0008CD1B0008000000000E
:100020000000000000000000000000006502000861
:10003000F10D000800000000C1020008611900086D
:100040003F0300083F0300083F0300083F03000888
:100050003F0300083F0300083F0300083F03000878
:100060003F0300083F0300083F0300083F03000868
:100070003F0300083F0300083F0300083F03000858
:100080003F0300083F0300083F0300083F03000848
:100090003F0300083F0300083F0300083F03000838
:1000A0003F030008491B00083F0300083F03000806
:1000B0003F0300083F0300083F0300083F03000818
:1000C0003F0300083F0300083F0300083F03000808
:1000D0003F030008691B00083F0300083F030008B6
:1000E0003F0300083F0300083F0300083F030008E8
:1000F0003F0300083F0300083F0300083F030008D8
:100100003F0300083F0300083F0300083F030008C7
:100110003F0300083F0300083F0300083F030008B7
:100120003F0300083F0300083F0300083F030008A7
:100130003F0300083F0300083F0300083F03000897
:1001400000000000000000000000000000000000AF
:100150003F0300083F0300083F0300083F03000877
:100160003F0300083F0300083F0300083F03000867
:100170003F0300083F0300083F0300083F03000857
:100180003F03000800F002F800F05CF80AA090E8D5
:10019000000C82448344AAF10107DA4501D100F042
:1001A00051F8AFF2090EBAE80F0013F0010F18BFB3
:1001B000FB1A43F0010318472C6200004C62000058
:1001C0000A444FF0000C10F8013B13F0070408BF7D
:1001D00010F8014B1D1108BF10F8015B641E05D01B
:1001E00010F8016B641E01F8016BF9D113F0080FD0
:1001F0001EBF10F8014BAD1C0C1B09D16D1E58BF62
:1002000001F801CBFAD505E014F8016B01F8016B98
:100210006D1EF9D59142D6D370470000002300240B
:1002200000250026103A28BF78C1FBD8520728BF06
:1002300030C148BF0B6070471FB505F0C4FD1FBD3E
:1002400010B510BD00F080FA1146FFF7F5FF02F07F
:1002500001FF00F09EFA03B4FFF7F2FF03BC01F0C8
:1002600072FE00002C4B19680868B0E8F04F80F36C
:100270000988BFF36F8F4FF0000080F3118870473B
:100280000000000008480068006880F308884FF00C
:10029000000080F3148862B661B6BFF34F8FBFF3DE
:1002A0006F8F00DF00BF00BF08ED00E0DFF80C003B
:1002B000016841F470010160704700BF88ED00E003
:1002C000EFF30980BFF36F8F134B1A681EF0100F06
:1002D00008BF20ED108A20E9F04F106009B44FF0FC
:1002E000500080F31188BFF34F8FBFF36F8F04F07E
:1002F0000FFF4FF0000080F3118809BC19680868EF
:10030000B0E8F04F1EF0100F08BFB0EC108A80F379
:100310000988BFF36F8F7047D0010020EFF305808D
:10032000704700000948804709480047FEE7FEE79C
:10033000FEE7FEE7FEE7FEE7FEE7FEE7FEE7FEE795
:1003400004480549054A064B704700009519000806
:1003500085010008B8300020B8400020B8380020DF
:10036000B838002070470000014902F091BC00003D
:1003700038000020014A00F075B900003402002066
:1003800030B505460B462A4613F8014B12F8010B0F
:1003900008B1A042F8D01CB1002802D06D1CF1E7D2
:1003A000284630BD40EA0103024630B59B0710D114
:1003B0004FF0013400E008C208C91D1B9D4315EA37
:1003C000C41FF8D013F0FF0102F8011B0DD01B0A67
:1003D000F8E711F8013B002B02F8013B05D011F8BA
:1003E000013B002B02F8013BF3D130BD10B5431C9B
:1003F00002E010F8011B71B18107FAD14FF0013210
:1004000002C88C1A8C4314EAC211F9D0C01A0A0629
:1004100003D0C01E10BDC01A10BD0A0401D0801E3A
:1004200010BD0902FCD0401E10BD40EA010370B5AA
:100430009B072ED14FF00136042A2AD308C810C9D1
:100440009D1B9D43121F15EAC61517D0D8B2E1B205
:10045000401A50EA056110D198B2A1B2401A50EA90
:1004600005410AD123F07F4024F07F41401A50EA31
:10047000052102D1180EA0EB146070BDA342DBD0A1
:1004800018BA21BA884201D9012070BD4FF0FF305F
:1004900070BD0AB9002070BD10F8013B11F8014B86
:1004A00063B1A3420AD1521E08D010F8013B11F8E3
:1004B000014B1BB1A34201D1521EEDD1181B70BDDF
:1004C000032A40F2308010F0030C00F0158011F880
:1004D000013BBCF1020F624498BF11F801CB00F858
:1004E000013B38BF11F8013BA2F1040298BF00F8AC
:1004F00001CB38BF00F8013B11F0030300F0D480BA
:10050000083AC0F0088051F8043B083A51F804CB8F
:10051000A0E80810F5E7121D5CBF51F8043B40F855
:10052000043BAFF30080D20724BF11F8013B11F860
:1005300001CB48BF11F8012B24BF00F8013B00F8A4
:1005400001CB48BF00F8012B70474FF0000204298F
:10055000C0F0128010F0030C00F01B80CCF1040CF2
:10056000BCF1020F18BF00F8012BA8BF20F8022B26
:10057000A1EB0C0100F00DB85FEAC17C24BF00F8CC
:10058000012B00F8012B48BF00F8012B70474FF0FA
:10059000000200B5134694469646203922BFA0E8D3
:1005A0000C50A0E80C50B1F12001BFF4F7AF0907DF
:1005B00028BFA0E80C5048BF0CC05DF804EB8900D0
:1005C00028BF40F8042B08BF704748BF20F8022B13
:1005D00011F0804F18BF00F8012B70474FF0013C1D
:1005E00050F8042B51F8043B9A4221D1A2EB0C03A2
:1005F000934313EACC1317D150F8042B51F8043B62
:100600009A4215D1A2EB0C03934313EACC130BD1FE
:1006100050F8042B51F8043B9A4209D1A2EB0C0389
:10062000934313EACC13DBD04FF00000704700BFB8
:10063000D01A01BAB1FA81F101F0180122FA01F0E1
:10064000CB40C1F12001DBB2C0B2C01A2CFA01F3D9
:10065000D11A914311EAC311E6D170477047704730
:10066000704770472DE9F04115460E46040002D14F
:100670002C6804B90BA4204600F058F804442078F4
:1006800070B127463146384600F040F804442078DF
:1006900010B1002004F8010B38462C60BDE8F08151
:1006A0000027F9E70000000010B5203AC0F00B80E9
:1006B000B1E81850203AA0E81850B1E81850A0E866
:1006C0001850BFF4F5AF5FEA027C24BFB1E81850C0
:1006D000A0E8185044BF18C918C0BDE810405FEA30
:1006E000827C24BF51F8043B40F8043B08BF7047AC
:1006F000D20728BF31F8023B48BF11F8012B28BFB1
:1007000020F8023B48BF00F8012B704730B5034684
:100710001D781DB10A4603E0AC4201D1181A30BD64
:1007200012F8014B002CF7D15B1CF1E730B5034602
:100730001D783DB10A4612F8014B1CB1AC42FAD10A
:100740005B1CF5E7181A30BD754600F02BF8AE4675
:1007500005006946534620F00700854618B020B5CD
:10076000FFF7EEFDBDE820404FF000064FF0000718
:100770004FF000084FF0000B21F00701AC46ACE849
:10078000C009ACE8C009ACE8C009ACE8C0098D46B6
:10079000704710B50446AFF300802046BDE8104016
:1007A000FFF759BD0048704758300020424909887A
:1007B000424A9161404989889160E0B33E49498845
:1007C0003F4A9269891A3D4A11613B49C9883C4AAE
:1007D0001269891A394A116011460969394A126841
:1007E0001144384A1268A1EB9201364A1160114651
:1007F0000968890800EE101AB8EE400A3049D1EDB8
:10080000070A20EE200A2D4981ED050A09682E4AC3
:10081000126811442C4A1268A1EB92012A4A116015
:1008200011460968890800EE101AB8EE400A2449FA
:10083000D1ED050A00E004E020EE200A1F4981ED19
:10084000010A1E498969214A126811441F4A126827
:10085000A1EB92011D4A1160194991ED030A11465D
:100860000968890800EE901AF8EE600A144991EDC3
:10087000021A00EE810A114981ED070A8968144ABB
:1008800012681144124A1268A1EB9201104A1160D9
:100890000B4991ED010A11460968890800EE901A8A
:1008A000F8EE600A064991ED001A00EE810A03494C
:1008B00081ED030A704700003E0000205002002036
:1008C00048000020880000209000002084000020C4
:1008D0008C00002000B589B00121544801F098FD3A
:1008E00001215248401C01F093FD07A802F0EAF9EB
:1008F00003208DF82200C020079007A94C4802F081
:10090000ECF90320079007A94A4802F0E6F9012113
:100910004FF4A01001F07CFD474801F06DFE02A8E5
:1009200001F02FFE45480290454803900020ADF8A5
:1009300010000420ADF8120000208DF814000120F2
:100940008DF815008DF816008DF817008DF8180039
:1009500000208DF8190002A9374801F01EFE012180
:10096000354801F007FE01213048C01D01F050FD5F
:10097000022001F00BFC002001F022FB01A801F095
:10098000FAFA01208DF8040000208DF805008DF89A
:10099000060004208DF8070001A928484C3801F012
:1009A000D4FA0122022125484C3801F071FB0223C0
:1009B0000122092121484C3801F016FB02231A4676
:1009C00008211E484C3801F00FFB022303220621A8
:1009D0001A484C3801F008FB02230422072117486B
:1009E0004C3801F001FB012114484C3801F0F2FAB7
:1009F000012112484C3801F0F2FA10484C3801F04D
:100A0000C1FA00BF0D484C3801F0C2FA0028F9D1F4
:100A10000A484C3801F0C5FA00BF08484C3801F0CC
:100A2000C6FA0028F9D109B000BD00000200180084
:100A300000080140000C0140080002404C24014025
:100A40003E00002010B55648007830B3554890ED70
:100A5000030A5548008800EE900AF8EE600A5148F3
:100A600090ED021A00EE810A504880ED040A02F06F
:100A700093FA4D4840884B498969401A00EE100AA4
:100A8000B8EEC00A4748D0ED070A20EE200A4748D2
:100A900080ED0A0A183002F07FFA45480078401CC1
:100AA000C0B2434908700A283ADB002008703D486C
:100AB00090ED010A3C48808800EE900AF8EE600A4A
:100AC000384890ED001A00EE810A384880ED100A8F
:100AD000303002F061FA354890ED110A354880ED6A
:100AE0001B0A683002F07CF9324880ED270A2C4856
:100AF0000078A8B12D4890ED050A2E4880ED000A37
:100B000002F06EF92B4890ED261AF0EE410A90EDB6
:100B10000C1AB0EE410A02F07AF8264880ED270A56
:100B20002148C0881F490969401A00EE100AB8EE32
:100B3000C00A1C48D0ED050A20EE200A1B4880EDB3
:100B4000160A483002F028FA184890ED170A19489A
:100B500080ED280A9C3002F043F9164890ED330AE4
:100B6000154880ED000A90ED000ADFED140A20EE32
:100B7000200ABCEEC00A10EE100A80B210490860CC
:100B80000D4890ED000ADFED0F0A20EE200ABCEEC2
:100B9000C00A10EE100A80B209490831086010BD81
:100BA00012000020480000203E000020D800002055
:100BB00094000020700200206800002000E015452D
:100BC000342C014000E0954400BFFEE70146824816
:100BD000C088824A1269801A01EE100AB8EEC11A62
:100BE0007E48D0ED051A21EE211AF0EE410A90ED73
:100BF000011A7948808801EE900AF8EE611A774868
:100C000090ED002A01EE821AB0EE410A087806281B
:100C10002CD2DFE800F003D2BC2C569191ED071ADC
:100C200081ED0A1A91ED021A81ED091A91ED081A67
:100C3000B4EEE01AF1EE10FA06D991ED021AB4EE14
:100C4000C01AF1EE10FA03DD65480088401C00E090
:100C50000020634A1080104600880A2801DD032026
:100C6000087000205F4A10805F4A1080B1E091ED6B
:100C7000051A81ED0A1A91ED021A81ED091A91ED1A
:100C8000041AB4EEC01AF1EE10FA03D254480088E8
:100C9000401C00E00020524A1080104600880A28BC
:100CA00001DD042008704F4A1288C86A904202D2BF
:100CB0000120487008704B480088401C494A108049
:100CC00087E091ED061A81ED0A1A91ED021A81ED85
:100CD000091A91ED031AB4EEC01AF1EE10FA0AD215
:100CE00091ED081AB4EEE01AF1EE10FA03DD3C487B
:100CF0000088401C00E00020394A1080104600881F
:100D00000A2801DD05200870374A1288086B9042D6
:100D100006D391ED041AB4EEC01AF1EE10FA0ADD12
:100D2000314A1288086B904201D2022000E0032071
:100D30004870012008704CE091ED071A81ED0A1A05
:100D400091ED031A81ED091A91ED081AB4EEE01A3B
:100D5000F1EE10FA03DD22480088401C00E000207C
:100D60001F4A10801288486B904201D202200870FE
:100D70001D4A1288086B904203D20420487001205B
:100D8000087019480088401C174A108021E091ED36
:100D9000081A81ED0A1A91ED031A81ED091A91EDF5
:100DA000031ADFED121A21EE211AB4EEC01AF1EE89
:100DB00010FA01DD002008700BE091ED081A81EDBA
:100DC0000A1A91ED031A81ED091A0020044A1080D5
:100DD00000BF00BF087870473E0000204800002098
:100DE000D0000020D2000020D40000206666663FBC
:100DF0007047000070B504460D462A4621460B4850
:100E0000FFF75EFB00BF8021094803F0C9FE002800
:100E1000F9D00021074801F0ADFB2946054801F053
:100E2000AEFB0121034801F0A5FB70BD400300208B
:100E300000380140440002402B480088401C2A49E9
:100E400008802A4840882A490968084428490860D7
:100E50002648C0882749096808442649086022486E
:100E60000088B0F5807F3CD121480068000A224903
:100E7000086020480068000A2049086000201A49DC
:100E800008801B4908601B4908601B4A1268A2F5CC
:100E90000061002901DB0A4600E04A42502A13DAC9
:100EA000164A1268A2F50060002801DB024600E045
:100EB0004242502A08DA10480068114988610F48F8
:100EC00000680861012070470E4801880088401CB6
:100ED0000C4A1080032904DD002011460880401EC2
:100EE000F1E70020EFE700006E0000203E00002048
:100EF00074000020780000207C000020800000208A
:100F000048000020700000202DE9FF4F85B0814689
:100F10008A460020039083460798A0EB09050898AD
:100F2000A0EB0A06CDF80890CDF804A0002D01DD55
:100F3000012705E00DB9002702E04FF0FF376D42B1
:100F4000002E02DD4FF0010806E016B94FF0000850
:100F500002E04FF0FF387642B54201DD2C4600E05A
:100F60003446002004901EE0019AD1B2029AD0B219
:100F7000129A00F013FA039828440390B34403989C
:100F8000A04205DD0398001B0390029838440290AC
:100F9000A34504DDABEB040B019840440190049899
:100FA000401C80B20490611C04988842DCDD00F093
:100FB00021F909B0BDE8F08F2DE9F05F06460F4634
:100FC000904699464FF0000A00240025A8F1200021
:100FD00000F0FF0A7F2E02DD0026B81CC7B20024F5
:100FE0002BE0B9F1000F05D0174800EBCA0010F84C
:100FF00004B006E0144800EBCA00005DC04300F0F6
:10100000FF0B002515E08020284100EA0B0038B1D5
:101010003A19D1B27219D0B2012200F0BFF906E03C
:101020003A19D1B27219D0B2002200F0B7F9681C97
:10103000C5B2082DE7DB601CC4B2082CD1DB00F080
:10104000D9F8BDE8F09F0000DA5D00082DE9F04115
:1010500004460F461546984600260FE0AA5D434613
:1010600039462046FFF7A8FFA01DC4B2782C03DD47
:10107000002407F10800C7B2701CC6B2A85D0028A2
:10108000ECD1BDE8F08100BFFEE7000010B54FF4E1
:101090000041134801F075FE28B14FF4804110481B
:1010A00001F06FFEC8B90F480078401CC0B20D496E
:1010B0000870022811DB002008704FF40041084836
:1010C00001F05FFE08B9012010BD4FF480410448D3
:1010D00001F057FE08B90220F6E70020F4E700000F
:1010E000000C01403C00002010B503460C460120D6
:1010F000FFF75CFB012B02D0022B1AD100E000BFEE
:101100000E488069B0F5FA7F12DB0C48806940F226
:101110005E6188420CDA0A4801780078401C084A6F
:101120001070A14204DD00201146087005490870C6
:1011300000BF00BF0348007810BD0000500200202F
:10114000960000206C00002010B504460B46204697
:10115000FFF72CFBB4B1214801682148006900F277
:10116000666081420EDD1F4801780078401C1D4AF0
:10117000107099422EDD00201146087004201A4993
:10118000087027E015488069B0F5F17F0EDC15483E
:1011900001780078401C134A107099421ADD002033
:1011A0001146087001201049087013E00B4880694F
:1011B00040F26E6188420DDD0A4801780078401CDB
:1011C000084A1070994205DD00201146087002207F
:1011D000054908700448007810BD00005002002046
:1011E00048000020950000206C00002000BFFEE7B2
:1011F0007047000070B500241CE004F1B001C8B2D3
:10120000002100F00BF90021084600F007F9002149
:10121000102000F003F9002508E005EBC411074A8F
:10122000505C012100F0FAF8681CC5B2802DF4DB97
:10123000601CC4B2082CE0DB70BD0000D6060020A4
:1012400010B500F0D5FA00F06BF8C82001F02AFACA
:1012500000F08CF80021AE2000F0E0F800210846F4
:1012600000F0DCF80021102000F0D8F80021402028
:1012700000F0D4F80021B02000F0D0F80021812047
:1012800000F0CCF80021FF2000F0C8F80021A120D8
:1012900000F0C4F80021A62000F0C0F80021A8202A
:1012A00000F0BCF800213F2000F0B8F80021C82071
:1012B00000F0B4F80021D32000F0B0F80021084677
:1012C00000F0ACF80021D52000F0A8F80021802023
:1012D00000F0A4F80021D92000F0A0F80021F120AE
:1012E00000F09CF80021DA2000F098F8002112208C
:1012F00000F094F80021DB2000F090F8002130206D
:1013000000F08CF800218D2000F088F800211420D6
:1013100000F084F80021AF2000F080F810BD00003C
:101320001CB501210F4801F073F8684601F0CAFCB2
:1013300001208DF8070000208DF8040010208DF8A2
:1013400006004FF41840009004208DF8050069460F
:10135000054801F0C2FC4FF4184003491031086001
:101360001CBD0000020018000008014010B54FF439
:10137000006009490860642001F094F94FF40060AE
:101380000549091D0860642001F08CF94FF40060E4
:101390000149086010BD000010080140F0B5034687
:1013A0001446E4B1CD1701EB5575ED1003EBC515EF
:1013B000194E755D0A46CE1701EB5676F610A1EB75
:1013C000C6070126BE40F6B235430846CE1701EBEC
:1013D0005676F61003EBC6160F4FBD551AE0CD1723
:1013E00001EB5575ED1003EBC5150B4E755D0A4607
:1013F000CE1701EB5676F610A1EBC6070126BE40CC
:10140000B5430846CE1701EB5676F61003EBC61629
:10141000014FBD55F0BD0000D606002070B5054651
:101420000C4624B14FF480500A49086004E04FF4A0
:1014300080500849091D08604FF400400549091D06
:101440000860284600F052FA4FF400400149086055
:1014500070BD0000100801402DE9F04104460D4622
:1014600016460E4F00BF387808B900F0B1FB00BF38
:10147000EFF311800746202080F3118800BF00BFE2
:1014800032462946204600F00BF88046F8B280F339
:10149000118800BF00BF4046BDE8F081D80A002097
:1014A0002DE9F047074688461646C24607EB470136
:1014B0001B4800EBC109D9F8140020B1012811D054
:1014C000022826D11EE0484600F0BAFB0546B54288
:1014D00001D2002405E0344632465146484600F029
:1014E00006FD18E0484600F0ABFB0546B54201D2C8
:1014F000284600E03046044622465146484600F061
:10150000F6FC08E032465146484600F0B5FC044679
:1015100001E0002400BF00BF2046BDE8F0870000C6
:10152000F00A00200FB438B5044606A800906A46B9
:101530002046059900F008F805460020009028464E
:1015400038BC5DF814FB00002DE9F04F2DED028B47
:1015500099B082460D46144603A814904020159079
:1015600000201690CDF860A0179000BF2E786D1C5B
:1015700006B926E1252E73D100274FF0010900BFDF
:101580002E78232E12D02B2E0CD02D2E02D0302EC2
:1015900010D103E047F001076D1C0EE047F0020791
:1015A0006D1C0AE047F004076D1C06E047F00807D1
:1015B0006D1C02E04FF0000900BF00BFB9F1000F41
:1015C000DED14FF0000800BF2E78302E01DB392E1F
:1015D00000DD07E06D1CA6F1300008EB880100EB90
:1015E0004108F1E700BF002013902E782E2E12D173
:1015F0006D1C00BF2E78302E01DB392E00DD09E096
:101600006D1CA6F13000139901EB810100EB410044
:101610001390EFE700BF2E7800BF6C2E01D0682E2C
:1016200002D16D1C2E7800E000E0F6E700BF662EC8
:101630007BD00CDC582E3DD004DC252E70D0462EFD
:101640006DD173E0632E0CD0642EF9D115E0702EAD
:1016500053D0732E3CD0752E1DD0782EF0D128E0BB
:10166000A7E02168081D2060D1F8009009F0FF0B69
:10167000594614A800F0DEFB98E02168081D2060A0
:10168000D1F80090CDE900870A22494614A8139B9F
:1016900000F0E4FA8AE02168081D2060D1F800908B
:1016A000CDE900870A22494614A8139B00F04CFBA1
:1016B0007CE000BF2168081D2060D1F80090CDE9D2
:1016C00000871022494614A8139B00F03DFB6DE0F3
:1016D0002168081D2060D1F800B000BF9BF80060B1
:1016E0000BF1010B06B906E0314614A800F0A2FB8D
:1016F00017980028F2DA00BF58E02168081D206022
:10170000D1F80090002008210B461022CDE90010EE
:10171000494614A800F018FB48E006E000E044E069
:10172000252114A800F086FB40E000BF2068C01D02
:1017300020F0070001460830206091ED001BB0EE5C
:10174000410AF0EE610A51EC100B03F0F1FF08EED4
:10175000100ABDEEC80A10EE109ACDE900870A22E1
:10176000494614A8139B00F079FA2E2114A800F022
:1017700061FB9FED1E0A28EE000ABDEEC00A10EEC6
:10178000100A002801DB014600E04142894664203E
:1017900099FBF0F100FB119902230A22494614A893
:1017A000CDE9008700F05AFA00E000BF00BF6D1CD1
:1017B00003E0314614A800F03DFB17980028BFF65F
:1017C000D5AE00BF179800280ADD169820B103A9EE
:1017D0005046169AFFF740FEDDE9161008441790B0
:1017E000179819B0BDEC028BBDE8F08F0000C8421D
:1017F0001FB502A801F066FA684602F086FD0121D5
:101800004FF4C01000F004FE0121334800F000FE48
:1018100001213148093000F0FBFD01212F4801F082
:10182000B9FA01212E4801F0B5FA01208DF80F0018
:1018300000208DF80C0008208DF80E000290042086
:101840008DF80D0002A9274801F047FA01208DF814
:101850000F0000208DF80C008DF80E001020029073
:1018600004208DF80D0002A91E4801F036FA01206F
:101870008DF80F0000208DF80C0008208DF80E0068
:101880002020029004208DF80D0002A9154801F0D7
:1018900024FA00208DF8000001208DF801000020BE
:1018A0008DF804008DF8030002208DF8020001205D
:1018B0008DF805008DF806008DF8070069460A4886
:1018C00002F033FD0721084802F01AFD0121064805
:1018D00002F026FD1FBD00000300180002031030B7
:1018E00001041028000C014000300140014600BFF7
:1018F0000948806800F002000028F9D00648C1605D
:1019000000BF0548806800F001000028F9D00248B7
:10191000C068C0B2704700000030014010B503201D
:1019200001F0C6FC02F038FE00F09EFE00F0E4FB81
:10193000012000F019FC00F0C5FBFEF7CBFF00F022
:1019400061F802E0642000F0ADFE00F0E7FE002840
:10195000F8D1FFF775FC022000F006FC10BD000076
:1019600010B500BF502080F31188BFF34F8FBFF335
:101970006F8F00BF03F0B6FD18B14FF080500449DF
:10198000086000BF002080F3118800BF10BD000078
:1019900004ED00E01848006840F470001649086043
:1019A0001648006820F00100401C1449086000BF80
:1019B00012480068C0F340000028F9D00F48406882
:1019C00020F003000D49486000BF0C484068C0F398
:1019D00081000028F9D109480068094908400749F1
:1019E00008600020486008634FF41F008860C80347
:1019F000014980390860704788ED00E0001002401E
:101A0000FFFFF2FE70B58AB000250024142103A860
:101A1000FEF7BDFD03A800F02BFC0121454800F0B6
:101A2000F7FC01214348093800F0F2FC4FF48070C4
:101A3000089008208DF8260000208DF8240004204E
:101A40008DF8250001208DF8270008A93A4801F0FB
:101A500044F94FF40050089008208DF8260000202B
:101A60008DF8240004208DF8250001208DF8270032
:101A700008A9324801F031F9059840003049B0FB1F
:101A8000F1F0401E85B2681E0A21B0FBF1F084B26D
:101A9000002229462B4802F03FFE0021294802F08F
:101AA00087FE01A802F075FF07208DF804000020D2
:101AB0008DF8090001208DF807008DF80500002041
:101AC0008DF80A0001208DF8080000208DF806002E
:101AD00001AA00211B4802F08CFE22460021194871
:101AE00002F052FE01208DF8090001AA04211548D8
:101AF00002F07FFE264604EBD67042100421114806
:101B000002F042FE04200F4930310860002201211A
:101B10000C4802F063FE00220221192001F064FB50
:101B20000121084802F03EFF0121064802F045FE6F
:101B30000AB070BD0B00180000080140000C014005
:101B4000A0860100002C014010B50121054802F0DB
:101B50003CFE012805D1FEF775FF0121014802F086
:101B600031FE10BD002C014010B52021144803F0B7
:101B700017F818B3124803F001F8C1B211480278FF
:101B80000078401C0F4B18700F488154184600789D
:101B9000801E0D49085C0D2810D118460078401EA3
:101BA000085C0A280AD1002118460078801E064ADF
:101BB000115400201946087000F0E6FE10BD000028
:101BC00000380140C4010020D605002000BFFEE718
:101BD00010B5124C03202061606111A0A06113496F
:101BE000E1614FF4806121620021A1626162E162E2
:101BF0000BA020660E4961661021A16600212167B5
:101C0000E16661670BA1E01DFEF7CCFB0AA120464F
:101C1000FEF7C8FB2020A07110BD0000D80A0020EC
:101C20005465726D696E616C00000000800B0020CD
:101C3000800F00205254540053454747455200003E
:101C400010B501460A69CB689A4204D88C68641EB4
:101C5000E41AA01801E0D41A601E10BD2DE9FC5F43
:101C600006460F4692469846DDE90C45002F01DAFC
:101C7000784200E0384683464FF0010903E09BFBC1
:101C8000FAFB09F10109D345F9DAC84500D9C14683
:101C900034B1002F03DB05F00400042800D1641EDA
:101CA00005F0020010B1B8F1000F11D005F00100ED
:101CB00070B96CB108E0641E2021304600F0BAF81B
:101CC000F068002800DA02E00CB1A145F3D300BFB0
:101CD000F068002836DB002F05DA7F422D213046E0
:101CE00000F0A8F807E005F00400042803D12B2138
:101CF000304600F09FF8F068002823DB05F0020072
:101D0000022814D105F0010088B9B8F1000F0ED1F6
:101D10006CB108E0641E3021304600F08BF8F068AA
:101D2000002800DA02E00CB1A145F3D300BFF0684F
:101D3000002807DB4346524639463046CDE9004588
:101D400000F002F8BDE8FC9F2DE9FC5F8046894663
:101D500015461E460C9CCDF804900127BB4605E0B5
:101D60000198B0FBF5F001900BF1010B0198A8422E
:101D7000F6D25E4500D9B3460D9800F00100D0B907
:101D8000CCB10D9800F00200022803D116B9302022
:101D9000009001E02020009009E0641E4046009978
:101DA00000F048F8D8F80C00002800DA02E00CB186
:101DB000A345F2D300BFD8F80C00002835DB09E0BA
:101DC000012E01D9761E04E0B9FBF7FAAA4500D22C
:101DD00001E06F43F4E700BF00BFB9FBF7FA0AFB6D
:101DE0001799134810F80A10404600F023F8D8F865
:101DF0000C00002800DA03E0B7FBF5F7002FECD168
:101E000000BF0D9800F0010078B174B109E0641EC4
:101E10002021404600F00EF8D8F80C00002800DA27
:101E200002E00CB1A345F2D300BFBDE8FC9F000067
:101E3000D260000870B504460E46A568681C61684B
:101E4000814206D320684655681CA060E068401CAB
:101E5000E060D4E9011088420DD1A26821682069B0
:101E6000FFF7FAFAA168884203D04FF0FF30E06034
:101E700001E00020A06070BD2DE9F05F04468946B6
:101E800017464FF0000AE56800BFD4F81080A84557
:101E900003D9A8EB0500461E04E0A5EB0800401C92
:101EA000A1680E1AA068401BB04201D9304601E07B
:101EB000A068401B0646BE4201D2304600E03846CC
:101EC0000646606800EB050B324649465846FEF769
:101ED000F7FAB244B144BF1B3544A068A84200D110
:101EE0000025E560002FD0D15046BDE8F09F2DE9D8
:101EF000F047044689461546E668A068871BAF424E
:101F00000AD9606800EB060A2A4649465046FEF7A1
:101F1000D7FA7019E06014E0B846606800EB060A72
:101F2000424649465046FEF7CBFAA5EB0708D4F8DF
:101F300004A009EB070142465046FEF7C1FAC4F877
:101F40000C80BDE8F08700BF70470B78426863F3F0
:101F5000082242604B78826863F3410282608B788A
:101F6000826863F3CB228260CA78521EC36A62F32E
:101F70001753C362704700210170417081700121C5
:101F8000C1707047816821F0080108318160704795
:101F900001468868C0F3C00008B1012070470020E6
:101FA000FCE7816821F00401091D8160704701464A
:101FB0008868C0F3800008B1012070470020FCE76A
:101FC0000349096860F31341014A1160704700003A
:101FD00004240140826861F30822826070478268AD
:101FE00061F300028260704770B504460A290CDA7A
:101FF000206901EB41060725B540A84301EB4105E7
:1020000003FA05F5284320610FE0E068A1F10A0515
:1020100005EB45060725B540A843A1F10A0505EBE8
:10202000450503FA05F52843E0600D2A10DBE06A58
:10203000A2F10D0505EB85061F25B540A843A2F1C9
:102040000D0505EB850501FA05F52843E0621EE064
:10205000072A0EDB206BD51F05EB85061F25B54033
:10206000A843D51F05EB850501FA05F52843206334
:102070000DE0606B551E05EB85061F25B540A84396
:10208000551E05EB850501FA05F52843606370BD13
:1020900007290ADD836823F0007303F1007383606E
:1020A000836861F35343836007E0836823F0007320
:1020B0008360836861F353438360836862F31453DE
:1020C000836070471CB50121094800F0A1F96846FA
:1020D00000F0F8FD00208DF806004FF4404000901D
:1020E00018208DF805006946024800F0F6FD1CBD79
:1020F00003001800000C01401CB501210F4800F03E
:1021000087F9684600F0DEFD01208DF80700002009
:102110008DF8040010208DF806001820009004208F
:102120008DF805006946064800F0D7FD08200449EF
:1021300010310860102008601CBD0000020018006B
:1021400000080140012802D0022808D103E008213C
:10215000044A116003E01021024A116000BF00BF71
:102160007047000010080140012802D0022808D161
:1021700003E00821044A116003E01021024A1160C3
:1021800000BF00BF704700001408014006494968BD
:1021900060F38F31044A516082080349496862F351
:1021A0001C71014A516070470010024003494968A0
:1021B00060F30711014A51607047000000100240AF
:1021C0000349496860F30A21014A516070470000E1
:1021D000001002400349496860F3CD21014A516073
:1021E0007047000000100240012807D10749496DDF
:1021F00021F030013031054A516505E00349496D50
:1022000021F03001014A5165704700000010024082
:10221000052827D2DFE800F0030A11181F00134A2F
:10222000126861F30002114B1A601CE00F4A126839
:1022300061F310420D4B1A6015E00C4A126861F30D
:1022400018620A4B1A600EE0084A126A61F3000233
:10225000064B1A6207E0054A526A61F30002034B1B
:102260005A6200E000BF00BF70470000001002404B
:102270002DE9F04101460027002200259046002369
:10228000002400F06FF9064626B1012E12D0022E6E
:1022900043D112E03948406DC0F3402038B137488F
:1022A000006BC0F3406010B13548086001E035486C
:1022B000086035E03348086032E030484068C0F3D9
:1022C00000482E484068C0F383422C484068C0F361
:1022D00041750DB90F2A03D12801401C024400E0CA
:1022E000921CB8F1000F03D127485043086013E057
:1022F00022484068C0F3404058B12048406DC0F3C8
:102300000137B81CDFF87CC0BCFBF0F0504308601C
:1023100002E01C485043086002E01A48086000BF11
:1023200000BF16484068C0F303131848C45C08682F
:10233000E040486011484068C0F302231448C45C80
:102340004868E040C8600D484068C0F3C2231148A7
:10235000C45C4868E040886008484068C0F3007387
:1023600006484068C0F3813040EA83030A48C45CF1
:102370008868B0FBF4F00861BDE8F081001002400D
:10238000006CDC0200127A0000093D00E2600008E7
:10239000F2600008FA6000080261000810B501460A
:1023A0000020094B03EB1142126801F01F040123C6
:1023B000A3401A4001F01F040123A3409A4200D019
:1023C00000E0012010BD0000001002400349496DEB
:1023D00060F30D31014A5165704700000010024062
:1023E00030B50024002500E0641C1120FFF7D6FF63
:1023F000012802D0B4F5405FF6D31120FFF7CEFFDD
:10240000012801D0002500E00125284630BD00004C
:1024100010B501290DD10E4B03EB1042126800F0EC
:102420001F040123A3401A43094C04EB10431A6014
:102430000CE0074B03EB1042126800F01F0401236D
:10244000A3409A43024C04EB10431A6010BD0000F5
:102450000010024010B568B91C4B5B6823F4803350
:102460001A4C636023461B6B23F0007303F1007367
:10247000236317E0154B5B6823F4803303F5803347
:10248000124C6360012805D123465B6823F40033B6
:10249000636007E00D4B5B6823F4003303F5003302
:1024A0000A4C6360094B5B6861F39543074C6360BA
:1024B0000C09064B5B6864F35E73044C636023464F
:1024C0005B6862F3DF73636010BD000000100240C0
:1024D0001348006820F00100401C1149086000BF4B
:1024E0000F480068C0F340000028F9D00C4840684D
:1024F00020F003000A49486000BF09484068C0F363
:1025000081000028F9D106480068064908400449BE
:1025100008600020486008634FF41F00886070471F
:1025200000100240FFFFF2FE0D49496860F301010F
:102530000B4A516000BF00BF00BF00BF00BF00BF1B
:1025400000BF00BF00BF00BF00BF00BF00BF00BF93
:1025500000BF00BF00BF00BF00BF00BF704700004A
:102560000010024002484068C0F38100704700003C
:1025700000100240026861F300020260704741608F
:102580007047002101604160018141810173417305
:102590008173C17301744174704702684BF6EF7325
:1025A0001A40026002680B891A4302604B7C026881
:1025B00063F30D320260CB7B026863F38B2202600F
:1025C0008B7B026863F3092202604B7B026863F332
:1025D000C71202600B7B026863F3861202600B7CF9
:1025E000026863F3451202604A8942600A688260A9
:1025F0004A68C260704700000021026822F00102B0
:1026000002600022026042608260C260014640F2C5
:10261000FF420A40B2F5816F0DD2CAB2083A1423C4
:10262000B2FBF3F293000F229A400D4B5B681A4302
:102630000B4B5A6012E040F2FF420A40B2F5916F34
:102640000CD2CAB2083A1423B2FBF3F293000F2261
:102650009A40044B1B681A43024B1A6070470000F3
:10266000000002400404024000B585B01421684611
:10267000FDF78DFF6846FFF7FBFD07490098B0FBAB
:10268000F1F006490860084600684FF47A71484343
:102690000349086005B000BD40420F003000002033
:1026A00034000020134A126842F08072114B1A6005
:1026B0000022114B5A601A46126842F001021A6059
:1026C0001A46516800BF0C4A5268531A0B4A1268E6
:1026D00042439342F7D3084A126822F00102064BA4
:1026E0001A6000225A60034A126822F08072014B7D
:1026F0001A607047FCED00E0001000E0340000209C
:1027000030B50446002505E04FF47A70FFF7CAFFA4
:10271000681C85B2A542F7DB30BD000038B502F079
:102720009BF9092157A0FEF765FB0220FFF7E8FFA0
:102730004FF480715648FDF708FF072155A0FEF7BA
:1027400059FB0A20FFF7AEFF54A15148FDF746FFA1
:1027500008B1012038BD4FF480714D48FDF7F5FEFA
:102760000E214FA0FEF746FB6420FFF79BFF4BA115
:102770004748FDF733FF08B10220EBE74FF48071C3
:102780004348FDF7E2FE4A4803684A484AA1026806
:102790004F4801F0B5FF4E48FDF728FE84B22146B0
:1027A0004B48FEF727FB0220FFF7AAFF3BA1384862
:1027B000FDF714FF08B10320CCE74FF480713448D3
:1027C000FDF7C3FE43480068009043480368434850
:1027D00043A102683E4801F093FF3D48FDF706FE25
:1027E00084B221463A48FEF705FB6420FFF75AFF02
:1027F0002AA12748FDF7F2FE08B10420AAE74FF40A
:1028000080712348FDF7A1FE404841A1026830488D
:1028100001F076FF2E48FDF7E9FD84B221462C48F1
:10282000FEF7E8FA4FF47A70FFF73CFF1BA1184857
:10283000FDF7D4FE08B105208CE74FF480711448F1
:10284000FDF783FE39483AA10268214801F058FF9C
:102850001F48FDF7CBFD84B221461D48FEF7CAFA9A
:102860004FF4FA70FFF71EFF0CA10948FDF7B6FE02
:1028700008B106206EE74FF480710548FDF765FE4C
:10288000002067E741542B5253540D0A000000000A
:10289000D6050020415445300D0A00004F4B000082
:1028A00041542B43574D4F44453D310D0A00000024
:1028B000980100209401002041542B43574A415075
:1028C0003D222573222C222573220D0A00000000D0
:1028D00040040020A4010020A00100209C01002051
:1028E00041542B4D515454555345524346473D3066
:1028F0002C312C222573222C222573222C22257385
:10290000222C302C302C22220D0A0000A80100209D
:1029100041542B4D515454434F4E4E3D302C2225A3
:1029200073222C313838332C310D0A00AC010020D1
:1029300041542B4D5154545355423D302C22257354
:10294000222C310D0A00000038B504460948006801
:1029500023460090084809A102680A4801F0D0FE09
:102960000848FDF743FD85B229460648FEF742FABE
:1029700038BD0000C0010020BC0100202573257374
:10298000257300004004002070B50D2265A1694840
:10299000FDF74BFD002870D1674801686548FDF7D9
:1029A000EFFC044604B970BD04F10A0560A1284695
:1029B000FDF7E0FC6149086008460068FDF716FD78
:1029C000401E5E49096800220A545DA10020FDF7FF
:1029D000D1FC5C4908605CA158480068FDF7FEFD29
:1029E00038B9584800680078303840B25A49087001
:1029F00089E05AA151480068FDF7F0FD30B951480F
:102A0000006800783038584908707CE057A14B487E
:102A10000068FDF7E3FD30B94A48006800783038B7
:102A2000554908706FE055A144480068FDF7D6FD90
:102A300038B94448006801F065FD534880ED1A0A32
:102A400061E052A13D480068FDF7C8FD38B93D4836
:102A5000006801F057FD4C4880ED010A53E04EA19B
:102A600036480068FDF7BAFD40B93648006801F005
:102A700049FD4C4880ED070A45E050E04AA12F4847
:102A80000068FDF7ABFD38B92E48006801F03AFD4B
:102A9000444880ED060A36E046A128480068FDF764
:102AA0009DFD38B92748006801F02CFD3D4880EDB8
:102AB000050A28E042A121480068FDF78FFD38B9DA
:102AC0002048006801F01EFD364880ED040A1AE037
:102AD0003EA11A480068FDF781FD38B91948006821
:102AE00001F010FD2F4880ED030A0CE03AA11348D5
:102AF0000068FDF773FD30B91248006801F002FD6F
:102B0000284880ED020A0F4803680C4835A1026886
:102B1000374801F0F5FD3648FFF716FF00BF00BF4C
:102B200041E700002B4D51545453554252454356F2
:102B30003A000000D6050020B0010020B4010020BA
:102B40007D000000B8010020446576696365537715
:102B50006974636800000000C50100206D70707426
:102B60005F656E61626C65001200002063686172CF
:102B70006765724D6F64650011000020566F7574B3
:102B80005F76616C756500007002002056696E5FAB
:102B900076616C7565000000666C6F6174696E67C4
:102BA0005F496F00980000206368617267696E6713
:102BB0005F496F0070726563686172675F496F009B
:102BC0006375746F66665F566F000000666C6F61B8
:102BD00074696E675F566F006368617267696E67DC
:102BE0005F566F007B5C2225735C223A25737D0063
:102BF00040050020F0EE400AF5EEC00AF1EE10FAB2
:102C000002D2B1EE600A7047B0EE600AFBE7B0EEA8
:102C1000401AB4EEE01AF1EE10FA02D2B0EE410A18
:102C20007047B0EE600AFBE710B50146DFED170A0A
:102C3000B4EEE00AF1EE10FA04DAB5EEC00AF1EEF5
:102C400010FA01D8002010BDDFED100A60EE200A56
:102C5000FCEEE00A10EE902A042010E0022802D1D7
:102C60002E230B5409E00A23B2FBF3F403FB1423D5
:102C700030330B540A23B2FBF3F2431E58B2002840
:102C8000ECDA002048710120DDE700000000C842B6
:102C900070B504460D4600BF8021094801F080FF51
:102CA0000028F9D0A1B2064801F06CFF00BF402116
:102CB000034801F075FF0028F9D0204670BD0000E0
:102CC000005000404FF6FF710160002181710171D9
:102CD000042141710121C1717047F0B50A46158880
:102CE000ABB29579032D01D100241AE0957965B92D
:102CF000557905F00F045579182D01D1036110E0C5
:102D00005579282D0DD143610BE0957905F0080523
:102D1000167906F004063543D67906F0030645EA2F
:102D20000604DDB2A5B1002110E001258D401D4053
:102D30005DB105688F000F26BE40B543056005688C
:102D40008E0004FA06F635430560491C0829ECD3C9
:102D5000FF2B15DD1B12002110E001258D401D40C9
:102D60005DB145688F000F26BE40B543456045689C
:102D70008E0004FA06F635434560491C0829ECD359
:102D8000F0BD0246002093680B408B4200D000E06B
:102D900001207047F0B50C46104F07EB1062C0F3EE
:102DA0000741C0F30725C6B2C5F12007A7EB010C08
:102DB0004FF0FF3707FA0CF3C5F120077F1AFB40ED
:102DC000CB408B4017689F4317602CB106FA01FC7B
:102DD000176847EA0C071760F0BD000000000140CB
:102DE00000B590ED000AD0ED010A30EE600A80EDEA
:102DF000060AD0ED060AB0EE600AFFF7FBFED0ED42
:102E0000050AB4EEE00AF1EE10FA04D29FED230AAF
:102E100080ED090A13E090ED020AD0ED060A20EEDB
:102E2000200AD0ED030A90ED071A00EEC10AD0ED9A
:102E3000040A90ED081A00EE810A80ED090A90ED6F
:102E40000C0AD0ED090A30EE200A80ED0C0A90ED54
:102E5000070A80ED080A90ED060A80ED070A90ED5A
:102E60000C0AD0ED0A0AB4EEE00AF1EE10FA04DD25
:102E700090ED0A0A80ED0C0A0CE090ED0C0AD0ED02
:102E80000B0AB4EEE00AF1EE10FA03D290ED0B0A51
:102E900080ED0C0A90ED0C0A00BD0000000000005F
:102EA000B3EE020A2F4880ED010A9FED2F0A80ED54
:102EB000020A9FED2E0A80ED030A9FED2D0A80ED98
:102EC000040A9FED2C0A80ED050A9FED290A80ED8A
:102ED0000B0AB0EE080A80ED0A0A9FED250A80ED84
:102EE000090A9FED250A80ED1A0A9FED240A80ED5C
:102EF0001C0A9FED230A80ED1D0A9FED1D0A80ED3F
:102F00001E0A9FED1C0A80ED1F0A9FED190A80ED35
:102F1000250AB0EE080A80ED240A9FED150A80ED1F
:102F2000230AB0EE080A80ED270A9FED160A80ED0D
:102F3000290A9FED150A80ED2A0A9FED0D0A80ED02
:102F40002B0A9FED120A80ED2C0A9FED110A80EDED
:102F5000320A9FED100A80ED310A9FED050A80EDDF
:102F6000300A7047700200206666A63E0AD7A33E6C
:102F7000000000000AD7233C6666664117D9CE3DA3
:102F8000CDCCCC3DE527553CF4FD543C6F12833A43
:102F9000CDCC4C3D6666663F90ED050AD0ED040A47
:102FA000B4EE600AF1EE10FA00D1704790ED020A1B
:102FB000D0ED040A20EE200AD0ED030A90ED051AA8
:102FC00000EE810A80ED050A00BFEEE7D0ED000AB1
:102FD000F5EEC00AF1EE10FA06D9D0ED010AF5EED1
:102FE000C00AF1EE10FA08D8F7EE000AC0ED020AA6
:102FF000DFED160AC0ED030A7047D0ED000A9FED21
:10300000141A60EE810AB7EE001A81EE200A90EDE4
:10301000011AF7EE000A40EE010AB7EE001AC1EEFF
:10302000201AC0ED021AD0ED020AB7EE001A71EEB6
:10303000600AC0ED030ADFED050AC0ED040ADFED0A
:10304000030AC0ED050A00BFD6E70000000000003B
:10305000DB0FC9401CB5FEF761FC002001210346CF
:103060004A02CDE9001004A1064802F04BF901F034
:10307000FFFF00201CBD000073746172745F7461F7
:10308000736B00005144000810B504464D4890EDA4
:10309000050A4D4880ED040A4A4890ED0B0A4A485B
:1030A00080ED0A0AFFF778FF47481830FFF774FFF2
:1030B000454890ED040AD0ED0A0A20EE200A80ED82
:1030C000100A3030FFF768FF3F4890ED110A3F4883
:1030D00080ED000A3E480078401CC0B23C490870B0
:1030E000A0426BDB002008703A4890ED000A374898
:1030F000D0ED000A30EE600ADFED370AB4EEE00AE8
:10310000F1EE10FA07DD3548007808B9012000E03B
:103110000020324908703148007850B12A4890EDBB
:10312000050ADFED2F0A30EE200A2E4880ED000A56
:1031300009E0254890ED050ADFED290A30EE600A26
:10314000284880ED000A214890ED000A214880EDD2
:10315000000A1E4890ED000AB5EEC00AF1EE10FA22
:1031600007D801201D490870B2EE080A1D4880EDFD
:10317000000A1C4890ED000AF2EE080AB4EEE00ADC
:10318000F1EE10FA08D2012014490870B2EE080AD4
:10319000144880ED000A11E0124890ED000AF3EEA9
:1031A0000E0AB4EEE00AF1EE10FA07DD00200B493A
:1031B0000870B3EE0E0A0B4880ED000A094890ED46
:1031C000000A10BDD8000020380100208001002036
:1031D0009001002084010020CDCC4C3D88010020CE
:1031E000CDCCCC3D8C0100202DE9F0470B46144698
:1031F0004FF0000C00BF2C4A1268C2F302211D469A
:1032000026460A46C2F10709B9F1040F02D94FF068
:10321000040901E0C2F10709C84602F10409B9F145
:10322000070F02D24FF0000901E0A2F103094F4657
:103230004FF0010909FA08F9A9F1010909EA05099C
:1032400009FA07F94FF0010A0AFA07FAAAF1010A86
:103250000AEA060A49EA0A09CC46014662460029FA
:1032600004DB15072E0E114D6E5407E015072F0EC7
:103270000D4D0C3501F00F06361FAF5500BF01464E
:1032800000290DDB00BF00BF01F01F050122AA408D
:103290004D09AD0005F1E025C5F8002100BF00BFD4
:1032A00000BFBDE8F08700000CED00E000E400E0A6
:1032B00000BF00F00702064B19684FF6FF031940E4
:1032C000044B0B4343EA0221014B196000BF7047D6
:1032D0000CED00E00000FA052DE9F74384B08046CC
:1032E0000C4600259EE0207825287DD1641C002016
:1032F00007460646207800B998E02078252800D1B6
:1033000089E020782D2801D1641C012702E0641C8B
:1033100047F0020720783028F9D006E006EB860057
:103320004600207830380644641C2078302802DBC0
:1033300020783928F2DD2078732811D1069850F8CA
:10334000049B0690B9F1000F01D0484600E03EA072
:1033500001463B463246404600F0E5F8054460E051
:10336000207864280DD16120CDE90067029006988D
:1033700002C801230A220690404600F077F805446F
:103380004FE0207878280DD16120CDE900670290C8
:10339000069802C8002310220690404600F066F806
:1033A00005443EE0207858280DD14120CDE9006742
:1033B0000290069802C8002310220690404600F0B2
:1033C00055F805442DE0207875280ED16120CDE90F
:1033D00000670290069802C800230A220690404621
:1033E00000F044F805441CE014E02078632817D16D
:1033F000069810F8041B0690C8B28DF80C00002047
:103400008DF80D003B46324603A9404600F08BF88C
:10341000054406E000BF2178404600F019F86D1C15
:1034200000BF641C207800287FF45DAF00BFB8F1B6
:10343000000F03D00020D8F800100870002006907C
:10344000284607B0BDE8F083286E756C6C29000033
:1034500070B504460D462CB121680D702068401CE3
:10346000206002E02846FCF77FFF70BD2DE9FF4F8A
:1034700085B00C4616469A46DDF84880002001903B
:103480008346274674B930208DF8080000208DF857
:103490000900424602A9139B059800F044F809B0C0
:1034A000BDE8F08FBAF1000F06D00A2E04D1002C2F
:1034B00002DA0120019067420DF113050020287007
:1034C00011E0B7FBF6F006FB1079B9F10A0F02DB49
:1034D00014983A38814409F13000C1B2681E05469B
:1034E0000170B7FBF6F7002FEBD1019898B1B8F156
:1034F000000F0CD0139800F0020040B12D21059868
:10350000FFF7A6FF0BF1010BA8F1010803E02D2145
:10351000681E0546017042462946139B059800F037
:1035200002F85844BBE72DE9F04780460D461446A3
:103530001F4600264FF02009002C12DD00202946EE
:1035400001E0401C491C0A78002AFAD1A04201DBA4
:10355000002400E0241A07F002020AB14FF03009FB
:1035600000BF07F0010040B905E049464046FFF7BB
:103570006FFF761C641E002CF7DC05E029784046BE
:10358000FFF766FF761C6D1C28780028F6D105E051
:1035900049464046FFF75CFF761C641E002CF7DCB2
:1035A0003046BDE8F08700002DE9F04105460E46A3
:1035B0001C4807681C480068001D01F0B8FB50B9A2
:1035C0001948006890F82C100120884017490968B4
:1035D000814316480160681C38B936B11248016849
:1035E000091D134801F0E1FB1AE07C190E48006840
:1035F0004460BC4207D20C480168091D0D480068B0
:1036000001F0B9FB0CE008480168091D0A48006890
:1036100001F0B1FB09480068844201D20748046008
:10362000BDE8F081E4010020D0010020E801002085
:1036300044100020D8010020D40100200002002006
:1036400010B5044601F0BEFB23480068401C224927
:1036500008602248006840B92048046008460068B5
:1036600001280DD100F01EF90AE01D48006838B9A4
:103670001A480068C06AE16A884201D817480460A5
:1036800018480068401C1749086094F82C10012065
:10369000884015490968084313490860E16A01EB4D
:1036A0008101124A02EB8100211D01F07EFB01F035
:1036B000B3FB0B48006868B108480068C06AE16A5B
:1036C000884207D24FF0805009490860BFF34F8FFE
:1036D000BFF36F8F10BD0000E0010020D00100207B
:1036E000EC010020FC010020E8010020900F0020E8
:1036F00004ED00E010B516E001F064FB0C48C06872
:10370000C468201D01F013FB0A480068401E0949E7
:10371000086009480068401E0749086001F07CFB0A
:10372000204600F00BF8044800680028E4D110BDE2
:1037300030100020E0010020DC01002010B504461C
:10374000206B01F087FB204601F084FB10BD0000D8
:1037500030B54FF40053174800F007042CB1C01DDA
:1037600020F00700134C041B1B1B0246124C226066
:103770000024114D6C60D018083820F007000F4C61
:10378000206000240D4D2D686C600C4D2D682C6060
:103790001146441A4C60094C24680C60084D4C6872
:1037A0002C60084D4C682C604FF00044064D2C6096
:1037B00030BD000058100020140200201C02002020
:1037C00024020020200200203002002000BFFFF76A
:1037D00091FF064800680128F9D94FF0805004494C
:1037E0000860BFF34F8FBFF36F8FF0E7900F00209B
:1037F00004ED00E02DE9FF5F81460E469246DDE9CB
:103800000E7B109CAAF10100216B01EB800828F0CF
:10381000070808F0070008B9012000E0002050B9AF
:1038200000BF502080F31188BFF34F8FBFF36F8F1D
:1038300000BF00BFFEE786B1002507E0715D04F11F
:1038400034004155705D00B902E06D1C102DF5D3B8
:1038500000BF00214320015502E0002084F834001D
:10386000052F00D30427E762201D01F081FA04F13F
:10387000180001F07DFA2461C7F10500A0616462BF
:103880000020606484F8480049464046039A00F0EE
:103890005FF92060BBF1000F01D0CBF80040BDE81C
:1038A000FF9F000010B5002407E004EB84010F4ADD
:1038B00002EB810001F04FFA641C052CF5D30C4893
:1038C00001F049FA0B4801F046FA0B4801F043FABF
:1038D0000A4801F040FA0A4801F03DFA0448094953
:1038E000086004480849086010BD0000900F0020DF
:1038F000F40F0020081000201C10002030100020C1
:1039000044100020D4010020D801002010B5014649
:10391000164800E0006803688B42FBD30246436808
:1039200013448B4204D143684C68234443600146EE
:103930000A464B6813440468A34211D10C4C036837
:103940002468A34208D04B680468646823444B6031
:1039500003681B680B6005E0054B1B680B6001E00A
:1039600003680B60884200D0016010BD1402002083
:103970001C02002009480068006808B9012000E026
:10398000002020B14FF0FF300549086005E00348F2
:103990000068C0680068024908607047D4010020D0
:1039A000000200200E480068401C08B9012000E019
:1039B000002050B900BF502080F31188BFF34F8F13
:1039C000BFF36F8F00BF00BFFEE700BF502080F342
:1039D0001188BFF34F8FBFF36F8F00BF00BFFEE7AB
:1039E000200000202DE9F04104464FF0000801F0CE
:1039F00087FB5148006808B9FFF7AAFE4F480068E6
:103A0000204000287ED13CB304F10800A04223D915
:103A1000083404F0070000B304F00700C0F1080008
:103A20002044A04216D904F00700C0F10800044465
:103A300004F0070008B9012000E0002068B900BFC9
:103A4000502080F31188BFF34F8FBFF36F8F00BFFB
:103A500000BFFEE7002400E00024002C54D03848CA
:103A60000068844250D8374E3046056801E02E4643
:103A70002D686868A04202D228680028F7D12E4835
:103A80000068854240D0306800F10808286830603E
:103A90006868001B102819D92F1907F0070008B90A
:103AA000012000E0002050B900BF502080F31188B1
:103AB000BFF34F8FBFF36F8F00BF00BFFEE7686893
:103AC000001B78606C603846FFF720FF1C4968686F
:103AD0000968081A1A490860084600681A490968FE
:103AE000884203D21648006817490860134968687D
:103AF0000968084368600020286014480068401C7A
:103B0000124900E000E0086001F090FD08F00700B5
:103B100008B9012000E0002050B900BF502080F318
:103B20001188BFF34F8FBFF36F8F00BF00BFFEE759
:103B30004046BDE8F08100001C0200203002002059
:103B4000200200201402002024020020280200206D
:103B5000001F4FF080730360001F21F0010303601A
:103B6000001F054B036014380260001F6FF0020352
:103B70000360203870470000A539000808B500240C
:103B8000621E0021084600F013FF54E00120FEF7FA
:103B9000EBFA0220FEF7D6FA00220121264800F0B7
:103BA0001DFE00221146244800F0BEFD0022012126
:103BB000214800F0B9FD214843782148027821A12D
:103BC0000120FDF7AFFC1E48007830B103211C48EE
:103BD0000078FDF789FA00B90124FDF757FA0228A9
:103BE00004D01CB920480078012821D1FF201E49AB
:103BF000087001201D490870002400201049087039
:103C00000E494870EF200C493431086077200A498A
:103C10003C3108600020022302460146009014480F
:103C2000006801F09FFB621E0021084600F0C0FE04
:103C3000642001F075F9A9E7002C014098000020EC
:103C40006C0000206C6F6F705F657272203D2025E4
:103C5000642C206368616E7267655F657272203DD7
:103C60002025640D0A000000C5010020100000207E
:103C70000400002008B50025642001F051F907E098
:103C800040480078012803D1FF203E49087003E036
:103C9000FDF7FCF90228F3D100BF01203A49087072
:103CA0006EE0FDF7C9F805463C210020FDF74CFA0F
:103CB00080B100203449087002230246014600907A
:103CC0003248006801F04EFB4FF0FF3200210846F9
:103CD00000F06EFE012D3AD1002408E004EB44010F
:103CE0002B4A02EBC100FFF771F9601CC4B2042C2F
:103CF000F4DB002408E004EB4401264A02EBC10097
:103D0000FFF764F9601CC4B2032CF4DBFFF7C8F8BA
:103D100001220021204800F007FD012211461E4823
:103D200000F002FD012211461B4800F057FD002063
:103D300002230246014600901848006801F012FB79
:103D40004FF0FF320021084600F032FE15E0681CFB
:103D500098B906201249087000200B490870022308
:103D60000246014600900948006801F0FBFA4FF056
:103D7000FF320021084600F01BFE052001F0D0F8BC
:103D80008FE70000C501002010000020080000207F
:103D9000D800002038010020002C01400C00002039
:103DA0006C0000202DED028B82B04FF0FF3200211D
:103DB000084600F0FDFD83E00220FEF7D5F9012062
:103DC000FEF7C0F903210120FDF7BEF980B1002004
:103DD0003C49087002230246014600903A480068B8
:103DE00001F0C0FA4FF0FF320021084600F0E0FD7C
:103DF0003648007810B33648FCF7E8FE012811D1A8
:103E000000203049087002230246014600902E48E7
:103E1000006801F0A7FA4FF0FF320021084600F0D9
:103E2000C7FD0BE02A4890ED090A2A4880ED1A0ADE
:103E3000274890ED0A0A274880ED240A2648007892
:103E400080B10120FFF720F9224880ED010A90EDB2
:103E5000010A224880ED000A1D4890ED0A0A1D481B
:103E600080ED0A0A1B4890ED270A10EE101A08464A
:103E700001F038FF41EC180B53EC182B18A100206F
:103E8000FDF750FB1848007818B1FDF7FFF801283E
:103E900013D1FF201449087000200A49087002233A
:103EA0000246014600900848006801F05BFA4FF0B6
:103EB000FF320021084600F07BFD642001F030F85D
:103EC0007AE7000010000020080000201100002008
:103ED0009800002070020020120000201400002032
:103EE00025660D0A00000000C50100202DED048BA1
:103EF00082B09FEDB50AB0EE408A9FEDB30AF0EEB6
:103F0000408A9FEDB10AB0EE409AB0480378B048BD
:103F10000278B049B04800F0F3FBAF48FEF714FD5B
:103F2000C82000F0FDFFAD48D0ED070AB0EE600AF2
:103F3000AB48FEF779FEA948D0ED060AB0EE600A5C
:103F4000A748801DFEF770FEA448D0ED050AB0EE2C
:103F5000600AA3480C30FEF767FEA048D0ED080ABF
:103F6000B0EE600A9E481230FEF75EFE9C481230AA
:103F7000811F8B1F9A1FCDE900109A49964800F0C7
:103F8000BFFB9548FEF7E0FC18219548FCF7DDFAE9
:103F9000C82000F0C5FF9148D0ED040AB0EE600AD9
:103FA0008F48FEF741FE8D48D0ED030AB0EE600A5F
:103FB0008B48801DFEF738FE8848D0ED020AB0EE2F
:103FC000600A87480C30FEF72FFE85480C30831FAF
:103FD0009A1F85A10090804800F092FB182180482C
:103FE000FCF7B3FA7C48FEF7AFFCC82000F098FF5E
:103FF000E9E07A48407800908A4803788A48027855
:104000008AA1754800F07CFB7348FEF79DFC4FF4D5
:10401000167000F085FF01200F237F2219460090C3
:104020000020FCF771FF01203F233C22002100907B
:104030001046FCF769FF6648007830B101238BA277
:1040400000210846FDF702F805E001238AA20021BD
:104050000846FCF7FBFF8B48D0ED070AB0EE600A7C
:104060005F48FEF7E1FDB0B18648D0ED030AB0EE3F
:10407000600A5B480C30FEF7D7FD60B1584B0C333B
:10408000574A81A1544800F03BFB0123524A1821B2
:104090000020FCF7DBFF7B48D0ED050AB0EE600A9C
:1040A0004F48801DFEF7C0FDB8B17648D0ED010A3B
:1040B000B0EE600A4A481230FEF7B6FD68B1484BD0
:1040C0001233A3F10C0274A1434800F019FB012341
:1040D000414A28210020FCF7B9FF41481230811FD6
:1040E0008B1F9A1FCDE900106F493B4800F008FB79
:1040F0003948FEF729FC18213948FCF726FA4FF415
:10410000167000F00DFF5F4890ED050AD0ED070A2C
:1041100020EE200AB0EE408A90ED010AD0ED030AAD
:1041200020EE200AF0EE408A88EE880ADFED5F0A72
:1041300020EE200AF0EE409ADFED5D0AFEF767FD03
:10414000B0EE409A2648B0EE480AFEF76DFD30B357
:104150002348801DB0EE680AFEF766FDF8B12048DE
:104160000C30B0EE490AFEF75FFDC0B11C4B9B1D41
:104170009A1F50A1184800F0C3FA0123164A3821AB
:104180000020FCF763FF164A0C324EA1124800F0E3
:10419000B7FA0123104A00214220FCF757FF1048CC
:1041A0000C30831F9A1F49A100900B4800F0A8FA19
:1041B0000948FEF7C9FB18210948FCF7C6F94FF476
:1041C000167000F0ADFE14E70000000011000020A2
:1041D000120000201C61000840050020980000200B
:1041E00038020020CC6100087B5C226375746F6626
:1041F000665F566F5C223A25735C2C5C22666C6F9E
:104200006174696E675F566F5C223A25735C2C5C43
:10421000226368617267696E675F566F5C223A2538
:10422000737D00006C000020100000207B5C2244A5
:1042300065766963655377697463685C223A2564BF
:104240005C2C5C226C6F6F705F6661756C745C22B5
:104250003A25645C2C5C22636861726765725F66F4
:1042600061756C745C223A25647D00004D4F4445B5
:104270003A4D5050540000004D4F44453A50574D70
:10428000200000005002002056696E3A257320205D
:10429000566F75743A25730049696E3A257320206C
:1042A000496F75743A257300806100080000C842A8
:1042B000E1FAC74250696E3A25732020506F757439
:1042C0003A257300506566663A2573007B5C225080
:1042D000696E5F76616C75655C223A25735C2C5C57
:1042E00022506F75745F76616C75655C223A257338
:1042F0005C2C5C22505F6566665C223A25737D000B
:10430000026961F30F020261704700210170417080
:104310008170C1700171417181710121C17170475A
:10432000026861F3861202607047C26922F400627B
:10433000C2610A7862B9026822F40042026002682F
:1043400022F480420260026822F48062026036E059
:104350000A78012A0ED1026822F400420260026843
:1043600022F480420260026822F4806202F58062D8
:10437000026024E00A78022A0ED1026822F4004288
:1043800002F500420260026822F480420260026884
:1043900022F48062026012E00A78032A0FD10268D8
:1043A00022F4004202F500420260026822F48042D8
:1043B00002F580420260026822F480620260CB79DA
:1043C000026863F3492202604A78012A09D1CA7956
:1043D000012A06D1026822F4807202F5807202601E
:1043E00003E0026822F4807202604B78026863F393
:1043F000820202608A78072A0BDD426822F480720A
:1044000002F5807242608A78036862F3C503036034
:1044100008E0426822F4807242608B78026863F39D
:10442000C5020260CB78026863F3C71202600B79A1
:10443000026863F3CB2202604B79026863F34102A6
:1044400002608B79026863F300020260704700002B
:104450001CB5044600F0B6FC174803210023642273
:10446000CDE9001015A1184800F04CFF17480221B3
:1044700000236422CDE9001015A1184800F042FF86
:104480001748012100236422CDE9001015A1184826
:1044900000F038FF0020012103464FF4FA72CDE905
:1044A000001014A1164800F02DFF002000F066FD5A
:1044B00000F0B2FC1CBD000004000020496E6974CD
:1044C0005F7461736B000000753C000808000020F9
:1044D0004661756C745F7461736B00007D3B00080E
:1044E0000C00002052756E5F7461736B0000000059
:1044F000A53D000873686F775F7461736B000000FF
:10450000ED3E000810B52DED0C8B04462179A1F18C
:10451000300001F0E7F941EC1B0B9FED1B0B53EC56
:10452000102B01F0F7F941EC190BE178A1F1300003
:1045300001F0D8F941EC1D0B9FED150B53EC102B3E
:1045400001F0E8F941EC1B0B617830392278303A00
:1045500002EB820201EB420001F0C4F941EC1C0BBA
:1045600053EC1B2B01F016F941EC1A0B53EC192BF1
:1045700001F010F941EC180B01F0DAF800EE100A26
:10458000BDEC0C8B10BD00007B14AE47E17A843F7C
:104590009A9999999999B93F10B5FDF799FF012119
:1045A0000846FDF735FE00BFFDF71AFF0028FBD0D7
:1045B00001223B210220FDF74DFF0020FDF706FF01
:1045C00001210220FDF724FE00BF1920FDF7E6FEC1
:1045D0000128FAD10020FDF7E9FD0420FDF7FAFDDE
:1045E0000420FDF7EDFD0120FDF7FEFD0220FDF7A3
:1045F0009BFF00BFFDF7B6FF0228FBD10020FDF7AF
:10460000F3FD00F001F810BD2DE9F047002600246D
:1046100000250027A046A146FDF7A4FF8246BAF177
:10462000000F06D0BAF1010F15D0BAF1020F46D132
:1046300015E02D48406DC0F3402040B12A48006B82
:10464000C0F3406018B129482949086002E02948B0
:104650002749086037E027482549086033E02248A9
:104660004068C0F3004720484068C0F383441E48B8
:104670004068C0F341750DB90F2C03D12801401CCF
:10468000044400E0A41C27B91B4860431849086093
:1046900014E015484068C0F3404058B11248406DDE
:1046A000C0F30136B01C1349B1FBF0F06043104970
:1046B000086003E00F4860430D49086003E00D48BF
:1046C0000B49086000BF00BF07484068C0F30318EB
:1046D0000A4810F808900648006820FA09F00449D2
:1046E0000860BDE8F087000000100240006CDC02AA
:1046F000C801002000127A0000093D000A6100088C
:104700000FB408B504A8009002A8009A0399FEF718
:10471000E3FD01B05DF814FBC1628262436923F0DE
:1047200001035B1C4361704710B50B46072B28D271
:10473000DFE803F004090E13181D2200046A62F377
:10474000000404621EE0046A62F38204046219E059
:10475000046A62F30414046214E0046A62F38614C7
:1047600004620FE0046A62F3082404620AE0046A47
:1047700062F38A24046205E0046A62F30C34046282
:1047800000E000BF00BF10BD0B4633B1022B06D0C6
:10479000042B06D0062B08D105E0426306E08263B5
:1047A00004E0C26302E0026400E000BF00BF7047A3
:1047B000026861F3061202607047026861F300024A
:1047C00002607047CA4302617047024600201369C5
:1047D0000B400BB1012000E000207047012A03D1FB
:1047E000C3680B43C36003E012B9C3688B43C36063
:1047F00070472DE9F04100250026002701F108034C
:104800005C1C92F801C00CFA03FC1FFA8CF592F8BC
:1048100002C00CFA04FC1FFA8CF6D0F804C04FF06A
:10482000010808FA04F82CEA080CC0F804C0D0F813
:1048300004C04CEA060CC0F804C0D0F804C04FF025
:10484000010808FA03F82CEA080CC0F804C0D0F8F4
:1048500004C04CEA050CC0F804C00F4637B1022F63
:104860000DD0042F14D0062F24D11AE092F8008026
:10487000D0F818C068F3061CC0F818C01BE092F806
:104880000080D0F818C068F30E3CC0F818C012E0E1
:1048900092F80080D0F81CC068F3061CC0F81CC059
:1048A00009E092F80080D0F81CC068F30E3CC0F814
:1048B0001CC000E000BF00BF4FF0010C0CEB410337
:1048C0004FF0030C0CEB410492F803C00CFA03FC0C
:1048D0001FFA8CF592F804C00CFA04FC1FFA8CF64F
:1048E0004FF0010808FA04F8D0F820C02CEA080CB0
:1048F000C0F820C0D0F820C04CEA060CC0F820C098
:104900004FF0010C0CFA03FCD0F8208028EA0C08C8
:10491000C0F82080D0F820C04CEA050CC0F820C0B8
:104920004B004FF0020C0CEB410492F805C04FEA2B
:1049300041080CFA08FC1FFA8CF592F806C04FF0FB
:10494000020808EB41080CFA08FC1FFA8CF64FF03D
:10495000010808FA04F8D0F820C02CEA080CC0F8C6
:1049600020C0D0F820C04CEA060CC0F820C04FF0A0
:10497000010808FA03F8D0F820C02CEA080CC0F8A7
:1049800020C0D0F820C04CEA050CC0F820C0BDE81B
:10499000F0810021017041708170C170017141711D
:1049A00081717047426C61F3CF32426470470000FE
:1049B0002DE9F04104460F4616460CB9012000E0EF
:1049C000002050B900BF502080F31188BFF34F8FF3
:1049D000BFF36F8F00BF00BFFEE700F0F3F91C4884
:1049E0000068443050F8240080B90121184800685C
:1049F0004830015556B13046FEF7D6FD4FF0805095
:104A000014490860BFF34F8FBFF36F8F00F004FAB3
:104A100000F0D8F90E480068443050F824506DB1C9
:104A200037B100210A480068443040F8241005E0FE
:104A3000681E07490968443141F8240000210448F0
:104A400000684830015500F0E7F92846BDE8F081DC
:104A5000D001002004ED00E000B587B001214FF443
:104A6000A010FDF7D5FC01213E48FDF7D1FC012146
:104A70003C480C30FDF7CCFC05A8FEF723F90120DB
:104A80008DF81B0000208DF8180008208DF81A0002
:104A90008001059004208DF8190005A93248FEF721
:104AA0001CF902208DF81B0000208DF818008DF8ED
:104AB0001A004FF48060059004208DF8190005A9B4
:104AC0002948FEF70AF900231A464FF4E131274836
:104AD00000F0A2F80121254800F024F90121234823
:104AE00000F01BF90021214800F0F1F801211F48D6
:104AF00000F04CF800211D4800F05AF801211B4835
:104B000000F049F8002201212520FEF76DFB01226B
:104B10001749164800F0C0F81648FDF76DFD6846C5
:104B2000FDF72FFD1148001D009013480190102043
:104B3000ADF808000020ADF80A008DF80C00012047
:104B40008DF80D0000208DF80E008DF80F008DF807
:104B5000100001208DF8110069460648FDF71DFD83
:104B600007B000BD020018000008014000380140F5
:104B700005000C0044000240400300200146486844
:104B800080B27047C1F3080242607047426961F326
:104B9000C71242617047C26861F34D32C26070470C
:104BA00002461068084008B1012070470020FCE769
:104BB00041B9426922F480724261426922F4007272
:104BC000426127E001290AD1426922F4807202F58C
:104BD00080724261426922F4007242611AE0022945
:104BE0000AD1426922F480724261426922F4007261
:104BF00002F5007242610DE003290BD1426922F4F3
:104C0000807202F580724261426922F4007202F5FC
:104C100000724261704700002DE9F04385B0044600
:104C20000F46904699466846FDF722FB1748844296
:104C300005D01748844202D01648844201D1029E12
:104C400000E0039E06EB86004000B0FBF7F50A206B
:104C5000B5FBF0F100FB1150052803D20A20B5FB8B
:104C6000F0F503E00A20B5FBF0F0451CA06865F301
:104C70000F00A060E06868F30C30E060206969F321
:104C80000D30206105B0BDE8F08300000038014020
:104C9000006001400064014030B5012A0BD100EBF7
:104CA00011431B6801F01F050124AC40234300EBB6
:104CB000114423600AE000EB11431B6801F01F055B
:104CC0000124AC40A34300EB1144236030BD41B943
:104CD000C26822F40072C260C26822F48062C260BC
:104CE0001AE001290AD1C26822F40072C260C268C7
:104CF00022F4806202F58062C2600DE002290BD1CD
:104D0000C26822F4007202F50072C260C26822F426
:104D1000806202F58062C2607047C26861F38202FD
:104D2000C2607047C26861F3C302C2607047014647
:104D30000A69D1E901309860D1E9010358605068EF
:104D4000884201D188685060002008611068401EC8
:104D500010601068704700F1080141604FF0FF31AA
:104D6000816000F10801C1600161002101607047AC
:104D700000210161704710B502460B685C1C0CB93C
:104D8000106907E002F1080000E040684468246808
:104D90009C42FAD944684C604C68A16088604160CC
:104DA0000A611468641C146010BD42684A6093680C
:104DB0008B60936859609160086103685B1C0360B5
:104DC0007047000000BF502080F31188BFF34F8F61
:104DD000BFF36F8F00BF0E480068401C0C4908608D
:104DE00008460068012812D10A480068C0B208B914
:104DF000012000E0002050B900BF502080F311884E
:104E0000BFF34F8FBFF36F8F00BF00BFFEE7704748
:104E10002000002004ED00E00D48006850B900BFFC
:104E2000502080F31188BFF34F8FBFF36F8F00BF07
:104E300000BFFEE706480068401E054908600846B6
:104E4000006820B9002080F3118800BF00BF7047C0
:104E50002000002070B506463546002E44D0083D9F
:104E60002C46224960680968084008B1012000E02A
:104E7000002050B900BF502080F31188BFF34F8F3E
:104E8000BFF36F8F00BF00BFFEE7206808B90120A5
:104E900000E0002050B900BF502080F31188BFF31C
:104EA0004F8FBFF36F8F00BF00BFFEE70F496068F1
:104EB00009680840C0B12068B0B90C496068096849
:104EC0008843606000F01CF909496068096808447B
:104ED000074908602046FEF719FD06480068401C97
:104EE0000449086000F0A2FB70BD00003002002001
:104EF000200200202C02002000204FF0E021086159
:104F00008861064800684FF47A71B0FBF1F0401EEA
:104F10004FF0E02148610720086170471C00002025
:104F200070B504460025D4B11248006808B90120C4
:104F300000E0002050B900BF502080F31188BFF37B
:104F40004F8FBFF36F8F00BF00BFFEE700F0D8F8B0
:104F500000212046FEF728FB00F068FB05463DB91E
:104F60004FF0805004490860BFF34F8FBFF36F8F3D
:104F700070BD00000C02002004ED00E070B5054695
:104F8000FFF720FF15B93048006800E028460446C6
:104F9000201DFFF7CCFE78B9E06A00EB80002B49BA
:104FA00051F8200040B994F82C100120884028497D
:104FB0000968814326480160A06A18B104F118000D
:104FC000FFF7B5FE23480068401C224908601E48D0
:104FD0000068844209D1211D1F48FFF7E6FE1F48E3
:104FE0000068401C1D49086009E01D480068401E1B
:104FF0001B4908602046FEF7A1FBFEF7BBFCFFF74C
:105000000BFF18480068E8B10F480068844219D1C6
:105010001548006808B9012000E0002050B900BF21
:10502000502080F31188BFF34F8FBFF36F8F00BF05
:1050300000BFFEE74FF080500C490860BFF34F8F70
:10504000BFF36F8F70BD0000D0010020900F0020D3
:10505000E8010020FC01002030100020DC010020CD
:10506000E0010020EC0100200C02002004ED00E033
:105070001CB51B4800210B468022CDE9001019A168
:105080001A4800F03FF90446012C15D100BF50200A
:1050900080F31188BFF34F8FBFF36F8F00BF4FF0C6
:1050A000FF301349086001201249086000201249AE
:1050B000086000F073F810E0601C08B1012000E007
:1050C000002050B900BF502080F31188BFF34F8FEC
:1050D000BFF36F8F00BF00BFFEE7084800681CBD2C
:1050E0000402002049444C4500000000CD37000870
:1050F00000020020EC010020E40100200802002052
:1051000002480068401C0149086070470C020020FA
:105110001D48006818B101201C49086032E00020D9
:105120001A4908601A480068B0FA80F0C0F11F01FF
:1051300001EB8100174A52F8200008B1012000E07D
:10514000002050B900BF502080F31188BFF34F8F6B
:10515000BFF36F8F00BF00BFFEE701EB81020D4B75
:1051600003EB820042685268426000F10802436823
:10517000934202D14268526842604268D268064B4C
:105180001A6000BF704700000C020020F4010020EC
:10519000E8010020900F0020D00100201CB55248EB
:1051A00000685249884201D0012000E0002050B937
:1051B00000BF502080F31188BFF34F8FBFF36F8F74
:1051C00000BF00BFFEE7484800684849491E8842C2
:1051D00001D0012000E0002050B900BF502080F332
:1051E0001188BFF34F8FBFF36F8F00BF00BFFEE783
:1051F0003F49084600780190FF200A461070084693
:10520000007800909DF8000000F0F0009DF800206C
:10521000904201D1012000E0002050B900BF502091
:1052200080F31188BFF34F8FBFF36F8F00BF00BFB4
:10523000FEE79DF8000000F050002E4A1070072095
:105240002D4A106009E02C480068401E2A4A106070
:105250009DF800004006000E00909DF8000000F050
:1052600080008028EFD024480068C0F1070004289F
:1052700001D1012000E0002050B900BF502080F390
:105280001188BFF34F8FBFF36F8F00BF00BFFEE7E2
:10529000194800680002184A10601046008800F49F
:1052A000E0601060124A019810700F4820300068CA
:1052B00040F470000C49203108600846006840F056
:1052C00070400860FFF718FE00200C490860FAF7EC
:1052D000EDFF0B48006840F0404009490860FAF7CC
:1052E000D1FF00201CBD000000ED00E071C20F41A5
:1052F00000E400E02400002028000020200000201E
:1053000034EF00E02DE9FF4F85B08046894617460F
:10531000DDE912ABB800FEF765FB064656B14C203E
:10532000FEF760FB04460CB1266304E03046FFF74D
:1053300091FD00E000247CB10020CDE900ABCDE977
:1053400002403A4649464046089BFEF753FA20463B
:10535000FEF776F9012501E04FF0FF35284609B048
:10536000BDE8F08F2DE9F05F07460D4616469846DA
:10537000DDF828A04FF0010B0DB9012000E000205E
:1053800050B900BF502080F31188BFF34F8FBFF397
:105390006F8F00BF00BFFEE757B900BF502080F3FA
:1053A0001188BFF34F8FBFF36F8F00BF00BFFEE7C1
:1053B0003C46FFF707FDBAF1000F05D004F14400A9
:1053C00050F82500CAF8000004F1480010F80590D4
:1053D00002214155B8F1050F29D2DFE808F0270373
:1053E0000D171C0004F1440050F82500304304F16F
:1053F000440141F825002DE004F1440050F8250057
:10540000401C04F1440141F8250023E004F144006C
:1054100040F825601EE0B9F1020F04D004F1440009
:1054200040F8256001E04FF0000B13E012E028483F
:10543000006808B9012000E0002050B900BF5020EA
:1054400080F31188BFF34F8FBFF36F8F00BF00BF92
:10545000FEE700BF00BFB9F1010F33D1201DFFF7F8
:1054600066FC94F82C10012088401A49096808430A
:1054700018490860E16A01EB8101174A02EB8100DB
:10548000211DFFF792FCA06A08B9012000E000206E
:1054900050B900BF502080F31188BFF34F8FBFF386
:1054A0006F8F00BF00BFFEE70C49E06A0968C96A58
:1054B000884207D94FF0805009490860BFF34F8FE9
:1054C000BFF36F8FFFF7A8FC5846BDE8F09F0000C0
:1054D000E4010020E8010020900F0020D00100200E
:1054E00004ED00E02DE9F0414FF000084448006869
:1054F00000287CD143480068451C4248056015BB24
:1055000041480068006808B9012000E0002050B957
:1055100000BF502080F31188BFF34F8FBFF36F8F10
:1055200000BF00BFFEE738480768384800683649C2
:1055300008603648076036480068401C34490860F7
:10554000FEF718FA00BF3348006885423CD300BF1D
:105550002D480068006808B9012000E0002020B153
:105560004FF0FF302B4908602DE027480068C068E5
:10557000C4686668B54202D22648066023E0201D52
:10558000FFF7D5FBA06A18B104F11800FFF7CFFBB5
:1055900094F82C10012088401F49096808431E49CF
:1055A0000860E16A01EB81011C4A02EB8100211DC8
:1055B000FFF7FBFB1A49E06A0968C96A8842C7D34A
:1055C0004FF00108C4E700BF15480068C06A00EB4F
:1055D0008000124951F82000012801D94FF001083C
:1055E0001048006808B14FF0010805E0FFE70E48D9
:1055F0000068401C0C4908604046BDE8F08100008E
:105600000C020020E4010020D4010020D801002079
:10561000F801002000020020E8010020900F002087
:10562000D0010020F4010020F001002070B500241A
:1056300000263648006850B900BF502080F311881A
:10564000BFF34F8FBFF36F8F00BF00BFFEE7FFF7C1
:10565000B9FB2E480068401E2C49086008460068C7
:1056600000284FD12A48006800284BD024E0294860
:10567000C068C46804F11800FFF759FB201DFFF74C
:1056800056FB94F82C1001208840234909680843F0
:1056900021490860E16A01EB8101204A02EB8100A7
:1056A000211DFFF782FB1E49E06A0968C96A88422A
:1056B00002D301201B4908601648006808B9012080
:1056C00000E000200028D2D00CB1FEF753F91648B4
:1056D000056865B100BFFFF705FF10B10120114952
:1056E00008606D1E002DF6D100200F4908600D489E
:1056F000006838B1012630070C490860BFF34F8FAE
:10570000BFF36F8FFFF788FB304670BD0C0200209F
:10571000E00100201C100020E8010020900F002074
:10572000D0010020F4010020F001002004ED00E091
:1057300021F00042A2F16052B2F5801F01F0004357
:1057400028BFD2F17F6C0BD95FEA001C43EAC2028A
:1057500042EB507018BF704728BF20F0010070471F
:10576000B2F5801FBCBF184670474FEA410C1CF5CC
:10577000001F02D2084600F02BBB70B500F074F990
:1057800000000089FFF7F6BF4FF00040A0F5800051
:105790007047000010B591EA030F48BF83F0004343
:1057A00000F1BE81841A71EB030C05D2121943EB90
:1057B0000C03001B61EB0C01DFF824E14FEA1154EC
:1057C000A4EB135C1EEA430F18BF9EEA445F73D03C
:1057D00023EA0E03DCF1200E21EA045143F4801386
:1057E00032D322FA0CFE10EB0E0023FA0CFE41EB32
:1057F0000E01CCF1200E03FA0EFE10EB0E0051F15B
:105800000001B1F5801FCCF1200E32D201EB045122
:1058100012FA0EF2BDE8104058BF7047401C38BF66
:105820005FEA420218BF7047002814BF20F0010051
:1058300041F100014FEA410313F5001F38BF7047E3
:10584000A1F1C04100F05EB9012A43EB0302ACF1C3
:10585000200CDCF11F0E32BF4FF0000E23FA0CF3C8
:1058600010EB030041EB0451B4EB115FD0D0A1EB7E
:10587000045101F5801149085FEA300001EB045141
:105880000ED350F1000038BF12FA0EFE08D1BDE869
:105890001040C9E7401C38BF5FEA4202CAD1C3E7E3
:1058A000BDE810404FEA410313F5001F38BF7047B1
:1058B000A1F1C04100F026B99EEA445F08D011EA88
:1058C0005E0FBDE8104004BF01F0004100207047AA
:1058D000BDE8104070B500F0C7F800BF64FBBE3EE5
:1058E0000000E0FF10F0004248BF4042B0FA80F3F1
:1058F00010FA03F10AD0C3F11D0303F580634FEAE8
:10590000415002EB035202EBD12170474FF00000EF
:1059100070470000DFF848C170B51CEA111E1EBFB9
:105920001CEA13159EEA0C0F95EA0C0F00F06F802D
:1059300081EA030423EA4C134EEAD47E21EA4C1197
:1059400041F4801143F48013AE44A1FB024CA0FB50
:105950000365AEF17F7E361955EB0C05A1FB034CB8
:105960004CF10003A0FB021C16EB0C06654153F141
:105970000003094218BF46F0010613F4007F0BD163
:105980004FEA03314FEA0530340341EA155140EA4A
:1059900016506FF003020AE04FEAC3214FEAC52018
:1059A000F40241EA555140EA56506FF0020202EB10
:1059B0002E4201EB025585EACE710AD05FEA440C13
:1059C00018BF24F0004450F1000041F1000120EA2A
:1059D000D47040F2FE7C624500D270BDA84214BF74
:1059E0004FF080444FF04044002E08BF0024BEF129
:1059F000806FA8BFA1F1C041BDE8704080F28280F5
:105A00004FF0000001F1C04101F0004170479EEAF3
:105A10000C0F0CEA131518BF95EA0C0F06D04FF0C7
:105A2000000081EA030E0EF0004170BD00F01CF88A
:105A30008900013E00F007B800F009B84FEA430CB6
:105A40005FEA5C5C08D081EA030100F05BB84FEAD2
:105A5000410C5FEA5C5CF6D14FF0000001497047F1
:105A60000000FF070000F87F0EF1020E2EF0030E7B
:105A70005EF8046B364205D4012A43EB030515F5A5
:105A8000001F12D8012841EB010C1CF5001F0CD897
:105A90000ED14FEAD17C15F5001F0CEB4C0C0CF12C
:105AA000020C08BF4CEBD37C04E04FF0080C01E083
:105AB0004FEAD37C0CEB4C0526FA05F606F00706F8
:105AC000B6F1040C06D20EEB860CBDE870404CF02B
:105AD000010C6047DFE80CF0090B02024FF00041B7
